:020000040001F9
:100000003DB8F396000000000008000048790000A9
:1000100000000000010203000400000000000000D6
:1000200000000000000000000000000000000000D0
:1000300000000000000000000000000000000000C0
:1000400000000000000000000000000000000000B0
:1000500000000000000000000000000000000000A0
:10080000001A00204D170100435C01003917010058
:100810003917010039170100391701003917010094
:10082000000000000000000000000000B9180100F6
:1008300039170100000000005118010039170100AC
:10084000551A0100551A0100551A0100551A0100E8
:10085000551A0100551A0100551A0100551A0100D8
:10086000551A0100551A0100551A0100551A0100C8
:10087000551A0100551A0100551A0100551A0100B8
:100C7000551A0100551A0100551A010053B94AB915
:100C8000002908BF00281CBF4FF0FF314FF0FF3094
:100C900000F00CB8ADF1080C6DE904CE00F008F8D6
:100CA000DDF804E0DDE9022304B07047704700BFBF
:100CB0002DE9F04786468C460846089E1546744640
:100CC0001946002B40F0C1808542B2FA82F245D924
:100CD0004AB1C2F1200300FA02FC954094402EFA7A
:100CE00003F343EA0C0C4FEA154EA8B2230CBCFBED
:100CF000FEF80EFB18CC08FB00F943EA0C439945BB
:100D000028D9EB1808F1FF3704D2994502D9A8F188
:100D100002072B44A3EB0903A4B2B3FBFEFC0EFBBA
:100D20001C330CFB00F044EA0344A04214D92C19F4
:100D30000CF1FF3304D2A04202D9ACF102032C44DF
:100D4000241A43EA07401EB1D44000233460736084
:100D5000BDE8F0874746DDE76346F1E792BB431BFA
:100D600001214FEA154EAFB2200CB3FBFEFC0EFB87
:100D70001C330CFB07F840EA0343984561D9EB1894
:100D80000CF1FF3004D2984502D9ACF102002B449B
:100D9000A3EB0803A4B2B3FBFEFC0EFB1C330CFB5D
:100DA00007F744EA0344A7424DD92C190CF1FF334D
:100DB00004D2A74202D9ACF102032C44E41B43EA5B
:100DC0000040C0E7C2F120039540944020FA03F1AF
:100DD0002EFA03F34FEA154E9040AFB20343B1FB36
:100DE000FEFC0EFB1C10190C0CFB07F841EA00413D
:100DF000884522D969180CF1FF3004D2884502D900
:100E0000ACF102002944A1EB08019BB2B1FBFEFC4E
:100E10000EFB1C110CFB07F743EA01439F420ED95E
:100E2000EB180CF1FF3104D29F4202D9ACF1020160
:100E30002B44DB1B41EA004193E76046E3E7614650
:100E4000F7E76046A4E76346B8E7834206D916B9D8
:100E5000002108467CE7C6E900E0F9E7B3FA83F72A
:100E60008FB9834201D3724508D8BEEB020460EB10
:100E7000030301209C461EB9002169E73846FAE7C2
:100E8000C6E9004CF8E7C7F1200CBB400EFA07F5A5
:100E900022FA0CF42EFA0CF1BA401C4320FA0CF39F
:100EA000B8404FEA144901431FFA84FEB3FBF9F836
:100EB00009FB18300B0C08FB0EFA43EA00439A4575
:100EC00040D9E31808F1FF3004D29A4502D9A8F1BD
:100ED00002002344A3EB0A0389B2B3FBF9F809FB30
:100EE000183308FB0EFE41EA03418E452CD96118E8
:100EF00008F1FF3304D28E4502D9A8F10203214440
:100F000043EA0040A1EB0E01A0FB02984145CE460A
:100F1000434602D306D14D4504D20138B9EB020E47
:100F200068EB0403002EA7D0B5EB0E0261EB0301C2
:100F300001FA0CFC22FA07F3F9404CEA0303C6E974
:100F4000003199E74046C5E74346D9E708B5064969
:100F5000064804F091FA064804F0A0FA054906484C
:100F600004F08AFA002008BD2879010043790100C5
:100F700054790100657901006D790100014B1B680E
:100F8000184700BFD0000020014B1860704700BF19
:100F9000D000002030B585B004460D461022002157
:100FA000684605F070FE02238DF80230044B2A4695
:100FB00021466846019304F091FA05B030BD00BFA8
:100FC0007D0F010080B505460E461746984603F092
:100FD000CFF8034605F0D2FE0446DFF818904246EB
:100FE00049F8003039463046A84754F8090000F067
:100FF00019FC00BF080000002DE9F047058B0446EE
:101000002807904611D4022905F0070540F0CC804E
:10101000204604F036FD78B10138218B042811D820
:10102000DFE800F0C2106D85950001290CBF45F086
:10103000100545F02005258388F31188BFF36F8FD5
:10104000BDE8F08701F0070AAA4500F0A580002757
:10105000B9463E46A368002B00F0BC8041F0080171
:10106000218388F31188BFF36F8FA168002900F0F6
:10107000BA800D68002900F0B680334652462046FB
:10108000D1F80480C047002D76D02B6829461D4634
:10109000F0E701F007035A1F012A1BD8002221F0B4
:1010A0000701062B276889B2C4E9002209D13B4613
:1010B00003E0628B013262831B68002BF9D141F09F
:1010C00002012046218304F0DCFC00287AD041F0A4
:1010D000200176E0042B0AD121F0070189B22046D5
:1010E000218304F0CEFC10B141F020012183218B3B
:1010F00001F0070AAA454FD00027B946AAE723699D
:1011000021F0070141F00601062DD3F8009021835C
:101110002DD1B9F1000F3FD041F00801218388F3B0
:101120001188BFF36F8F20463949C84729E021F065
:101130000701236941F0040189B2042DD3F804901A
:101140002183E6D000274FF0040A3E4682E721F0D3
:101150000701236941F0050189B2052DD3F80890F4
:101160002183D6D000274FF0050A3E4672E70027BC
:101170004FF0060A3E466DE72B4687E7B9F1000FB0
:10118000D1D1EFF31188202383F31288BFF36F8F3F
:10119000238B23F008032383258BEA062ED525F025
:1011A0001003238305F007056669218B002EBFF627
:1011B00070AF00232768C4E9003321F0070141F034
:1011C00001012183218B4FF0000901F0070AAA4594
:1011D0007FF440AF002F9CD041F00801218388F3B9
:1011E0001188BFF36F8F002FC8D03D683946334652
:1011F0005246204604F071FC2F46F4E7AB067FF51B
:101200001BAF25F02003238305F0070500E700BF8F
:10121000075B0100014B036000207047C8770100A5
:1012200008B5054804F020FC044804F01DFCBDE8A6
:101230000840034804F018BC86790100C579010014
:10124000F879010008B50348034A0021121A04F096
:10125000F0FC08BDA8020020C00C0020074808B51B
:10126000074A0849121A04F0E6FCBDE8084006489F
:10127000064A0749121A04F0DEBC00BF40000020F5
:10128000A8020020DC7E0100400000204000002079
:10129000DC7E010038B505460C4699B1D1E9012341
:1012A0000F48096804F0E0FBD4E90423E1680D4825
:1012B00004F0DAFBE1690C4804F0D6FBA1690B48A5
:1012C00004F0D2FB012D05D1EFF305810848103958
:1012D00004F0CAFB21462846BDE8384002F0CAB9EE
:1012E000267A0100567A0100867A0100967A01007A
:1012F000C57A010030BFFFF7FDBF00BF2DE9F04107
:1013000005460B4EDFF82C80324606EB0807CC1B57
:101310002046094905F0AAFCA01942460021083CD4
:1013200005F0B1FCC5F8B44007F10800BDE8F08154
:10133000000000000400000090770100054B5A698E
:101340009B689A421FBF044A536843F0805353601E
:10135000704700BF4806002000ED00E010B5204CAB
:10136000204804F081FBA36A990137D51E4804F098
:101370007BFB1E20A36ADA0103D51C4804F074FB32
:101380001F20174CA36ADB0203D5194804F06CFB3D
:101390000220A36A1C0303D5164804F065FB212034
:1013A0000F4CA36A590303D5134804F05DFB2220B8
:1013B000A36A9A0303D5114804F056FB2320084C76
:1013C000A36ADB0303D50E4804F04EFB2420A36A76
:1013D0006FEA03436FEA1343A36210BD1D20C9E700
:1013E00000ED00E0D97A0100F27A0100067B0100ED
:1013F000217B01004C7B01006B7B0100917B010094
:10140000AC7B010070B5244C064624480D4604F020
:101410002BFBA36AD90435D5214804F025FB1720FE
:10142000A36A1A0503D51F4804F01EFB18201A4CA6
:10143000A36A9B050FD51C4804F016FBA16BA36A99
:10144000180407D5194804F00FFB1EB1A36A23F452
:101450000043A3621920104CA36A590503D5144810
:1014600004F002FB1A20A36ADA050DD5114804F036
:10147000FBFA1B20084A936A43F47F4393620023DC
:101480002B7070BD1620CBE7A36A9B04F2D50A48E7
:1014900004F0EAFA1C20EDE700ED00E0D87B010043
:1014A000EF7B0100017C0100157C01002F7C010015
:1014B000457C0100617C01007A7C010070B5264CFE
:1014C000064626480D4604F0CFFAA36AD80640D552
:1014D000234804F0C9FA1120A36A190703D521484B
:1014E00004F0C2FA12201C4CA36A9A070FD51E48BA
:1014F00004F0BAFA616BA36A1B0607D51B4804F017
:10150000B3FA1EB1A36A23F08003A3621320124C26
:10151000A36ADE0703D5164804F0A6FA1420A36ACE
:101520009C0603D5134804F09FFA15200A4B9A6ACB
:10153000D10658BF9A6A9A6A920642BF5A6A22F442
:1015400000525A629A6A42F0FF029A6200232B709C
:1015500070BD1020C0E700BF00ED00E0AA7C0100D4
:10156000C17C0100017C0100F57C01000E7D0100C1
:10157000257D01007A7C01002DE9F0415B4B04469A
:101580005F6800258AB0C7F3080685F31188BFF3AA
:101590006F8F02F07F43B3F17F4F06D102F00C034F
:1015A000082B13D1524804F05FFA00252C464FF067
:1015B0000008F31E8DF80780092B00F28580DFE814
:1015C00003F00A797D7583838383838110074CBF81
:1015D0000C460125EBE74748444E04F045FA8DF8E8
:1015E0000780F36A9A0704D5434804F03DFA0023C4
:1015F0002FE0F36A002B01DA4048F6E7F36A5B005C
:10160000F5D53F4804F030FA7369A26943F480735A
:101610007361BFF34F8FBFF36F8F736932F8022C82
:1016200023F480737361BFF34F8FBFF36F8F4DF659
:1016300002739A4208D0B36ADBB24BB301200DF1BA
:101640000701FFF73BFF33E021682E4804F00CFA56
:1016500023689DF80720C2B902AE04F12007324684
:1016600020686168083403C2BC421646F7D1099A63
:10167000B5B3C2F3080121B96FEA52226FEA4222E0
:101680000992184602A9FFF705FE0AB0BDE8F081ED
:10169000B36A13F47F4F05D001200DF10701FFF766
:1016A000B1FE05E0B36AB3F5803FA0D3FFF756FE65
:1016B0000346CEE700200DF10701C2E700200DF13F
:1016C0000701ECE7104890E7104B17F4F87F10493A
:1016D000104818BF1946A6F1100204F0C5F986E7B4
:1016E00022F4FF7222F00102CAE700BF00ED00E021
:1016F000737D01009F7D0100B77D0100D97D010050
:10170000E87D0100087E0100257E01005A7D010070
:10171000457D01004A7E0100064B5A6942F01002E5
:101720005A615A6942F480625A615A6922F0080289
:101730005A61704700ED00E0EFF30880EFF3098194
:1017400001B57246FFF718FF01BD00BF002080F30E
:101750001488BFF36F8F002080F30A8880F30B8812
:10176000104880F3088800200F49087001F054F9F0
:1017700000200E490860BFF34F8F00F02DF82020A5
:1017800080F311880A484FF40061401880F30988FB
:10179000EFF314800221084380F31488BFF36F8FA6
:1017A00000F0F0F8001A0020BB0C002094ED00E0DF
:1017B000C00C0020002318460649D1F89020C2F33F
:1017C0000722934200DB7047C1F89830C1F8A000AF
:1017D0000133F6E700ED00E010B572B6002484F3A3
:1017E0001388FFF7E7FF23464FF0FF300C4A03F161
:1017F00020010133102B42F82100F8D100234FF0D3
:10180000FF30074A03F160010133102B42F8210039
:10181000F8D162B6BFF34F8FBFF36F8F10BD00BF1B
:1018200000E100E0084B9B6883420BD1EFF3058396
:1018300043B1064B5A6842F080525A605A6A22F409
:1018400000425A6202F09ABC4806002000ED00E017
:1018500016498A684FF030001044EFF3098C80E895
:10186000F01F202080F31288BFF36F8F104F4FF0CE
:1018700000664A698A603E60D2F8B4000D4C206070
:10188000D2F8B8000023C2F8B83080F3118802F112
:10189000300090E8F01F8CF3098802F1000004B5D5
:1018A00004F0DAF9BDE80440704700004806002063
:1018B00004ED00E0700500201EF0040F0CBFEFF3F4
:1018C0000880EFF30980816911F8021C0229FFD01A
:1018D00001B5724604F0B1F901BD00BF00B20028A5
:1018E00007DB01234109034A00F01F00834042F84F
:1018F0002130704700E100E000B200280CDB01223B
:101900000649430900F01F008240203341F823209C
:10191000BFF34F8FBFF36F8F704700BF00E100E050
:10192000054B420953F82220012300F01F0003FA5F
:1019300000F01040704700BF00E100E000B2002856
:1019400001F10101ACBF00F16040064B4FEA4111CB
:10195000C9B2ABBF00F5614000F00F0080F8001382
:101960001954704714ED00E0044B054A23F07F033F
:101970009360BFF34F8FBFF36F8F70470008010074
:1019800000ED00E008B5FFF7EFFF074AD2F8883016
:1019900023F47003C2F88830FFF754FCFFF75EFCB5
:1019A00000F048F801F02EFF00ED00E042F8203C86
:1019B000009B0B4942F81C3C019B21F0010142F8BD
:1019C000183C029B42F8081C42F8143C4FF080730C
:1019D00042F8043C0023203A0265C0F8B830704752
:1019E000C50F010000B50E4B15469860D0F8B42025
:1019F0000C4B0E461A60D0F8A43083F30B882C46AB
:101A000086F309880020044B9847204600210022D5
:101A10000023024C20470000695C0100C50F010053
:101A200048060020700500201022014B1A61704703
:101A300000ED00E00023202040F20F1210B5044C0E
:101A4000E1180133934281F80003F9D110BD00BFC2
:101A500000E100E008B5EFF30583064A103B02EB16
:101A6000C30152F8330049688847BDE80840FFF7D2
:101A700065BC00BF886E01001FB5094C094A2346AA
:101A80000121094800F0FAF800230393074B0121D4
:101A9000E41A01A80193029400F0FAF804B010BD12
:101AA00000F0022000000020C8770100A8020020FA
:101AB00010B50C7A0B6804F01F0223F01F031A43C1
:101AC000CB68640923F01F03054943EA440343F04C
:101AD0000103C1F89800C1F89C20C1F8A03010BDE6
:101AE00000ED00E010B5074BD3F89030C3F30723A7
:101AF000013B984202D8FFF7DBFF10BD6FF01500E5
:101B0000FBE700BF00ED00E02DE9F04F0F46144663
:101B100006464FF000084D4D85B0B84580F29280E2
:101B2000D6F80490B9F1000F36D0B9F11F0F40F28A
:101B3000878019F01F0F40F08380D6F800A01AF0BC
:101B40001F0F7DD1504604F0B2F8834609EB0A001E
:101B5000013804F0ACF8834572D11BF1160F6FD039
:101B60005C456DDDC5F898B0D5F89C10C5F898B007
:101B7000D5F8A03021F01F0143F01F0AD6E900324A
:101B80001A44994202F1FF391ED1CA4508D13146A3
:101B90005FFA8BF004F094F808F101080C36BCE70A
:101BA0003146C5F898B0D5F89C3022F01F0203F0FA
:101BB0001F031343C5F89C30E0B204F081F810F124
:101BC000160F3DD0441CE7E7C5F898B0D5F8A02023
:101BD000013B23F01F0302F01F021343CA453146A5
:101BE000E0B2C5F8A030E8D004F06AF810F1160FA2
:101BF00026D0C5F898B0D5F89C209DF808300AF199
:101C0000FF3A62F304038DF80830D5F8A0309DF850
:101C100008205B0863F347128DF80820D6E90032EC
:101C20001344009323F01F035344A3EB0903013033
:101C300023F01F036946C0B20393FFF753FFBEE7CB
:101C40006FF01504204605B0BDE8F08F00ED00E010
:101C50000522044BC3F89420BFF34F8FBFF36F8F5F
:101C6000704700BF00ED00E0BFF35F8F0022024B22
:101C7000C3F89420704700BF00ED00E010B5034C9E
:101C80002278FFF741FF207010BD00BFB80C002084
:101C90002DE9F74F294D8A4606464FF00008AB461E
:101CA000274FD0451BDAD6F80490B9F1000F3FD08A
:101CB00031680846019103F0FAFF0199044609EBE7
:101CC0000100013803F0F3FF84424FF014021D4B72
:101CD00008D002FB08F36FF015024BF8032003B0A5
:101CE000BDE8F08F14F1160F2C60F8D01978A142DE
:101CF000F5DD02FB08B0C7F89840C7F89840D7F860
:101D00009C4000F10801007B64F304000871D7F8DF
:101D1000A0000C79400860F347140C71D7F89C10B0
:101D200021F01F016960D7F8A01021F01F0129617F
:101D300008F1010814350C36B3E700BF7405002024
:101D400000ED00E0B80C0020F0B54149414CD1F85D
:101D500090302568C3F307239D4287B075D80020D3
:101D6000FFF782FF3C4BC1F8C030854216D13B4C97
:101D700001A82570FFF74EFA00250646384FAE42FF
:101D800013D1002023783249D1F89020C2F30722E2
:101D9000934254DBFFF75CFF00202FE0616801EB0A
:101DA0000011FFF785FE0130DFE70199280101EB03
:101DB0000513DA683A40B2F5001F21D0B2F5800F62
:101DC0002BD0B2F5801F38D15A689B680958013B67
:101DD00022F01F0003440120844623F01F0340EA41
:101DE0004C10CDE902218DF8100002A9207805934E
:101DF000FFF778FE00281DDA6FF0150007B0F0BD80
:101E00005A689B680958013B22F01F0003444FF0B9
:101E1000020C012023F01F03E1E75A689B68095870
:101E2000013B22F01F0003444FF0000C062023F07A
:101E30001F03D4E723780133237001359FE7C1F8EE
:101E40009830C1F8A00001339EE74FF0FF30D5E78E
:101E500000ED00E0D4770100AAFF4400B80C002098
:101E60000000F0FF08B5024B1B689847002008BD32
:101E700088050020034B044A1860937843F002035E
:101E80009370704788050020D400002008B50649EB
:101E9000064821F00701C1F1005202F53C3203F07F
:101EA000A4FD002008BD00BF071A00208C050020FB
:101EB00008B5234A234B1A6000F05EF84FF47A61AC
:101EC0002148D0F82436C3F30802C3F309434B4337
:101ED00082F480721D49883201FB02334FF4FA21EB
:101EE0005B00B3FBF1F201FB12331949B3F57A3F02
:101EF00028BF0132C1F80429D0F820364FF47A60A7
:101F0000C3F30802C3F30943434342F21C5082F473
:101F1000807202F2172200FB02334FF47A701B0A20
:101F2000B3FBF0F200FB1233B3F5FA7F4FF001037D
:101F300028BF0132C1F81C27C1F80036002008BDB7
:101F40000020A107E001002000C0FF00F82A008067
:101F50000000125048B1054B054A1B68B3FBF2F371
:101F60005843044B43F0010318477047E001002039
:101F700040420F00B07701000122024BC3F8042455
:101F8000704700BF002008E0084B70B5C31A0D462B
:101F900007499B10044659434022064803F0B7FE08
:101FA0002B4601462046BDE870401847AC0500208E
:101FB000B76DDBB6E86D0100402373B50B4C0093A1
:101FC000041B0B460D460A49A41061430646094A04
:101FD000094803F0C8FE011E05DA30462B4602B060
:101FE000BDE87040184702B070BD00BFAC050020CE
:101FF000B76DDBB6D15D0100E86D0100F8B50022D8
:102000000121054640F20510FFF798FC0F4800F04B
:102010009BFD0446B8B900F0B7FD2F690C4938465E
:1020200003F07EFD031E09DB01263E642D6908498D
:1020300005F11C0003F074FD031E02DA1C46204665
:10204000F8BDEE64FBE76FF00404F8E7F15D010012
:10205000007801001FB500220123CDE902236B4661
:10206000084ACDF800D0CDF804D003F0AAFE00282D
:1020700005DB43F609520023684601F025FD05B053
:102080005DF804FBE35D010010B5EFF3118420233C
:1020900083F31288BFF36F8F074A136823F002019E
:1020A000DB07116002D4012003F0F0FF84F31188F4
:1020B000BFF36F8F10BD00BFFC0500200C22104B3A
:1020C000014602FB0033002030B4D3E90E5298637E
:1020D000EFF31180202484F31288BFF36F8F1C6C00
:1020E00004F0C00444F002041C6480F31188BFF3C0
:1020F0006F8F1DB12B4630BC0248184730BC70476B
:10210000AC050020E86D010010B4EFF3118220232C
:1021100083F31288BFF36F8F1648016841F0020401
:102120000460C80707D482F31188BFF36F8F0120C2
:1021300010BC03F0A3BF1049D1F80C14C903F2D5A9
:10214000EFF3118083F31288BFF36F8F0B490B6C91
:1021500003F0C00343F002030B6480F31188BFF364
:102160006F8F82F31188BFF36F8F002010BCFFF7D1
:10217000A5BF00BFFC05002000E01050AC0500200A
:102180002DE9F041012207463449D1E8EF3FC1E88B
:10219000E02F0028F9D133B9314932484B60CB6088
:1021A0008A6003F0D0FC7B1E012B28D8012F06D1BA
:1021B0002D4BD3F8503403F00303012B1FD004F050
:1021C000F6F90546E8B9294B1B78D3B10422064637
:1021D000254BC3F80823244CDFF89480D4F84C2412
:1021E000D4F84C34D20315D503F00303012B01D0EE
:1021F000012F0FD165B386F31188BFF36F8FBDE850
:10220000F081EFF31186202383F31288BFF36F8FE1
:102210000125E0E7BDB1304603F03AFDD4F8403483
:1022200013F0FF03DAD1D4F80821002AD6D0C4F87D
:102230000831D4F8083120220123C4F84034C8F80A
:10224000A0212361CAE70021202001F03FFFE5E73C
:102250000422054BC3F80423D1E700BFA8050020E2
:1022600098050020C805002000E01050BB0C00209D
:1022700000E100E008B5074804F070F938B10648FD
:10228000FFF7F8FD0448FEF77FFE002008BD6FF061
:102290001200FBE7686E01009D2201000A2838B594
:1022A0000446074D04D1AB680D2128465B6898476A
:1022B000AB6803485B68E1B29847204638BD00BF71
:1022C000686E01002DE9F04340F206354768D006FC
:1022D00048BF4FF0030C3B7C02EA050558BFC2F330
:1022E000401C87B001F01F06B5F5837F144646EA0F
:1022F00043168DF803C046D00DD8062D45D005D81D
:10230000A5B1022D12D06FF0150039E0B5F5807F30
:10231000F9D101250AE040F20222954237D0B5F505
:10232000407F36D0B5F5007FEDD10425012322038F
:1023300003FA01F12FD57B685960B86880BB5F2E26
:1023400006F01F034FEA561173D83C4A52F8212079
:1023500084F4803102EB8302D2F88030C1F3004173
:10236000C4F3404423F4706344EA410423F00F03B0
:102370001C4344EA8C0444EA0524C2F8804000204F
:1023800007B0BDE8F0830925D0E70825CEE706258C
:10239000CCE70525CAE7630344BF7B689960CCE7B7
:1023A00031460DF1020204F04BF814F4403F804630
:1023B0000CD13146B86804F05CF8B8F1000FDED1FA
:1023C0009DF80210B86800F071FED8E74FF00009E0
:1023D00001ABCDE90199CDE90439CDF80C90314636
:1023E000B86803AA03F070FF4845C8DB14F4003353
:1023F00014D09DF8033084F48034C4F300448DF885
:102400000E308DF80C508DF80D404B463146B868B3
:1024100003AA00F099FD0028CFDAB0E7CDE9043334
:102420000DF1030303933146B86803AA03F04CFF90
:10243000F1E7203350F82330FFDE00BF1C780100A5
:102440004209022A034670B503D0012A18D0CAB146
:1024500070BD0E4E326951680029F9D0012503F094
:102460001F030C689D400029F2D08A682A4002D0E0
:1024700030464B6898473CB1236821461C46F2E73A
:10248000034EE7E7034EE5E72346F6E7486E010013
:10249000286E0100086E010038B54568A868C0B113
:1024A00003F0E1FF0146A0B9A86800F0C7FD0446AB
:1024B00088B902460949A86803F0BFFF22460121F6
:1024C000DB20FFF73BFA2246012140F20D10FFF717
:1024D00035FA002038BD6FF00400FBE7412401000D
:1024E000F0B545681646A8682A7C01F01F0487B03D
:1024F00044EA4214002868D0B6F5001F04D12146F2
:1025000004F00BF8002051E00020B6F5800F01AA7E
:102510000190506039D1B3F1007F14BF052304232B
:102520008DF804300023CDE904230393EB680DF10B
:10253000030723FA01F111F0010139D1B6F1A07FAF
:1025400036D104F01F035F2C4FEA541003F120032F
:102550003ED8214A52F8202052F82330DB0727D4F6
:102560003A462146A86803F06BFF163018D0029750
:102570002146A86803AA03F0A7FE002816DB012263
:102580002146A86803F077FFBCE7B3F1C06F05D020
:10259000B3F1007F14BF01230223C1E70323BFE788
:1025A0003946A86800F08CFD0028E0DA07B0F0BDDD
:1025B0003A462146A86803F043FF0028D8D19DF889
:1025C0000310A86800F072FDD2E76FF08500EDE718
:1025D00051F82330FFDE00BF1C780100036803F0D0
:1025E0001F025F2B02604FEA53129ABF024B53F84F
:1025F00022000020704700BF647801002DE9F04FF1
:102600001546074640F2FF19DFF868A1DFF868B108
:1026100085B000EB8101B94203D1002005B0BDE8CF
:10262000F08F3A68C2F3C323082BC2F3080400F208
:102630009E804C4508BF4FF0FF34B2F1D05F1AF8CE
:1026400003804FEA126310D2192B12D8DFE803F08F
:1026500014226461292F611111111111111111112D
:1026600011111111111167717477382B6AD04E2B2B
:1026700052D06FF08500D1E7C5F80446601C14D035
:10268000012603A80394FFF7A9FF039B06FA03F3AF
:10269000436004E0C5F80C46621C06D000263246B2
:1026A00013E0631CC5F800465FD10437B3E7661C2E
:1026B000C5F80446F9D0012603A80394FFF78EFF5E
:1026C0000122039B02FA03F383603B68039403F443
:1026D0000040002818BF002203A818BF012601935C
:1026E0000092FFF77BFF039C019B00EB8400D0F876
:1026F0008040C3F3412C009A4FEA082343EA8C033D
:10270000134304EA0B04234343EA4603C0F8803032
:10271000CBE7C5F80846BFE7C5F81046AEE7C5F8F1
:102720006045621C3B68C0D0C3F30043002BC2D09D
:10273000A6E7C5F86445F4E7C5F86845F1E7C5F8CC
:102740006C45EEE703A80394FFF748FF039B00EBFB
:102750008300D0F8803023F0E04343F08043C0F89A
:102760008030631CA1D0012699E70026A4E76FF012
:10277000150053E79C7E0100F0F0FCFF2DE9F041CD
:1027800004460D46476803F012FFA0B9274B1B789B
:102790008BB14FF02008642663681B68D3F8303192
:1027A0008BBB012003F033FC013EF5D1002120203A
:1027B00001F08CFCEFE72021EFF311831A4681F33F
:1027C0001288BFF36F8F60680068D0F8300120B9BD
:1027D00083F31188BFF36F8FEEE77B6A00201D70D3
:1027E0006368796A1B68C3F83C170121C3F8401776
:1027F000C3F83001D3F83001196582F31188BFF3B3
:102800006F8FBDE8F081EFF311831A4688F31288C9
:10281000BFF36F8F61680968D1F830110029DCD1EE
:1028200083F31188BFF36F8FC0E700BFBB0C00209C
:1028300070B40D4CD4E90065901B63EB05014009B1
:1028400040EAC1604101891945EBD065C4E9001532
:10285000002400250549C1E90023054BC3E90045D3
:1028600070BC01F093BE00BFC8020020B00200207F
:10287000C002002008B500220121E420FFF75EF825
:10288000164A0020D2F8183723F44033C2F818371C
:1028900000F048FD002820DB0120114900F0CEFDAA
:1028A00000281ADB00F018FD0E4B20F01F00C3E9D2
:1028B00000010D4B0022C3E900014FF0FF304FF043
:1028C000FF310A4BC3E90001094B0A49187A00F0AD
:1028D00013FD67220020084B1A6008BD00200E502F
:1028E000DC010020C8020020A8020020B002002065
:1028F000D4010020312801002C06002008B500F08A
:10290000EBFC064AD2E90032C01A054B61EB02012A
:10291000C3E90001400940EAC16008BDC8020020C7
:10292000C0020020F7B5224B0146224F187A224BF5
:10293000D7E90056D3E900239E4208BF954211D142
:10294000B1F1806F0ED24901012938BF0121012266
:102950004D1946F10006C7E9005603B0BDE8F04046
:1029600000F004BE154BDFF858C0D3E90043DCE9A2
:10297000002CA41843EB0C0C4FF0200E22466346AB
:10298000C1FB0E23954276EB0301C7E900230DD26C
:10299000291B66EB0C04C82974F10004B4BF0121A3
:1029A0000021009100F0AAFD03B0F0BD0021F8E77E
:1029B000D4010020B8020020B0020020C80200208C
:1029C000C0020020064BD3F840231C2A05D1D3F8BF
:1029D0004403431E5842584170470020704700BFCF
:1029E00000C0FF0003689A070CD50368DB070DD50C
:1029F0000922074BC3F80C250F22C3F80425012236
:102A00001A60FEE7034B0360EF3B0360704700BFB3
:102A100000801050F000FA5008B501233C4A3D48B0
:102A2000C2F800383C4AD2F840231C2A04BF3B4A73
:102A3000C2F80C34FFF7D6FF0830FFF7D3FF083099
:102A4000FFF7D0FF0830FFF7CDFF00F5F470FFF778
:102A5000C9FF334AD2F88C3043F44063C2F88C305B
:102A60000022D30003F57F0303F54043D3F800149D
:102A700001310AD0D3F8001439B1D3F8001401326F
:102A8000D3F80434402A0B60EBD1214BD3F8402417
:102A9000002A38D0FFF796FF48B11F4BD3F83423F4
:102AA000204B9A429EBF1A4B1F4AC3F84026FFF79D
:102AB00089FF18B11D4B1E4AC3F8AC27FFF782FFF0
:102AC00048B13422124BC3F82426D3F83C2622F412
:102AD0000022C3F83C26174B1149D3F80026D20731
:102AE00044BF6FF00102C3F800260323124AC2F864
:102AF0001835D1F88C3043F44063C1F88C30002392
:102B0000C2F8A03508BDC822C3F84024C2E700BF00
:102B10000000125000C50D5000C0FF0000300550ED
:102B200000ED00E0001D0A1840E0A91E00A00850BA
:102B300078000A0400E0105000B00450014B1B68FC
:102B4000184700BF3006002010B50C4C237993B90C
:102B5000012323710A4B0028206018BF184600F09B
:102B6000F3F850B923680748002B08BF1846BDE8A2
:102B7000104000F035B86FF0770010BD300600202F
:102B80003D2B01007960010008B5074B1B6853B16C
:102B900040F20510FEF7C4FE28B9BDE8084040F237
:102BA0000510FEF79BBE08BD3006002038B5042393
:102BB0000A4C42F21075C4F8083301236361002304
:102BC000C4F80831D4F80831D4F84C34DB0304D508
:102BD000012003F01CFA013DF6D138BD00E0105091
:102BE000064A13793BB9012110601171044A184655
:102BF000C2F8403470476FF0770070473806002005
:102C000000E0105010B51D4B1D4CD3F84C14D3F8F8
:102C10004C2411F4803F18D002F00302012A03D0A3
:102C20000AB1FFF7C3FF0022144BC3F8402400226F
:102C3000C3F80821D3F8082101221A61226872B969
:102C4000D3F80821002AFBD011E0D3F84824D1079B
:102C5000E9D5D3F850249207E3D422681AB10422AC
:102C6000C3F8042310BDD3F80821002AFBD00022AA
:102C7000C3F80821D3F80831F4E700BF00E0105092
:102C800038060020F8B50125184C194ED4F80C333D
:102C900003F00C0303B9F8BDB3FA83F30027C3F1C3
:102CA0001F039A0002F5807292B202F1A04202F56F
:102CB0008712176005FA03F1022B1268D8B2C4F824
:102CC000081310D1D4F84C34D4F84C349B070AD1F3
:102CD0000423C4F84054C4F804332561D4F80C33F9
:102CE00003F00C03D6E733689847F7E700E010508D
:102CF00038060020712238B5104B0021C3F8082394
:102D0000012242F210745A60C3F80011D3F8001186
:102D10000B490A4DD1F840131C2908BFDA60D5F8D9
:102D20000C3413F4803305D0012003F070F9013C1A
:102D3000F5D138BD034A5371FBE700BF00E01050E6
:102D400000C0FF0040060020054B0246187918B964
:102D50001A6001221A7170476FF07700704700BF48
:102D6000400600200022164BC3F81021D3F81011A2
:102D7000C3F81821D3F81811C3F81421D3F814118B
:102D80001049D1F840131C2904BF01219960C3F8F0
:102D90000021D3F8002101221A600B4A126852B9AF
:102DA000074BD3F80021002AFBD00022C3F80021F2
:102DB000D3F8003170477122C3F80423704700BF75
:102DC00000E0105000C0FF0040060020F8B50126CA
:102DD000194C1A4DD4F80C3303F0710303B9F8BD44
:102DE000B3FA83F30021C3F11F039A0002F5807246
:102DF00092B202F1A04202F58712116006FA03F7BF
:102E0000042B1268D8B2C4F8087308D0062B10D06F
:102E10002B689847D4F80C3303F07103DEE70223E4
:102E20006B71C4F81411D4F814312023C4F804339E
:102E3000EEE76971ECE700BF00E0105040060020AB
:102E4000036803F01F025F2B02604FEA53129ABF20
:102E5000024B53F822000020704700BFD8780100D1
:102E6000034A4309D35C00F01F001844C0B2704706
:102E7000B07E0100F0B50646002487B0114F0191E5
:102E800017F8012B06AB03EBD20313F8143C02F046
:102E90000702D34013F0010306D10134032CEFD114
:102EA0000023184607B0F0BD074A03AD07CA85E8FE
:102EB000070055F824100A6A46F824200A62002AFE
:102EC000EBD0EEE7C07E010090770100F7B5044635
:102ED0000846FFF7C5FF06B204EB4606B38A0D4667
:102EE000DB072BD5204603F0CCF92946204603F01A
:102EF00038F958B1204603F04AF90022276800B299
:102F000007EB8003C3F81025C3F810252946204697
:102F100003F066F9002101A8B1820195FFF790FF47
:102F2000019B00EB8300D0F88020064B134043F058
:102F30000203C0F88030084603B0F0BD6FF0150002
:102F4000FAE700BFF0F0FCFF2DE9F043044685B03E
:102F5000084616461D46FFF783FF0F46804636B3E8
:102F6000204603F009F918B9204603F0FAF828BB07
:102F70000FFA88F904EB4909B9F8143013F01C0F63
:102F800002D07378012B19D001238DF80F30002364
:102F90003846CDE90063721CB31C0DF10F0103F03C
:102FA00088F8B9F8143043F00303A9F81430002D61
:102FB00040D03946204603F0DFF820B96FF0150005
:102FC00005B0BDE8F0830022297823684FEA810C20
:102FD00003EB8103C3F81025C3F810250FFA88F21C
:102FE00004EB4202938A23F4604323F0200393828C
:102FF0006E78FEB12468A8786444D4F810550E4B5E
:1030000036042B40C4F8103541F6F07306F4403610
:1030100003EA07130005D4F81055334300F4801079
:1030200003432B43C4F81035938A43EA413343F0FA
:10303000200393820020C3E70FE0ECFF70B590F807
:103040007440054690F8756044BB46222146143012
:1030500003F019FE2146134A2B6852F836608E425F
:1030600012D1002440F20D10C3F84441D3F844219A
:103070000D4A934208BFDB20FEF730FC01232046B7
:1030800085F874302B6670BDCAB2920002F580706C
:10309000442A04BF1C501A580131E0E76FF0770052
:1030A000F1E700BFE478010000A00D5090F8750032
:1030B000024B03EB800002F0C6BF00BFE40100201A
:1030C00010B5064B90F875000C4603EB800002F03B
:1030D000A0FF0028A4BF2070002010BDE401002044
:1030E0002DE9F04F814659F8043B8BB0D3F8141307
:1030F00090F8754000936C4BC9B241F400318046A2
:1031000053F83420009803F095F8810305463AD52A
:103110000023CDE907330993634B07A803EBC403EE
:103120005B6819460193FFF7A5FE042303EBC40374
:1031300003934FF0000B5D4B0DF11C0A0293029AB2
:10314000594912F8013B0292039A02EBD3028A5CBE
:1031500003F0070322FA03F3DA071AD40BF1010B89
:10316000BBF1030F0AF1040AE9D14FF40031002248
:10317000009803F05FF8019907A8FFF77BFE00288D
:10318000D7D125F400350124002D75D10BB0BDE851
:10319000F08F474B5B440493DAF800100029DDD030
:1031A00091FAA1F1B1FA81F1049B1C7841EA44142F
:1031B0002046FFF755FE08EB4000878AC808BB0889
:1031C000059301231AF8002001F0070103FA01F129
:1031D00022EA01020AF8002006A80694FFF730FE52
:1031E000069A059B203250F82220C7F382065B071F
:1031F0003746C2F3014223D54846D6B221463A4665
:1032000002F0CFFF06A80694FFF71AFE069B2033B4
:1032100050F82330C3F301439E4207D100212046DA
:1032200002F090FF3146204602F08CFF06A806947B
:10323000FFF706FE0122069B02FA03F30362ABE7E7
:10324000022A0DD10321204602F07CFF06F005037F
:10325000012BEBD13A462146484602F0A2FFE5E7B2
:1032600002212046059202F06DFF032EF2D0059A4E
:10327000032ADBD1022EECE795FAA5F3B3FA83F328
:10328000009904FA03F225EA020503F5A27251F847
:10329000222008EB43034846B3F86410C2F301420E
:1032A00002F07FFF70E700BFE4780100C07E0100FC
:1032B000C07E0100074B027AD3F8101521F00101FE
:1032C0000A43C3F810250268C3F8A4264268C3F86D
:1032D000AC26704700200E504FF0FF326FF0404395
:1032E00030B5044CD4E90001824273EB0105F9D3F7
:1032F00030BD00BF40270E5030B50C25074B1C18C1
:1033000094F8544005FB0433C3E9031218750123F4
:10331000034A8340C2F8243330BD00BF4000002080
:1033200000200E50F0B53D4D85B02C78002C6FD1AB
:103330003B4A01AB07CA83E807003A491846D1F86F
:10334000102522F00202C1F81025FFF7B3FF072372
:10335000672202F001012144013BCCB24FEA520244
:10336000F7D1052C57D119464FF0010C2B4E0024F4
:103370006720CFB204E00CFA02F220EA0200013426
:1033800090FAA0F25FFA84FEBE45B2FA82F2F2D35E
:103390000131327505292A4482F8547006F10C0671
:1033A000E5D10121002420489A0801FA02F212F026
:1033B000670F18BF1C500433302BF5D1E420FEF703
:1033C0008DFA184B1949D3F8102503F5C07322F074
:1033D0000202C3F8902340F6FF72C3F8A82100222E
:1033E0001A60A3F5807004338B420260F8D1012487
:1033F0000C4B0F4A1C660F4B5D201B68B3FBF2F3AE
:1034000058430D4B2343984700202C7005B0F0BD66
:103410006FF07700FAE76FF08B00F7E740000020CD
:103420009C77010000200E5000210E50B0210E505C
:1034300040420F00E0010020C077010073B52B4C23
:103440000546636801A803F001030E46019302F0EC
:10345000E0FD00283FDB002320753370636823F014
:1034600001036360A36843F00103A360204BD3F81A
:103470001025900733D4D3F8102542F00202C3F888
:103480001025C5B1D3F8482712F0010202BFD3F8C6
:10349000481741F00101C3F84817154BD3F84017FE
:1034A000D3F844174900F9D42AB9D3F8482722F0B1
:1034B0000102C3F848270F4B0F4A1B68B3FBF2F316
:1034C0000B4A03EB43136BB1D2F84017D2F8440711
:1034D00010F0804001D102B070BD013BF3E76FF006
:1034E0007700F8E76FF07300F5E700BF40000020B9
:1034F00000200E50E001002040420F0070B51D4634
:103500001446184A9DF81060131893F8543000B20E
:103510000C3302EBC30142F833404D60C5F3130195
:10352000AEB10201104E02F1A04202F5622280000B
:10353000C2F820450644C2F82415336833B1FFF7BA
:10354000CBFEA042A94101D20023336070BD03012C
:1035500003F1A04303F56223C3F82045C3F8241503
:10356000F4E700BF4000002000210E50F0B50E4DE2
:103570002B1893F8543000010C3355F8334005EB09
:10358000C3077E68641800F1A04021F0004146F1B5
:10359000000641EAC27100F5622045F833407E60C2
:1035A000C0F82815F0BD00BF40000020F7B5284B3B
:1035B000284CD3F82C6304F188070EB903B0F0BD92
:1035C00096FAA6F00123B0FA80F08340DA4322494C
:1035D00026EA0306231893F85450830019440C2359
:1035E00003FB0543DB6873B3D7E8EF3F03EA020C44
:1035F000C7E8EECFBEF1000FF6D1C340DB0719D507
:10360000020102F1A04202F56222D2F82435D2F87A
:103610002025D1F800C0BCF1000FCED04FF0000C37
:10362000C1F800C00C2101FB054529690091E9683A
:103630008847C2E705F10C0304EBC30C54F83320B0
:10364000DCF80430E5E70A68002AB6D00B60B4E77E
:1036500000200E504000002000210E50044B40EA94
:103660000120C3F80005D3F80024D207FBD570472A
:1036700000B0045038B5EFF31185202383F312888E
:10368000BFF36F8F064B9C6802F07BFF85F31188B8
:10369000BFF36F8F2046BDE83840FEF7C3B800BFC8
:1036A0004806002038B50A4B53F82040013053F843
:1036B0002050A54200D838BD606830B1037FDB07D9
:1036C00001D402F033FF0834F3E723689847FAE7A0
:1036D000F4780100012270B5294B032086B01A70DE
:1036E000FFF7E0FFFDF79CFD0420FFF7DBFF254C13
:1036F000254D2646AE4204F1300410D300F016FCEE
:10370000204C224EAC4226D300F024FCFDF71EFCD8
:103710001F4A137B23F00103137306B070BD54F8E6
:103720000C3C059354F8103C049354F8143C039358
:1037300054F8183C029354F81C3C019354F8203C74
:10374000009354E90A2354E90C0100F0E3F954F81A
:10375000303C5E65CDE7D4E90A23B3F1FF3F08BFF3
:10376000B2F1FF3F05D052EA0301206803D100F017
:10377000DBFC3034C6E73146183000F077FEF8E75E
:10378000BB0C002000770100007701009366010068
:1037900090030020C02370B5144E86B003FB006672
:1037A000134B012205930F23CDE903320023CDE90A
:1037B000013314234FF4A0720E4D0F4903FB005543
:1037C000044602FB00110D4B3046009500F0A2F9B3
:1037D000737B2C7423F004037373094B013403EBE4
:1037E000C423EE606B6006B070BD00BFD002002045
:1037F000C37E010048060020C01400208965010036
:10380000C00C0020BFB50020FFF74CFF284B03F58C
:10381000006282F3088883F30A880024E023254DA0
:10382000254F85F82230EC772C766C76AC7685F8CF
:1038300020406B6A43F4E0236B6285F82340FDF778
:103840006BFFFEF7F1F84FF0FF33AB62EB62FEF770
:103850007BFAFEF711F9194800F0C4F90120FFF7CF
:1038600021FF0220164DFFF71DFF00F0A7FB154BAF
:1038700015495D61154B4FF480620593012328467D
:10388000CDE90343CDE901443B46009400F042F901
:1038900006466A7B284622F004026A7302F0C7FEDD
:1038A0002046FFF777FF3A4631462846FEF79AF85A
:1038B000C00C002000ED00E0D536010050040020CF
:1038C000900300204806002000160020C87E01005A
:1038D0002DE9F341044617461E46EFF311882023D5
:1038E00083F31288BFF36F8FC368334A7BB180685C
:1038F0009168884219D057EA060318D188F31188D5
:10390000BFF36F8F6FF00F0002B0BDE8F0819168D8
:1039100091F90E100133E36093682161A36088F38D
:103920001188BFF36F8F0020EEE72169F2E791F96C
:103930000E1090F90E306FF07E029942A8BF194622
:103940009142B8BF11468B422DDD02F028FE05469C
:1039500022464146CDE90076184800F02DFA0028AD
:10396000E1D0EFF31186202383F31288BFF36F8F2A
:10397000A068D0B1236821699C420AD04BB193F969
:103980000E309942A8BF19466FF07E039942B8BF26
:10399000194602F004FE40B13146084800F0A0FA92
:1039A0006FF00A00B0E70025D2E7002DF4D186F3CE
:1039B0001188BFF36F8FF3E748060020BC0C00208E
:1039C000F8B583680546002B40D0234A926893429D
:1039D0003FD1C368012B03D9013BC3600020F8BD70
:1039E000EFF31187202383F31288BFF36F8F0169F0
:1039F000806802F0D4FD2C68A54207D10023C5E9F8
:103A0000023387F31188BFF36F8FE7E7002CF5D0FF
:103A1000D4E90032002613605A60637BC4E9006673
:103A200023F002036373A66004F1180002F07BFE2A
:103A3000AC6094F90E3020462B61C4F8BC6002F0F3
:103A4000F6FD3946054800F04BFAC7E76FF0150060
:103A5000C5E74FF0FF30C2E748060020BC0C00204D
:103A600070B5EFF31186202383F31288BFF36F8FB5
:103A70000468A0421BD0D4B1D4E900320025136001
:103A80005A60637BC4E9005523F002036373A560A9
:103A900004F1180002F047FE2046C4F8BC5002F0C2
:103AA000C6FD3146BDE87040064800F019BAD0E9BD
:103AB00002329A4218BF0133836086F31188BFF344
:103AC0006F8F70BDBC0C002013B5EFF31181202463
:103AD00084F31288BFF36F8F846844B1013C846023
:103AE00081F31188BFF36F8F002002B010BD52EA3E
:103AF000030406D181F31188BFF36F8F6FF00F00BD
:103B0000F3E7CDE900230246014800F055F9ECE760
:103B1000BC0C00202DE9F04F984685B000F1580309
:103B2000C0E91633129B002503730423D61D26F02B
:103B300007064373119B01EB060A0F46C0E90655C1
:103B4000514685608373C5730446DDF838B0DDF8EF
:103B50004C90FDF7D3FB109B073020F00700C4E921
:103B60002976C4F8AC0002930F9BAAEB0006CDE9BE
:103B700000B33246434639462046FDF717FF0F9BF8
:103B8000C4E91C8BA367109B656584F86C50E367E0
:103B9000EFF31183202282F31288BFF36F8F104F4F
:103BA0003A6A3C62C4F8802083F31188BFF36F8FB8
:103BB000B9F1000F11D01F22494604F1840003F02F
:103BC0006AF884F8A350BB680BB1D3F8B030304624
:103BD000C4F8B03005B0BDE8F08F84F88490F2E707
:103BE0004806002040F2011383810023C0E92933F5
:103BF000C0F8B030014B9860704700BF4806002005
:103C00006FF00A01094A9368C3F8BC100849C3F869
:103C1000B8004B6843F080534B60002383F3118856
:103C2000BFF36F8F9368D3F8BC007047480600203D
:103C300000ED00E070B590F90D20437B002A36DBE3
:103C4000D90634D11B4C63F07F032246437352F8EC
:103C5000183FE169934207D1C0E900210860E061A3
:103C600011E09942F8D01B68002BF5D090F90E5066
:103C700093F90E60B542F4D0AE42F2DD5968C0E966
:103C8000003108605860A569954200D005B9E56823
:103C9000A3685A7BD20604D1DA897F2A01D9AA699E
:103CA00032B1AB4202D0284600F038FB656170BDEE
:103CB0006361FCE74806002038B590F90D20014605
:103CC000002A437B04DA03F07F03437302F075FCA0
:103CD0000D4D2A4652F8184FAB68944200D004B9F3
:103CE000EC688B4207D05A7BD20604D1DA897F2A4E
:103CF00001D9A2692AB1A34202D0204600F00EFBEE
:103D000023466B6138BD00BF48060020B3F1FF3F7A
:103D100008BFB2F1FF3F03D00249183000F0A6BB44
:103D2000704700BF9366010070B590F90D20014601
:103D3000002A437B04DA03F07F03437302F03DFC67
:103D40001C4C4B7B224663F07F034B7352F8183FA9
:103D5000E069934207D1C1E900200160E16111E00F
:103D60009842F8D01B68002BF5D091F90E5093F9CA
:103D70000E60B542F4D0AE42F2DD5868C1E90030C1
:103D800001605960A569A368954200D005B9E5684E
:103D90008B4207D05A7BD20604D1DA897F2A01D917
:103DA000AA692AB1AB4202D0284600F0B7FA2B46E6
:103DB000636170BD48060020F8B5DDE906670D4B6C
:103DC0000C46986811460C4A1060EFF311822022CD
:103DD00082F31288BFF36F8F9D68284602F0FFFBC5
:103DE000284632463B46FFF791FF2046BDE8F840A3
:103DF000FFF706BF480600206C060020F8B5044611
:103E0000EFF31187202383F31288BFF36F8F437B77
:103E100049B203F01F02002A0CBF0126002639D147
:103E200003F07F032D4D437302F0C7FB2A46437B0B
:103E3000817363F07F03437352F8183F934227D195
:103E4000E869C4E900200460EC610FE09842F8D012
:103E50001B68002BF5D093F90EC06145F6D08C4558
:103E6000F4DD5968C4E900310C605C60AC699442CF
:103E700000D004B9EC68AB689C4202D0204600F048
:103E80004DFA6C6187F31188BFF36F8F3046F8BD30
:103E9000E869DEE79B071ED5856802F08EFB81731B
:103EA0002B689D4209D16B68C4E900531C606C60AB
:103EB000E8E76A689342F6D01B68002BF3D093F9C9
:103EC0000E209142F5D08A42F3DD5A68C4E90032EF
:103ED00014605C60D6E78173D4E700BF4806002019
:103EE00049B9EFF3058030B9054B5A699B689A428E
:103EF00001D0FFF785BE81F31188BFF36F8F704744
:103F000048060020034648B9EFF3058232B9064A55
:103F100051699268914201D0FFF772BE83F3118814
:103F2000BFF36F8F704700BF48060020EFF3118189
:103F3000202383F31288BFF36F8F054B9A68D37BDE
:103F4000013BD37381F31188BFF36F8F704700BFBC
:103F50004806002070B5EFF31186202383F3128802
:103F6000BFF36F8F144DAB68DA7B0132DA732A46E8
:103F700052F8184F944200D004B9EC685A7BD2062C
:103F800004D1DA897F2A01D9A2692AB1A34202D0D9
:103F9000204600F0C3F923466B6186F31188BFF316
:103FA0006F8FEFF31180202383F31288BFF36F8F9D
:103FB000BDE87040FFF7A6BF48060020024B03F1A2
:103FC0001802C3E9062270474806002070B5EFF3D7
:103FD0001186202383F31288BFF36F8F1B4CA168D7
:103FE000E0690B68814214BF1A46002249680B60E1
:103FF0005960A368E1692AB9154AC3E900210B6039
:10400000E3610CE093F90E0092F90E50A84218D02B
:10401000854216DD5168C3E900210B605360A56934
:104020000B4B9D4200D005B9E568A3689D4202D0C4
:10403000284600F073F965613046BDE87040FFF72F
:10404000DFBD8A42D8D01268D5E700BF48060020FD
:1040500060060020F8B550EA010306460C4603D17D
:10406000FFF7B4FF0020F8BDEFF31187202383F39F
:104070001288BFF36F8F124D124BA8681860FFF7BC
:104080001BFEA868234632460F49183000F0EEF9AF
:10409000AA680446537B384643F004035373FFF782
:1040A000AFFDAB68D3E90A23B3F1004F08BF002A84
:1040B000D8D102F060FB201A20EAE070D3E700BFFD
:1040C000480600206C0600209366010038B50446BF
:1040D0000D46FFF7BFFFB5F1FF3F08BFB4F1FF3F4B
:1040E0000246204618D000234FF47A7447F6112078
:1040F0001946C2FB040147F61222904271F10002F8
:104100000BD3084B834243F608538B4107D347F642
:1041100012220023FCF7B2FD38BD1846FCE76FF011
:104120000040F9E7ED85FFFF38B50446EFF3118550
:10413000202383F31288BFF36F8F437B5B070FD578
:10414000183002F0F0FA637B204623F00403637317
:10415000FFF770FD2946BDE838400448FFF7C0BEB0
:1041600085F31188BFF36F8F38BD00BFBC0C0020F2
:10417000014B9868704700BF480600202DE9F843BE
:104180000446077BEFF31185202383F31288BFF3E6
:104190006F8F437B190705D585F31188BFF36F8FA8
:1041A000BDE8F883D90943F0080260D14273A368DF
:1041B00013B1204602F009FA04F1180002F0B3FA34
:1041C000A66D04F15808B04511D04FF0000976B142
:1041D000304602F0FAF906F1180002F0A4FA30466F
:1041E000C6F8BC90FFF726FDA66DB045EFD1DFF80D
:1041F000C480D8F808309C4241D1EFF30589B9F169
:10420000000918BF4FF00109D8F818602A4A9642F1
:1042100000D00EB9D8F80C60B34202D0304600F09E
:104220007DF82046C8F8146001F01BFD204600F020
:10423000CDF8B9F1000F02D02048FFF7D3FCD8F831
:1042400008309C4231D1EFF3058373BB227BD20748
:1042500018D42846FFF7D4FCFB07A1D5002383F32D
:104260001188BFF36F8F0423184602DF98E703F02D
:104270007F0343F00803437302F09FF997E74FF081
:104280000009C1E785F31188BFF36F8F83F31188AD
:10429000BFF36F8F0423184602DFEFF31180202352
:1042A00083F31288BFF36F8FD4E785F31188BFF3D0
:1042B0006F8FD1E7480600206006002050040020E0
:1042C0000122044BC01A044BC0105843034B1A542C
:1042D000704700BF10050020ABAAAAAABC0C0020A2
:1042E000C3897F2B12D80A4B1B6863B1094B90F925
:1042F0000E201B689A4209DB437BDB0606D1064B86
:10430000C31A18BF012303F0010070470023FAE726
:10431000EC01002070060020D002002070B50E4B8A
:104320000E4C1E7C054606EB460304EBC3042046F8
:1043300002F0F9F900220A4B28469A55FFF7D0FF00
:1043400048B1084B2046BDE870401A680649013A5A
:10435000D31700F08BB870BD480600201005002070
:10436000BC0C0020EC010020C142010038B5EFF385
:104370001185202383F31288BFF36F8F104B114AEE
:104380009C681068A04206D1FFF7C8FF85F311882A
:10439000BFF36F8F38BD00211B7C11600A4AD35CCC
:1043A000002BF3D02046FFF79BFF0028EED0637B65
:1043B000DB0602D12046FFF7B7FC2046E4E700BF4A
:1043C000480600206C060020BC0C0020EFF3118191
:1043D000202383F31288BFF36F8F0C4A136A834242
:1043E00008D1D3F88030136281F31188BFF36F8F47
:1043F00070471346002BF7D0D3F880208242F8D1C3
:10440000D0F88020C3F88020EEE700BF48060020E7
:10441000024B1868984208BF00207047F001002046
:10442000034B1B680BB9FEF769BA0020704700BF49
:104430007406002030B570B10B4B5B6898420AD00F
:10444000036843B1D3E90421D0E90445121941EBD3
:104450000501C3E90421D0E9003213605A6000234A
:10446000C0E9003330BD00BFF0010020B3F1FF3FD1
:1044700008BFB2F1FF3F2DE9F84F044699461546B3
:104480001F467AD08160EFF31188202383F31288CE
:10449000BFF36F8FB9F1000FDFF8E4A020DBFFF767
:1044A000BFFFDAE90027013549F100092D1849EB72
:1044B000E07306464FF00109C4E90453AD1843EB1D
:1044C0000707FFF7A5FF0346DFF8B8E0DEF804A012
:1044D000EBB9C4E900EACAF80040CEF8044028E08D
:1044E0006FF00103DAE900125B1A4FF0FF3161EB64
:1044F00002025B1B62EB0902012B72F10001BCBFDF
:10450000012300224FF00009C0E90432D9E7D3E9C2
:10451000041CD4E904208A4270EB0C0B24DA891ABB
:104520005A686CEB0000C3E90410C4E9003214605F
:104530005C60FFF76DFF84420ED1134B1B685BB9C3
:10454000B9F1000F02D1FFF76BFF0646304602F0CB
:10455000D3F80021FEF7E6F988F31188BFF36F8FD7
:1045600028463946BDE8F88F521A60EB0C009A4590
:10457000C4E90420ADD01B68AAE700252F46EFE769
:1045800028050020F0010020740600202DE9F047E6
:10459000EFF31185202383F31288BFF36F8FDFF8C9
:1045A000A0900026C9F800000027FFF731FFDFF8D0
:1045B0009480D9F80030D8E900ECD91750B1D0E98F
:1045C0000442A34271EB020A1BDAE41A62EB010215
:1045D000C0E90442002413EB0E034CEB010120461A
:1045E000C8E90031C9F8004002F086F82146FEF71C
:1045F00099F985F31188BFF36F8FBDE8F047FFF796
:10460000B5BE14EB0E024CEBE473C0E90467C8E9D5
:104610000023FFF70FFF85F31188BFF36F8F8368C7
:104620009847EFF31185202383F31288BFF36F8F30
:10463000D9F800301B1BC9F80030FFF7E9FEB8E7D6
:10464000740600202805002010B5EFF31184202304
:1046500083F31288BFF36F8FFFF7E2FE0346054A2C
:10466000D2E90001181841EBE37184F31188BFF31C
:104670006F8F10BD28050020F8B50D4E0D4C0E4D66
:1046800033680E48984767782B680C48984733681A
:104690000B489847022F08D12478E31F5C425C4105
:1046A0002B68074898472046F8BD0024F8E700BF6C
:1046B0001C02002078060020180200207C02002046
:1046C0006802002070B51D4E1D4C33681D48984788
:1046D0002378590744BF23F00403237023789A07F3
:1046E00005D500F0C1F8237823F002032370164D9E
:1046F00014482B689847336814489847637813B177
:10470000134802F069F8002304211148637000F097
:10471000CBF82B680D48984733680A4898472378A8
:10472000DB0705D502F055F8237823F00103237049
:104730002B680448BDE87040184700BF1C020020E9
:104740007806002068020020180200207C02002069
:104750007C0600202DE9F041FFF78EFF18B1002400
:104760002046BDE8F081364F36483B6898470446FE
:1047700020B16FF08F04FFF7A5FFF1E7324D2B78E2
:10478000D80706D402F023F804462B7843F001033F
:104790002B702E4E2B483368984710B1002CE8D070
:1047A000E9E7002CE7D13B682648984704460028F3
:1047B000DFD12B78990706D400F04EF804462B7809
:1047C00043F002032B7033681E4898470028E5D158
:1047D000002CD0D13B681B4898470028C9D13368CA
:1047E000184895F8008098470028C2D13B681848BF
:1047F000984704460028BCD16B7843B918F0010FE4
:1048000005D0144801F0E6FF022304466B703368BC
:104810000F4898470028C1D1002CACD13B6809480B
:1048200098470028A5D12B7806485A075CBF43F06B
:1048300004032B7033689847002890D099E700BF95
:104840001C020020680200207806002018020020C8
:104850007C0200207C0600200122024B002083F80D
:1048600080257047800600202DE9F0410A4C002584
:1048700026464FF0010803272046C4F820802777FA
:10488000013501F087FF202D04F12C04F4D1002321
:1048900086F88035BDE8F08180060020014B1B685A
:1048A000184700BFF801002010B50A46044619B1A8
:1048B000024B00211B68984710BD00BFFC0100207F
:1048C00010B50C4C206802F043F90B4A1368591CD0
:1048D00011604BB9094A4820D2F8003443F007036D
:1048E000C2F80034FCF7FAFF2068BDE8104002F07F
:1048F00035B900BF04020020040C002000800450E1
:1049000038B5164D286802F023F9154B1C68013C98
:104910001C60ECB94820FCF7EFFF0722114BC3F8ED
:104920000823D3F8002422F00702C3F80024C3F8B8
:104930000041D3F80021C3F80441D3F804214FF417
:104940008072C3F80841D3F80831074BC3F88821B7
:104950002868BDE8384002F001B900BF0402002019
:10496000040C00200080045000E100E070B5104D00
:10497000104E2B68B3420DD0FFF7A2FF00F0E6FC0B
:1049800000F022FD40B101F034FF0446FFF7B8FF0C
:1049900044B92E60002405E000F0E0FA044618B1A6
:1049A000FFF7AEFF204670BD02F033F8EDE700BF21
:1049B00000020020117365004FF480732DE9F04769
:1049C00096B0804603A80393002401F09EFF4FF0A9
:1049D00010091E4E0DF12F0525F01F0506F1200AC6
:1049E000012210211A4801F06FFF2B190093524643
:1049F000102320211548CDF8049000F0EDFA074669
:104A0000F8B9D6E90C321034013342F10002302CEF
:104A1000C6E90C32E4D1B8F1000F04D02246414679
:104A2000284601F044FF2E46084C0FCE0FC496E8EE
:104A30000F00203584E80F0095E80F00103484E85B
:104A40000F00384616B0BDE8F08700BF30050020E3
:104A500050050020F0B5194D194FAB6B8DB0BB421E
:104A600029D0184E306802F073F84023002219460E
:104A7000284601F033FF3021684601F053FF044619
:104A800078B96846FFF798FF044690B9302302468C
:104A90001946684601F022FF01220023C5E90C23D4
:104AA000AF63306802F05AF8204601F0A2FE0DB064
:104AB000F0BD0E24F5E70020F9E700BF3005002027
:104AC000B4A5B4A5080200202DE9F04F99B00DF16E
:104AD000570802F10F0982460E46144628F01F08B7
:104AE0004FEA191922B100296DD0B2F5803F6AD87A
:104AF000364F374D386802F02BF8D5E90C321343A6
:104B00000BD15046FFF7A6FF834630B1386802F05C
:104B100025F8584619B0BDE8F08FD5E90C2319EBFC
:104B2000020243F10003B3F5803F14D3302102A801
:104B300001F0F8FEE8B902A8FFF73EFF834600281F
:104B4000E4D130230246194602A801F0C7FE002234
:104B50000023C5E90C234FF4807302A8029301F0EF
:104B6000D4FEDFF870A03CB92046FFF725FF83464E
:104B7000CCE76FF0920BC9E7102C4FF001024FF019
:104B800010015046A14628BF4FF0100901F09CFECD
:104B9000102352462021CDE900830D4800F01CFA75
:104BA00083460028B2D14A463046414602F05EF8BC
:104BB000D5E90C32013342F10002C5E90C32A4EB15
:104BC00009044E44CFE76FF0860BA2E708020020ED
:104BD00030050020500500200022074BC3F81021AB
:104BE000C3F80C21C3F80021C3F80421C3F808213D
:104BF000C3F81421704700BF0050045008B5FFF7F8
:104C0000EBFF01230360104B0A6832B9D3F80C2183
:104C10001AB9D3F80821002AF6D00B687BB90B4BE0
:104C200099420ED0A3F58473D3F80831002B0CBF42
:104C30004FF0FF306FF00200FFF7CEFF08BD0020FD
:104C4000FAE74FF0FF30F7E70050045008510450E6
:104C500038B505460C4691B10021012001F05FFCFA
:104C600008480949C0F80055C0F80445FFF7C6FFD9
:104C700000210446084601F052FC204638BD6FF082
:104C80000104FAE70050045000510450034B04495A
:104C9000C3F800050348FFF7B1BF00BF0050045040
:104CA000045104500450045010B504460021012062
:104CB00001F035FC064B0749C3F800450648FFF7ED
:104CC0009DFF00210446084601F029FC204610BD46
:104CD00000500450085104500850045038B50C4698
:104CE00059B1074D0749C5F800050748FFF786FF8A
:104CF00010B9D5F80835236038BD6FF00100FBE727
:104D000000500450105104500C5004502DE9F04F45
:104D100089B006460F4690461D4601F057FE0446F0
:104D200078B973690090C3F3013262F305148DF80A
:104D3000004014F0300408D1B168890710D06FF03A
:104D40008604204609B0BDE8F08F102C08D1BDF8CC
:104D5000023023F4F87343F4A873ADF802304EE048
:104D6000DBB2F82B02D06FF08504EAE700234FF0A6
:104D7000010B9E4619461846D6F808C0DFF8CC91BC
:104D800059F804AB1CEA0A0F08D00BFA00F343EA07
:104D90000E0303F07F0E012341EA0A0101300728C8
:104DA000EED12BB19DF803306EF347038DF803303D
:104DB0003CEA0101D7D17388FF2B35D005D8802B71
:104DC00034D0C02BCFD1022303E0B3F5807FCAD10A
:104DD00004239DF8021063F306118DF8021014B934
:104DE0001CF0030FABD13379022B2BD020D8012B31
:104DF000A5D1BDF8021063F3C811ADF80210012A65
:104E00006FD0032A23D0002A99D13388B3F5105FDD
:104E1000A9D1182D6DD0202D70D0102D8FD1DFF895
:104E200030A101251F261AE00323D2E70123D0E792
:104E3000032B01D0FF2B82D10221BDF8023061F398
:104E4000C8138AE7BDF8023043F4C07385E7412DEB
:104E50003DD104254F26DFF8FCA008F1010800240D
:104E6000381901F087FD00286CD00134AC42F7D12D
:104E70001F2E07D02946384601F090FD0446002831
:104E80007FF45FAF009B4FF0FF39079300239B46F1
:104E9000CDF818A0BDF802204344C2F3C112059218
:104EA00001AC03F1100C224618685968083303C29C
:104EB00063451446F7D101A907EB0B00FFF7C8FEC5
:104EC000044630B301F082FD6FF0920439E7182DEB
:104ED00019D0202D1AD0102D7FF431AFDFF874A037
:104EE0009FE7302D7FF42BAF03253F26DFF868A026
:104EF000B5E7DFF85CA002252726B0E7DFF850A071
:104F000002252F26ABE7DFF84CA0F4E7DFF844A03A
:104F1000F6E71C2101A80BF1010B01F0EAFCAB45FF
:104F200006D00AEB0B12CDE906294FEA0B13B1E7C5
:104F30001F2E3FF406AFBA20FFF7B6FE00283FF45D
:104F400000AFC1E76FF08A04FBE600BF0C790100F7
:104F500040008151000000201084045010B590B032
:104F60001C22002101A801F08EFEF82001F002FDB4
:104F700008B3202200200DEB0201FFF7A5FD044637
:104F8000F8B901A84FF4807101F0FEFC0E4B0F49F7
:104F900004930F4BCDE901130E4BF8210693202308
:104FA0000DEB0302FFF7B2FE202104460DEB0100DA
:104FB00001F09FFC05E0F92001F0DCFC0028D8D1CD
:104FC0000446204610B010BD0010C00400240001AB
:104FD000014B4E80F800FF7F2DE9F3411D464FF451
:104FE0008073284C8046002017460E46019300F03F
:104FF00037F901AB23601123234A0121C4E90223BD
:1050000004F11003636040F61103E36104F120032F
:1050100063612123089AE3621C4B46F000561A6034
:10502000099A45F0005542F00052C3E901122022CE
:10503000C4F81080A6612762A5626162DA60BFF3DE
:105040005F8F4FF0A3421460BFF35F8FBFF35F8F9A
:105050001361BFF35F8FBFF35F8F03235363BFF30E
:105060005F8FBFF35F8F9363BFF35F8F01F00DFD21
:10507000431C0446FAD0002000F01CF9204602B080
:10508000BDE8F081180C002004000020080C00206E
:10509000BFF35F8F094A1368BFF35F8F43F48071DA
:1050A000BFF35F8F1160BFF35F8F23F48073BFF393
:1050B0005F8F1360BFF35F8F704700BF0010805198
:1050C00008B5FFF7E5FFBFF35F8F064A1368BFF32C
:1050D0005F8F43F00103BFF35F8F1360BFF35F8FF8
:1050E00008BD00BF0010805170B50026C0E9006601
:1050F00005460C46FFF7E4FB01232B70FFF7C8FFC2
:10510000BFF35F8F204BDB68BFF35F8F9B08013BD2
:10511000ACB3226842B19A4205D9FFF7F1FB6FF0B8
:105120003F002E7070BD1346D4E90115E0680029D8
:1051300008BF4FF40071002808BFF1202469BFF3B5
:105140005F8F114A9360BFF35F8FBFF35F8F15646A
:10515000BFF35F8FBFF35F8F5064BFF35F8FBFF309
:105160005F8F5163BFF35F8F44F4802444F00104E8
:10517000BFF35F8F1460BFF35F8F0020D2E74FF45F
:105180000071F1202546DAE70010805170B50378F0
:105190000D461446002B53D0BFF35F8F2D4A136B7F
:1051A000BFF35F8F5908C3F34203052B4BD011F0B7
:1051B000060F02D14FF0FF3070BD4368D3B9BFF383
:1051C0005F8F5368BFF35F8F032BF3D9224B2349C3
:1051D000BFF35F8FD2F88060BFF35F8FBFF35F8F45
:1051E00043F8046BBFF35F8F8B42F1D1FFF768FF89
:1051F00001234360BFF35F8F164B9A68BFF35F8F45
:105200000132B4EB021F21D8BFF35F8F5A68BFF39E
:105210005F8FB4EB820FCDD884B1BFF35F8FD3F82B
:105220008020BFF35F8F291D05F8012B8D424FEAC7
:10523000122204F1FF34EFD0002CF5D10020BBE79F
:105240006FF02000B8E76FF05100B5E76FF03F0056
:10525000B2E700BF00108051101080512010805123
:1052600010B50446FFF72CFB104B186801F070FCDA
:105270000CB101232370BFF35F8F4FF0A3430022D3
:10528000DA61BFF35F8FBFF35F8F4FF0FF321A63B6
:10529000BFF35F8FBFF35F8F3422DA61BFF35F8F9D
:1052A0000122034BC3F8042310BD00BF0C020020F1
:1052B0000080045010B5044638B9FFF721FBBDE863
:1052C0001040074B186801F049BC03783BB1FFF769
:1052D00017FB034B186801F041FC0023237010BD3D
:1052E0000C02002038B5164CD4F80051C5B1BFF3FC
:1052F0005F8F4FF0A343996ABFF35F8FBFF35F8F58
:105300004FF0FF321A63BFF35F8F0023C4F8003100
:10531000D4F800310B4B1868BDE8384001F031BCBF
:10532000D4F8083153B100F06DF801F0DFFBC4F898
:105330000851D4F808310121034BECE738BD00BF18
:1053400000800450140200201002002008B5074B12
:10535000186801F005FC064B186801F001FCBDE877
:105360000840002248201146FCF7E8BA1402002049
:105370001002002038B5094B1C7864B1084B4FF07F
:10538000FF311D68284601F0EDFB4FF0FF31044668
:10539000284601F0F4FB204638BD00BFBB0C0020BE
:1053A0001402002010B5064C236D3BB9214651F87C
:1053B000503B986901F09EFB01232365014810BD15
:1053C000480C0020980C002038B500240B4D0C4BE5
:1053D000EC662B6003F5C0436B60FFF7E3FF50B151
:1053E0006B6D2046B3F5007FCCBF4FF480634FF464
:1053F0000073AB6038BD0E20FCE700BF480C0020F6
:105400000020805100487047480C00202DE9F043EF
:105410004FF0000985B00546CDF8049000F10C0767
:10542000EFF31188202383F31288BFF36F8F836813
:10543000594003EA02060A4053400E4901AACDE949
:10544000023901F037F9019C3CB12046C4F8BC9008
:105450000021246E01F0FAF8F6E7DDE9023223EAD2
:10546000020338464146AB60FEF73AFD304605B0D0
:10547000BDE8F083116C01000FB407B504AA064B18
:1054800052F8041B1868019200F028F803B05DF888
:1054900004EB04B0704700BFFC770100F8B50E4B79
:1054A00006461D68AB789B0712D56F6816F8014B4E
:1054B00029462CB90A20B847002805DB204609E018
:1054C0002046B8470028F1DAAB7843F00403AB700C
:1054D0004FF0FF30F8BD00BFFC7701002DE9F04F21
:1054E00043688DB015468046029383789A0740F151
:1054F0000D8100240E78002E00F00A81252E0BD09D
:105500004B1C0393013441463046029B98470028C8
:10551000C0F2F6800399EDE74E788B1C252E03939D
:10552000F0D00027B946BB46BBF11F0F38D8A6F113
:105530002003102B0AD8DFE803F02A0909300909F3
:10554000092109090928092D09091F00A6F13003BD
:10555000092B33D92A2E37D11BF0400F55F8043BC5
:1055600040F08280002BA7BF4BF0200B9946C3F17F
:1055700000094BF0280B01E04BF0010B039B13F8E3
:10558000016B0393002ECFD130E04BF0020B4BF0B8
:10559000040BF3E74BF0080BF0E74BF0100BEDE7D3
:1055A000BBF17F0F19D8A6F13003092BD2D81BF01D
:1055B000400F03D00A2101FB0737DFE70A214BF038
:1055C000200B01FB0939D9E72E2E06D11BF0400F25
:1055D00040F09E804BF0400BD0E76C2E31D02BD8A2
:1055E000682E36D06A2E3CD04C2E3AD0002F46F092
:1055F0002003B8BF2BF04002A3F16501BCBF002718
:105600001FFA82FB022901D9612B2FD10735072709
:10561000DFF8ACA225F0070508351BF0080F66D0AF
:105620000AEB070B56465E4563D1A4EB0A0AA9EBC9
:10563000070906EB0A026FE1742E9FD07A2E9DD0E7
:10564000D4E71BF0800F18BF4BF4007B4BF0800BAE
:1056500094E71BF4807F18BF4BF4007B4BF4807BF6
:105660008CE74BF4207B89E71F4687E7A6F16301AF
:10567000122900F2F080DFE811F013004F00EE0075
:10568000EE00EE00EE004F00EE00EE00EE00EE0049
:10569000EE00FE00E900EE00EE001B00EE00AF00A1
:1056A00055F8043B01270DF1180A8DF81830B4E7BE
:1056B00055F804AB834BBAF1000F08BF9A461BF0B4
:1056C000400F504614BF39464FF0FF3101F0F3FA56
:1056D0000746A2E741462020029B984700280FDB9F
:1056E000013EB742F6D34C44B146A41B98E74E4660
:1056F000F7E7414616F8010B029B9847002892DA1B
:1057000098F8023043F0040388F802304FF0FF3479
:1057100020460DB0BDE8F08F1BF0800F34D01BF495
:10572000007F2CD0073525F00705AA4669685AF88E
:10573000080B2BF010050029ADB237DA404245F4D2
:10574000806561EB41010DF1180B0A235A4601F007
:10575000BEFAA0EB0B0301936B0662D5019B25F00B
:1057600001019F4289B240F3A180002E00F0998090
:1057700015F0100240F09C80BB460D4623E0AA467F
:105780005AF8040BC117D4E7AA461BF4807F5AF8D5
:10579000041B01D10846F5E71BF4007F19BF48B28E
:1057A00041F3C01108B241F3C031C2E750EA01032E
:1057B000C9D11BF0400FC6D0002FC4D12BF011026D
:1057C000BB46019795B240F2064115EA01021CBFA3
:1057D0000BF1010B00222CE02BF010020A231FFA20
:1057E00082FB1BF0800C49D01BF4007115BF0735FC
:1057F000AA4625F007055AF8040B1EBFAA46696899
:105800005AF8080B50EA010545D12BF016051BF09C
:10581000400FADB242D0002F40D12BF017020197BC
:1058200095B215F0100248D0019B002E42D103F131
:10583000010B29075AD4EB0706D5D9456FDDA9EB33
:105840000B030199CB465F185B4649E04BF0100B08
:1058500010237826C5E7782B04D1C6F1780343F0EE
:105860001003BEE741462520029B98470028FFF61B
:1058700047AF023447E608230026B2E7AA461BF4E6
:1058800080715AF8040BBDD01BF400711ABFC0B26E
:10589000614680B2B6E72BF0060295B20DF1180B07
:1058A00054E725F01105BB46ADB28CE70D46B8E7CD
:1058B0003B460D4603F1020BBBE7DDF804B082E77F
:1058C000D47E0100CD7E0100CDE904324146202086
:1058D000029B98470028FFF613AF049B059A0133FB
:1058E0009945F1DCA4EB0B019B46CC180AB3414669
:1058F0003020029B98470028FFF602AF8EB9013492
:105900002744391B019B994224DC1D4655BB019A53
:10591000A9EB0B09554622441446914433E0019FFC
:1059200092E7023441463046029B98470028E7DA66
:10593000E6E640F206410D42E2D015F0020F04F116
:105940000104414614BF2B20202015F4806F18BF9E
:105950002D20E9E741463020029B0134984700287A
:10596000CFDACDE606AB013D4146585D029B984734
:105970000028CBDAC4E641462020029B0134984738
:105980000028FFF6BDAEA9EB0403002BF3DCC1E554
:10599000704700EBC100408840087047F8B50346E7
:1059A000FFF7F7FFB0FA80F0C0F11F0003EB800CA7
:1059B000DCF81060CA00171D0C4606328DB256B9CD
:1059C000012101FA00F0D9680143D960CCF81040F8
:1059D000DD539D52F8BDF1000431585AD85303EB02
:1059E000C0009E52C5805D52F4E7043A2DE9F041B3
:1059F000CC1D114424F0070421F007010E1BF70809
:105A0000B7FA87F24FF00008C2F12405AD00073560
:105A1000C2F12002ED0804604146A760C4F80C8082
:105A2000920004F1100001F02EF96B0043F0010325
:105A300063807B1B04EBC5025900A4F800805180F1
:105A4000A21924F83550A2F80280A35304EBC7032F
:105A50005A88294642F001025A802046BDE8F041AA
:105A6000FFF79CBF002070470FB407B504A951F899
:105A7000040B0191FBF78EFA03B05DF804EB04B060
:105A80007047038B13F0070305D10368002B0CBF8D
:105A9000002003207047022B05D1408BB0FA80F024
:105AA000400980007047012B05D10368002B0CBF13
:105AB0000020052070470020704710B50C4600B14B
:105AC00011B96FF0150010BD081D00F093F8002803
:105AD000F9D1A368032BF6D9F3E72DE9F0410D4680
:105AE00007461946281D90461E4600F094F80446C5
:105AF00038B13346424629463846A446BDE8F0410F
:105B00006047BDE8F08110B4EFF31182202484F3E4
:105B10001288BFF36F8F416110BC0121FBF76CBA93
:105B200038B50C46054658B151B10B6843B14B68C6
:105B300033B11C22002101F0A6F800202C6138BDF1
:105B40006FF01500FBE770B505460E46FFF7B5FF91
:105B5000041E14DBEFF31182202383F31288BFF3BA
:105B60006F8F4FF6FF716B8B2C8B8B4204F0070409
:105B700007D182F31188BFF36F8F6FF00A042046BC
:105B800070BD022C0CD101336B8382F31188BFF3FB
:105B90006F8F0023224631462846FFF79EFFEEE72F
:105BA000062C14D8DFE804F004131313041A0400BD
:105BB000002333606B683BB9C5E90066ACB90221CC
:105BC0002846FBF719FADAE71E606E60F6E782F303
:105BD0001188BFF36F8F6FF00404D0E782F3118850
:105BE000BFF36F8F6FF08504C9E782F31188BFF3AD
:105BF0006F8FC4E7034658B1426802F00302012ADE
:105C000003D0032A04D1026812B1002098607047C3
:105C10006FF0150070474268034602F00302032A42
:105C20004FF00002816014BF104600685A60704750
:105C3000704701F028B801F019B801460068FBF779
:105C400029BB08B5FBF756FBBDE80840FBF776BB60
:105C500000210120FBF71EBBD0F8A43083F30B8892
:105C600070476FF08500704761B662B680F31188A7
:105C7000BFF36F8F704772B6002383F31188BFF3B1
:105C80006F8FBFF34F8F30BF62B6BFF36F8F704718
:105C900072B6002383F31188BFF36F8FBFF34F8F6A
:105CA00020BF80F31188BFF36F8F62B6704740E862
:105CB00000F313F4803FD8B208BF6FF015007047AF
:105CC00030B50C684B6885B00A894D890094013B5A
:105CD00024F01F04234402F01F0242EA451223F07D
:105CE0001F0369468DF808200393FBF7FBFE05B000
:105CF00030BD08B5FCF7B6F8002008BD0C220369DA
:105D0000C9B201FB0233186C00F00700704770B590
:105D1000C9B20369EFF31185202484F31288BFF31D
:105D20006F8F0C2606FB0134246C14F0C00408D0DD
:105D3000A24206D085F31188BFF36F8F4FF0FF307A
:105D400070BD012206FB01331A6485F31188BFF38D
:105D50006F8F436803EBC1035B6898470020EFE750
:105D60008022FFF7D4BFF8B5069F0469C9B2EFF3EC
:105D70001186202585F31288BFF36F8F0C2505FB54
:105D80000144256C05F0070CBCF1010F0CD1276410
:105D900086F31188BFF36F8FC4E90E23436853F86D
:105DA000313098470020F8BD05F0C005AF4286F3BA
:105DB0001188BFF36F8F0CBF6FF077004FF0FF308B
:105DC000F1E713B580240094FFF7CDFF02B010BDBA
:105DD00010B41C240069CBB203FB0400002110BCEA
:105DE00010471046FDF73CBE00F05FB9FCF70ABF54
:105DF000022804D0042804D10020FCF75FB9012058
:105E0000FBE77047436800205B68DB680B60704706
:105E1000436802EA01005B6821EA02015860002041
:105E200099607047436800205B6859607047436819
:105E300000205B689960704743685A68136821EADC
:105E400003000B40506000209360704710B5036959
:105E50005868F8B1884219D19C680868A142586016
:105E600000D19860002008602AB15A680A609A68D8
:105E7000596002B99960002010E0814206D108689B
:105E8000206098688142EDD19C60EBE70446006891
:105E90000028F2D1002AE8D16FF0150010BDFDF7FF
:105EA0001FB930B543681360057A446804EBC50434
:105EB000A34202D36FF0010030BD5C798C4201D067
:105EC0000833F0E70020F7E743681B68D3F8303168
:105ED000704743681B68D3F88004C3F88004704798
:105EE00042681368D3F84C0150B10020926A1278CE
:105EF0000A70C3F84C01D3F84C2101229A62704712
:105F00004FF0FF30704713B501AA0446FFF7C9FFF1
:105F1000002805DB019B226819791868FCF76EFBE5
:105F200002B010BD6FF08500704738B505460022FD
:105F30000121C620FBF702FDC620FBF7CFFC6C68F1
:105F40000121E068FFF7DFFF6B6819686369C1F83A
:105F50002435E28BA38BA07E1343228C1343628CE7
:105F60001343627E9BB20243207E02431343C1F877
:105F70006C3569680B68D3F8002242F48022C3F8BC
:105F800000220822C3F800254A6A0121C3F83C27F1
:105F90000022C3F840271965D3F830110029FBD03F
:105FA000C3F800256B680021D868FFF7ACFF6D6867
:105FB0000021E8682C68FFF7A6FF0823C4F8003525
:105FC0002A7A52B9AB6AC4F804370123C4F80837F7
:105FD000C4F84C21D4F84C21A362002038BD08B588
:105FE0000220FCF7CDF8002008BD08B5FEF7B2FB93
:105FF00048B1002383F31188BFF36F8F0423184641
:1060000002DF6FF0040008BD03460020184700F0CF
:1060100089BA024610B5116891B1B1FA81F3C3F1A2
:106020001F000123834021EA0303D2E8EF4F8C4293
:1060300004D1C2E8EC3FBCF1000FF6D1EBD110BDAA
:106040006FF00B00FBE710B50368CB40DB0710D403
:1060500001238B40026843EA0201D0E8EF4F9442EB
:1060600004D1C0E8EC1FBCF1000FF6D1F2D1002042
:1060700010BD6FF01500FBE7FCF760BD10B1012803
:1060800002D07047FCF7BEBDFCF76CBE18B101280A
:1060900003D100F00CB800F008B8704708B5FCF761
:1060A00095FEBDE80840FCF7EDBDFCF77FBDFCF7B1
:1060B00021BEF7B51646DDE90847019001A81D4647
:1060C000FCF7BEFE019BB6F1000C18BF4FF0010CAF
:1060D00000EB83000B1E18BF0123002D43EA4C0385
:1060E00014BF4FF00C0C4FF0000C002C43EA0C03D3
:1060F00014BF4FF4706C4FF0000C002F43EA0C03F8
:1061000014BF4FF4403C4FF0000CD0F8802043EA1D
:106110000C0322EA030301B109780EB13678760048
:1061200019430DB12D78AD0031430CB12478240210
:1061300029430FB13F783F040C433C43C0F88040F3
:1061400003B0F0BD1FB50DF10F03019300238DF8CF
:106150000F101A4619460093FFF7ABFF05B05DF824
:1061600004FB10B504460846FCF77AFE04EB400435
:10617000A08AC0F3401010BD10B504460846FCF7D5
:106180006FFE04EB4004A08AC0F3400010BD10B5C0
:1061900004460846FCF764FE04EB4004A08A400B6A
:1061A00010BD70B5044608461646FCF759FE083087
:1061B00034F810300D46DA0509D5C3F3432304EB58
:1061C000C3023146284654F8333052689847A368D2
:1061D0002BB131462846E268BDE87040184770BDD3
:1061E00010B504460846FCF73BFE00B204EB400045
:1061F000838ADA051DD5C3F3432123F4F853838240
:1062000004F1120204F1580032F8023F13F4807FC7
:1062100003D0C3F3432399420BD08242F4D100222E
:1062200004EBC1035A6004F16000BDE81040FFF7C1
:106230000ABF10BDF0B5044600200127054684467C
:1062400095420AD1D4F8443133B10023C4F8443123
:10625000D4F8443140F40030F0BDEBB29B0003F5BC
:1062600080769B0807FA03F3194208D054F806E039
:10627000BEF1000F03D044F806C0A65918430135FB
:10628000DEE738B504460D46FFF76BFFB0B1204698
:10629000FFF772FF90B92046FFF779FF01232268CC
:1062A0008340C2F81833236800B203EB8003D3F8AD
:1062B000102522F00302C3F8102538BD2846BDE89A
:1062C00038400021FFF73EBF2DE9F0431746044652
:1062D00085B00846FCF7C4FDD7F800800E46054699
:1062E000B8F1000F1FD02046FFF746FF18B1204637
:1062F000FFF737FF30BB00230DF10F02CDE900336C
:106300008DF80E308DF80F30304643460DF10E01FA
:10631000FFF7CFFE2AB204EB4202938A23F0020376
:1063200043F0010393827B68002B34D03146204632
:1063300093F80080D3F80490FFF71EFF28B1B9F15D
:10634000000F1FD06FF0150028E028B204EB4000CA
:10635000838A23F4604323F020038382B9F1000F82
:1063600010D0B8F1030FEDD87B6821685B6893F813
:1063700000C001EB8C01B8F1000F12D1C1F81085FB
:10638000C1F810852AB204EB4202938A23F01C0361
:1063900043EA88039382BB6853BB002005B0BDE885
:1063A000F083D1F8102522F00302C1F810252268ED
:1063B00002EB8C03D3F8102522F4473222F47C72CE
:1063C000C3F8102541F6F072D3F8101502EA061250
:1063D00042EA08420A43C3F8102504EB4C03A3F831
:1063E0006460838A43EA4C3343F020038382C9E725
:1063F0003146D3E900782046FFF7F2FE002FCCD0DB
:1064000063689F4206D004F16000FFF702FE002897
:1064100004DAC3E7A3689845F5D1002004EBC00374
:10642000C3E901782DB204EB4505AB8AC0B243EA5B
:10643000402343F48073AB82AFE7C0E90312704797
:1064400070B504461546FFF78CFE48B10846FCF7C8
:1064500007FD04EB40040020A38A5B0B2B7070BD8A
:106460006FF01500FBE790F87400003818BF0120AA
:106470007047FCF72BBD2DE9F34104461746FFF7A3
:1064800070FE0D46266800B32046FFF775FE804675
:10649000D8B92046FFF77BFE05B2AD0005F5807246
:1064A00046F802802168B2582944D1F8102542F0FC
:1064B0000102C1F810252FB10122216802FA00F370
:1064C000C1F8143302B0BDE8F081D6F81433284681
:1064D0009B035CBF4FF40033C6F81433FCF7C0FCD9
:1064E00004EB4004A38AC3F38203042B11D0052BD1
:1064F00011D001A80195FCF7A3FC019BC168D9400C
:1065000001F001010231284602B0BDE8F041FFF779
:1065100019BE0321F7E70221F5E7FFF7B2BEC9B2C2
:10652000FDF79CB808B1FBF715BD704710B543697E
:1065300004463BB90020E2684042537843F001032F
:10654000537010BD98470028F4D00028B8BF4042CF
:10655000FF28A8BFFF20E3681870ECE740B1C368CC
:10656000587810F001001EBF1878B0FA80F040098A
:106570007047EFF31183202383F31288BFF36F8FEB
:10658000FEE708B5FFF7F5FF202408B5EFF3118308
:1065900084F31288BFF36F8FFFF76DFBF6E790F976
:1065A0000E308B4201D0FDF729BC00207047EFF37D
:1065B0000580003818BF01207047D0E90032136011
:1065C0005A600023C0E90033704708B5FFF7F5FFB4
:1065D000437B23F0020343730023836008BD38B577
:1065E00004460D46FDF768FB637B43F002036373CB
:1065F000E5B1A5602B689D4209D16B68C4E90053E1
:106600001C606C6012E06A689A42F6D01B68002B2E
:10661000F3D094F90E2093F90E108A42F3D09142F0
:10662000F1DD5A68C4E9003214605C6038BD10B511
:10663000EFF31184202383F31288BFF36F8FFDF7EC
:10664000F9FA84F31188BFF36F8F10BD38B5EFF3FB
:106650001184202383F31288BFF36F8F002390F8F7
:106660006C50427B80F86C302DB121B184F31188DD
