:10000000401A0020DD15000071780000C9150000BD
:10001000C9150000C9150000C9150000C915000068
:100020000000000000000000000000004117000078
:10003000C915000000000000D9160000C915000015
:10004000D5180000D5180000D5180000D5180000FC
:10005000D5180000D5180000D5180000D5180000EC
:10006000D5180000D5180000D5180000D5180000DC
:10007000D5180000D5180000D5180000D5180000CC
:1004C000D5180000D518000081F0004102E000BFFF
:1004D00083F0004330B54FEA41044FEA430594EA04
:1004E000050F08BF90EA020F1FBF54EA000C55EA3F
:1004F000020C7FEA645C7FEA655C00F0E2804FEA10
:100500005454D4EB5555B8BF6D420CDD2C4480EAF1
:10051000020281EA030382EA000083EA010180EA21
:10052000020281EA0303362D88BF30BD11F0004F6F
:100530004FEA01314FF4801C4CEA113102D04042A5
:1005400061EB410113F0004F4FEA03334CEA1333E0
:1005500002D0524263EB430394EA050F00F0A780F8
:10056000A4F10104D5F1200E0DDB02FA0EFC22FAF3
:1005700005F2801841F1000103FA0EF2801843FAE7
:1005800005F359410EE0A5F120050EF1200E012AD8
:1005900003FA0EFC28BF4CF0020C43FA05F3C01816
:1005A00051EBE37101F0004507D54FF0000EDCF18F
:1005B000000C7EEB00006EEB0101B1F5801F1BD338
:1005C000B1F5001F0CD349085FEA30004FEA3C0C3C
:1005D00004F101044FEA445212F5800F80F09A8032
:1005E000BCF1004F08BF5FEA500C50F1000041EB36
:1005F000045141EA050130BD5FEA4C0C404141EB3A
:100600000101013C28BFB1F5801FE9D291F0000F34
:1006100004BF01460020B1FA81F308BF2033A3F1E3
:100620000B03B3F120020CDA0C3208DD02F1140CDA
:10063000C2F10C0201FA0CF021FA02F10CE002F115
:100640001402D8BFC2F1200C01FA02F120FA0CFC0E
:10065000DCBF41EA0C019040E41AA2BF01EB045157
:10066000294330BD6FEA04041F3C1CDA0C340EDC55
:1006700004F11404C4F1200220FA04F001FA02F398
:1006800040EA030021FA04F345EA030130BDC4F156
:100690000C04C4F1200220FA02F001FA04F340EA4B
:1006A0000300294630BD21FA04F0294630BD94F0FC
:1006B000000F83F4801306BF81F480110134013DE3
:1006C0004EE77FEA645C18BF7FEA655C29D094EA54
:1006D000050F08BF90EA020F05D054EA000C04BFD2
:1006E0001946104630BD91EA030F1EBF00210020BD
:1006F00030BD5FEA545C05D14000494128BF41F05C
:10070000004130BD14F580043CBF01F5801130BDBF
:1007100001F0004545F0FE4141F470014FF000004A
:1007200030BD7FEA645C1ABF194610467FEA655CFB
:100730001CBF0B46024650EA013406BF52EA03359D
:1007400091EA030F41F4002130BD00BF90F0000F8B
:1007500004BF0021704730B54FF4806404F13204C7
:100760004FF000054FF0000150E700BF90F0000F80
:1007700004BF0021704730B54FF4806404F13204A7
:1007800010F0004548BF40424FF000013EE700BF77
:1007900042004FEAE2014FEA31014FEA02701FBF07
:1007A00012F07F4393F07F4F81F06051704732F039
:1007B0007F4208BF704793F07F4F04BF41F4002190
:1007C000704730B54FF4607401F0004521F00041EE
:1007D0001CE700BF50EA010208BF704730B54FF078
:1007E00000050AE050EA010208BF704730B511F079
:1007F000004502D5404261EB41014FF4806404F1B1
:1008000032045FEA915C3FF4D8AE4FF003025FEA36
:10081000DC0C18BF03325FEADC0C18BF033202EBBA
:10082000DC02C2F1200300FA03FC20FA02F001FA14
:1008300003FE40EA0E0021FA02F11444BDE600BFB7
:1008400070B54FF0FF0C4CF4E06C1CEA11541DBF66
:100850001CEA135594EA0C0F95EA0C0F00F0DEF831
:100860002C4481EA030621EA4C5123EA4C5350EA16
:10087000013518BF52EA033541F4801143F4801367
:1008800038D0A0FB02CE4FF00005E1FB02E506F0F8
:100890000042E0FB03E54FF00006E1FB03569CF04D
:1008A000000F18BF4EF0010EA4F1FF04B6F5007F53
:1008B00064F5407404D25FEA4E0E6D4146EB0606C5
:1008C00042EAC62141EA55514FEAC52040EA5E504E
:1008D0004FEACE2EB4F1FD0C88BFBCF5E06F1ED8F8
:1008E000BEF1004F08BF5FEA500E50F1000041EB2F
:1008F000045170BD06F0004646EA010140EA0200DC
:1009000081EA0301B4EB5C04C2BFD4EB0C0541EAFD
:10091000045170BD41F480114FF0000E013C00F312
:10092000AB8014F1360FDEBF002001F0004170BD36
:10093000C4F10004203C35DA0C341BDC04F114044F
:10094000C4F1200500FA05F320FA04F001FA05F2DB
:1009500040EA020001F0004221F0004110EBD370A8
:1009600021FA04F642EB06015EEA430E08BF20EAD4
:10097000D37070BDC4F10C04C4F1200500FA04F377
:1009800020FA05F001FA04F240EA020001F0004109
:1009900010EBD37041F100015EEA430E08BF20EA7C
:1009A000D37070BDC4F1200500FA05F24EEA020EC4
:1009B00020FA04F301FA05F243EA020321FA04F0F3
:1009C00001F0004121FA04F220EA020000EBD370AA
:1009D0005EEA430E08BF20EAD37070BD94F0000FAA
:1009E0000FD101F00046400041EB010111F4801FDE
:1009F00008BF013CF7D041EA060195F0000F18BF8F
:100A0000704703F00046520043EB030313F4801FCA
:100A100008BF013DF7D043EA0603704794EA0C0F84
:100A20000CEA135518BF95EA0C0F0CD050EA41069A
:100A300018BF52EA4306D1D181EA030101F0004117
:100A40004FF0000070BD50EA410606BF104619463F
:100A500052EA430619D094EA0C0F02D150EA01364B
:100A600013D195EA0C0F05D152EA03361CBF10468C
:100A700019460AD181EA030101F0004141F0FE412B
:100A800041F470014FF0000070BD41F0FE4141F4AF
:100A9000780170BD70B54FF0FF0C4CF4E06C1CEAAF
:100AA00011541DBF1CEA135594EA0C0F95EA0C0F64
:100AB00000F0A7F8A4EB050481EA030E52EA03351F
:100AC0004FEA013100F088804FEA03334FF0805540
:100AD00045EA131343EA12634FEA022245EA11156D
:100AE00045EA10654FEA00260EF000419D4208BF1E
:100AF000964244F1FD0404F5407402D25B084FEACB
:100B00003202B61A65EB03055B084FEA32024FF476
:100B100080104FF4002CB6EB020E75EB030E22BFD3
:100B2000B61A754640EA0C005B084FEA3202B6EB93
:100B3000020E75EB030E22BFB61A754640EA5C0042
:100B40005B084FEA3202B6EB020E75EB030E22BFD2
:100B5000B61A754640EA9C005B084FEA3202B6EBD3
:100B6000020E75EB030E22BFB61A754640EADC0092
:100B700055EA060E18D04FEA051545EA16754FEAF4
:100B800006164FEAC30343EA52734FEAC2025FEA12
:100B90001C1CC0D111F4801F0BD141EA00014FF0A1
:100BA00000004FF0004CB6E711F4801F04BF014372
:100BB0000020B4F1FD0C88BFBCF5E06F3FF6AFAE8E
:100BC000B5EB030C04BFB6EB020C5FEA500C50F11E
:100BD000000041EB045170BD0EF0004E4EEA1131A1
:100BE00014EB5C04C2BFD4EB0C0541EA045170BDA8
:100BF00041F480114FF0000E013C90E645EA060EEC
:100C00008DE60CEA135594EA0C0F08BF95EA0C0F19
:100C10003FF43BAF94EA0C0F0AD150EA01347FF461
:100C200034AF95EA0C0F7FF425AF104619462CE738
:100C300095EA0C0F06D152EA03353FF4FDAE10469B
:100C4000194622E750EA410618BF52EA43067FF4EC
:100C5000C5AE50EA41047FF40DAF52EA43057FF47C
:100C6000EBAE12E753B94AB9002908BF00281CBFF0
:100C70004FF0FF314FF0FF3000F00CB8ADF1080C31
:100C80006DE904CE00F008F8DDF804E0DDE90223A8
:100C900004B07047704700BF2DE9F04786468C4688
:100CA0000846089E154674461946002B40F0C18040
:100CB0008542B2FA82F245D94AB1C2F1200300FA64
:100CC00002FC954094402EFA03F343EA0C0C4FEAE1
:100CD000154EA8B2230CBCFBFEF80EFB18CC08FB8B
:100CE00000F943EA0C43994528D9EB1808F1FF377E
:100CF00004D2994502D9A8F102072B44A3EB0903BA
:100D0000A4B2B3FBFEFC0EFB1C330CFB00F044EA68
:100D10000344A04214D92C190CF1FF3304D2A04291
:100D200002D9ACF102032C44241A43EA07401EB155
:100D3000D440002334607360BDE8F0874746DDE7A8
:100D40006346F1E792BB431B01214FEA154EAFB258
:100D5000200CB3FBFEFC0EFB1C330CFB07F840EA37
:100D60000343984561D9EB180CF1FF3004D2984544
:100D700002D9ACF102002B44A3EB0803A4B2B3FBED
:100D8000FEFC0EFB1C330CFB07F744EA0344A742AE
:100D90004DD92C190CF1FF3304D2A74202D9ACF182
:100DA00002032C44E41B43EA0040C0E7C2F12003E5
:100DB0009540944020FA03F12EFA03F34FEA154EC2
:100DC0009040AFB20343B1FBFEFC0EFB1C10190CAC
:100DD0000CFB07F841EA0041884522D969180CF15B
:100DE000FF3004D2884502D9ACF102002944A1EBBE
:100DF00008019BB2B1FBFEFC0EFB1C110CFB07F7BC
:100E000043EA01439F420ED9EB180CF1FF3104D2A3
:100E10009F4202D9ACF102012B44DB1B41EA0041A5
:100E200093E76046E3E76146F7E76046A4E7634679
:100E3000B8E7834206D916B9002108467CE7C6E91F
:100E400000E0F9E7B3FA83F78FB9834201D3724523
:100E500008D8BEEB020460EB030301209C461EB9D8
:100E6000002169E73846FAE7C6E9004CF8E7C7F120
:100E7000200CBB400EFA07F522FA0CF42EFA0CF106
:100E8000BA401C4320FA0CF3B8404FEA144901431E
:100E90001FFA84FEB3FBF9F809FB18300B0C08FBB2
:100EA0000EFA43EA00439A4540D9E31808F1FF30AF
:100EB00004D29A4502D9A8F102002344A3EB0A0305
:100EC00089B2B3FBF9F809FB183308FB0EFE41EABF
:100ED00003418E452CD9611808F1FF3304D28E45A9
:100EE00002D9A8F10203214443EA0040A1EB0E011C
:100EF000A0FB02984145CE46434602D306D14D455C
:100F000004D20138B9EB020E68EB0403002EA7D01F
:100F1000B5EB0E0261EB030101FA0CFC22FA07F3B8
:100F2000F9404CEA0303C6E9003199E74046C5E7BA
:100F30004346D9E7000000002DE9FF472E4806F0A0
:100F400084FB2E4C204607F0DCF80546002847D0ED
:100F50000FF29C09D9E90089294806F076FBDFF8F1
:100F6000A4A0A56840212046EB689847002808DA2D
:100F7000254806F06AFB00214FF2244003F096FF5B
:100F8000EFE70E216A4620462B699847002801DAD0
:100F90001E48EEE70D2120462B6902AA984700283B
:100FA00001DA1B48E5E7DDE90012504606F04DFB8B
:100FB0000398FFF7DBFB42464B46FFF76BFD064607
:100FC00002980F46FFF7D2FB02460B4630463946E1
:100FD000FFF780FA02460B460E4806F036FBCAE7DA
:100FE00021680D4806F031FB284604B0BDE8F087C3
:100FF0000000000080842E419E9B0000808C000039
:10100000C49B0000569C0000D69B0000F99B00008A
:10101000269C00006C9C0000AC9B0000014B1B68F0
:10102000184700BFD0000020014B1860704700BF78
:10103000D000002030B585B004460D4610220021B6
:10104000684607F0AAFB02238DF80230044B2A46BB
:1010500021466846019305F0BFF905B030BD00BFD9
:101060001D10000080B505460E461746984603F051
:101070006FFF034607F056FD0446DFF8189042461E
:1010800049F8003039463046A84754F8090000F0C6
:101090000DFB00BF080000002DE9F047058B04465A
:1010A0002807904611D4022905F0070540F0CC80AE
:1010B000204606F0D7FA78B10138218B042811D8E0
:1010C000DFE800F0C2106D85950001290CBF45F0E6
:1010D000100545F02005258388F31188BFF36F8F35
:1010E000BDE8F08701F0070AAA4500F0A5800027B7
:1010F000B9463E46A368002B00F0BC8041F00801D1
:10110000218388F31188BFF36F8FA168002900F055
:10111000BA800D68002900F0B6803346524620465A
:10112000D1F80480C047002D76D02B6829461D4693
:10113000F0E701F007035A1F012A1BD8002221F013
:101140000701062B276889B2C4E9002209D13B4672
:1011500003E0628B013262831B68002BF9D141F0FE
:1011600002012046218306F07DFA00287AD041F062
:10117000200176E0042B0AD121F0070189B2204634
:10118000218306F06FFA10B141F020012183218BF9
:1011900001F0070AAA454FD00027B946AAE72369FC
:1011A00021F0070141F00601062DD3F800902183BC
:1011B0002DD1B9F1000F3FD041F00801218388F310
:1011C0001188BFF36F8F20463949C84729E021F0C5
:1011D0000701236941F0040189B2042DD3F804907A
:1011E0002183E6D000274FF0040A3E4682E721F033
:1011F0000701236941F0050189B2052DD3F8089054
:101200002183D6D000274FF0050A3E4672E700271B
:101210004FF0060A3E466DE72B4687E7B9F1000F0F
:10122000D1D1EFF31188202383F31288BFF36F8F9E
:10123000238B23F008032383258BEA062ED525F084
:101240001003238305F007056669218B002EBFF686
:1012500070AF00232768C4E9003321F0070141F093
:1012600001012183218B4FF0000901F0070AAA45F3
:101270007FF440AF002F9CD041F00801218388F318
:101280001188BFF36F8F002FC8D03D6839463346B1
:101290005246204606F012FA2F46F4E7AB067FF5D9
:1012A0001BAF25F02003238305F0070500E700BFEF
:1012B000E9760000014B0360002070471899000098
:1012C00008B5044806F0C1F9BDE80840024806F038
:1012D000BCB900BF819C0000B69C000030BFFFF786
:1012E000FDBF00BF2DE9F04105460B4EDFF82C8015
:1012F000324606EB0807CC1B2046094907F040FAA6
:10130000A01942460021083C07F047FAC5F8804082
:1013100007F10800BDE8F0810000000004000000B3
:101320004C960000054B5A699B689A421FBF044ABD
:10133000536843F080535360704700BFB8060020E5
:1013400000ED00E0154B9A6A12F0007F9A6A14BF14
:101350001E201D2012F0807F9A6A18BF1F2012F4F1
:10136000801F9A6A18BF022012F4002F9A6A18BFD1
:10137000212012F4802F9A6A18BF222012F4003F15
:101380009A6A18BF232012F4803F9A6A18BF24205B
:101390006FEA02426FEA12429A62704700ED00E083
:1013A00010B5194B0246986A9C6A10F4805F14BF0E
:1013B0001720162014F4006F9C6A18BF1820A4058B
:1013C00009D5986B986A000404D51AB19A6A22F478
:1013D00000429A6219200C4B9A6A12F4806F9A6A42
:1013E00018BF1A20D2050CD49B6A13F4005F18BFF3
:1013F0001C20054A936A43F47F43936200230B70D9
:1014000010BD1B20F5E700BF00ED00E010B51C4B40
:101410000246986A9C6A10F0100F14BF1120102029
:1014200014F0080F9C6A18BF1220A40709D5586B46
:10143000986A000604D51AB19A6A22F080029A626C
:1014400013200F4B9A6A12F0010F9A6A18BF1420EA
:1014500012F0200F9A6A18BF1520D40658BF9B6A55
:10146000074B9A6A920642BF5A6A22F400525A62A5
:101470009A6A42F0FF029A6200230B7010BD00BF0F
:1014800000ED00E0F0B5474B04465B6800258BB0EB
:10149000C3F3080385F31188BFF36F8F02F07F4019
:1014A000B0F17F4F11D102F00C0008280DD01007C9
:1014B0004CBF0C4601250022033B8DF80720032B6F
:1014C00005D8DFE803F02462665F2C46F3E70023CB
:1014D0009DF80720CAB902AE04F120073246206801
:1014E0006168083403C2BC421646F7D1099A002D40
:1014F00053D0C2F3080121B96FEA52226FEA4222A7
:101500000992184602A906F0A9F90BB0F0BD254BC7
:10151000DA6A9107DBD4DA6A002AD8DBDA6A520089
:10152000D5D55A69A16942F480725A61BFF34F8FD1
:10153000BFF36F8F5A6931F8021C22F480725A612E
:10154000BFF34F8FBFF36F8F4DF60272914209D0F8
:101550009A6AD2B242B101200DF10701FFF756FF9E
:101560000346B5E72368B3E79A6A12F47F4F05D0C4
:1015700001200DF10701FFF713FFF1E79B6AB3F5B7
:10158000803FA4D3FFF7DEFEEAE700200DF107015C
:10159000E4E700200DF10701EDE722F4FF7222F0ED
:1015A0000102ADE700ED00E0064B5A6942F010027F
:1015B0005A615A6942F480625A615A6922F00802FB
:1015C0005A61704700ED00E0EFF30880EFF3098106
:1015D00001B57246FFF756FF01BD00BF002080F342
:1015E0001488BFF36F8F002080F30A8880F30B8884
:1015F0000F4880F3088801F013FB00200D490860B4
:10160000BFF34F8F00F02CF8202080F311880A4898
:101610004FF40061401880F30988EFF31480022131
:10162000084380F31488BFF36F8F00F0EFF80000D9
:10163000401A002094ED00E0000D00200023184621
:101640000649D1F89020C2F30722934200DB70478D
:10165000C1F89830C1F8A0000133F6E700ED00E0D2
:1016600010B572B6002484F31388FFF7E7FF234612
:101670004FF0FF300C4A03F120010133102B42F8E8
:101680002100F8D100234FF0FF30074A03F1600139
:101690000133102B42F82100F8D162B6BFF34F8F0F
:1016A000BFF36F8F10BD00BF00E100E0084B9B68E7
:1016B00083420BD1EFF3058343B1064B5A6842F0E6
:1016C00080525A605A6A22F400425A6203F046BCC1
:1016D000B806002000ED00E016498A684FF030009F
:1016E0001044EFF3098C80E8F01F202080F312886B
:1016F000BFF36F8F104F4FF000664A698A603E60FB
:10170000D2F880000D4C2060D2F884000023C2F88B
:10171000843080F3118802F1300090E8F01F8CF3E0
:10172000098802F1000004B506F0ADF8BDE80440F8
:1017300070470000B806002004ED00E0E003002040
:101740001EF0040F0CBFEFF30880EFF309808169EE
:1017500011F8021C0229FFD001B5724606F084F888
:1017600001BD00BF00B2002807DB01234109034A85
:1017700000F01F00834042F82130704700E100E094
:1017800000B200280CDB01220649430900F01F00CB
:101790008240203341F82320BFF34F8FBFF36F8F78
:1017A000704700BF00E100E0054B420953F82220DA
:1017B000012300F01F0003FA00F01040704700BF43
:1017C00000E100E000B2002801F10101ACBF00F12E
:1017D0006040064B4FEA4111C9B2ABBF00F5614012
:1017E00000F00F0080F800131954704714ED00E06A
:1017F000044B054A23F07F039360BFF34F8FBFF381
:101800006F8F70470000000000ED00E008B5FFF7A3
:10181000EFFF074AD2F8883023F47003C2F888300B
:1018200002F0C8FE03F0BCFC00F046F802F002FF34
:1018300000ED00E042F8203C009B0B4942F81C3CC4
:10184000019B21F0010142F8183C029B42F8081C60
:1018500042F8143C4FF0807342F8043C0023203AD5
:101860000265C0F8843070476510000000B50B4B6E
:1018700015469860D0F88020094B0E461A60036F19
:1018800083F30B882C4686F309880020054B984784
:101890002046002100220023034C2047B8060020E8
:1018A000E00300208F780000651000001022014B3B
:1018B0001A61704700ED00E0002320210448C2189F
:1018C0000133B3F5917F82F80013F8D1704700BF60
:1018D00000E100E008B5EFF30583064A103B02EB98
:1018E000C30152F8330049688847BDE80840FFF754
:1018F00019BD00BFA08C00001FB5094C094A234642
:101900000121094800F0FAF800230393074B012155
:10191000E41A01A80193029400F0FAF804B010BD93
:1019200000FC07200000002018990000C0010020E2
:1019300010B50C7A0B6804F01F0223F01F031A4342
:10194000CB68640923F01F03054943EA440343F0CD
:101950000103C1F89800C1F89C20C1F8A03010BD67
:1019600000ED00E010B5074BD3F89030C3F3072328
:10197000013B984202D8FFF7DBFF10BD6FF0150066
:10198000FBE700BF00ED00E02DE9F04F0F461446E5
:1019900006464FF000084D4D85B0B84580F2928064
:1019A000D6F80490B9F1000F36D0B9F11F0F40F20C
:1019B000878019F01F0F40F08380D6F800A01AF03E
:1019C0001F0F7DD1504605F085FF834609EB0A00C5
:1019D000013805F07FFF834572D11BF1160F6FD0E0
:1019E0005C456DDDC5F898B0D5F89C10C5F898B089
:1019F000D5F8A03021F01F0143F01F0AD6E90032CC
:101A00001A44994202F1FF391ED1CA4508D1314624
:101A10005FFA8BF005F067FF08F101080C36BCE7B0
:101A20003146C5F898B0D5F89C3022F01F0203F07B
:101A30001F031343C5F89C30E0B205F054FF10F1CA
:101A4000160F3DD0441CE7E7C5F898B0D5F8A020A4
:101A5000013B23F01F0302F01F021343CA45314626
:101A6000E0B2C5F8A030E8D005F03DFF10F1160F48
:101A700026D0C5F898B0D5F89C209DF808300AF11A
:101A8000FF3A62F304038DF80830D5F8A0309DF8D2
:101A900008205B0863F347128DF80820D6E900326E
:101AA0001344009323F01F035344A3EB09030130B5
:101AB00023F01F036946C0B20393FFF753FFBEE74D
:101AC0006FF01504204605B0BDE8F08F00ED00E092
:101AD0000522044BC3F89420BFF34F8FBFF36F8FE1
:101AE000704700BF00ED00E0BFF35F8F0022024BA4
:101AF000C3F89420704700BF00ED00E010B5034C20
:101B00002278FFF741FF207010BD00BFE40C0020D9
:101B10002DE9F74F294D8A4606464FF00008AB469F
:101B2000274FD0451BDAD6F80490B9F1000F3FD00B
:101B300031680846019105F0CDFE0199044609EB94
:101B40000100013805F0C6FE84424FF014021D4B1F
:101B500008D002FB08F36FF015024BF8032003B026
:101B6000BDE8F08F14F1160F2C60F8D01978A1425F
:101B7000F5DD02FB08B0C7F89840C7F89840D7F8E1
:101B80009C4000F10801007B64F304000871D7F861
:101B9000A0000C79400860F347140C71D7F89C1032
:101BA00021F01F016960D7F8A01021F01F01296101
:101BB00008F1010814350C36B3E700BFE403002038
:101BC00000ED00E0E40C0020F0B54149414CD1F8B3
:101BD00090302568C3F307239D4287B075D8002055
:101BE000FFF782FF3C4BC1F8C030854216D13B4C19
:101BF00001A82570FFF75EFB00250646384FAE4270
:101C000013D1002023783249D1F89020C2F3072263
:101C1000934254DBFFF75CFF00202FE0616801EB8B
:101C20000011FFF785FE0130DFE70199280101EB84
:101C30000513DA683A40B2F5001F21D0B2F5800FE3
:101C40002BD0B2F5801F38D15A689B680958013BE8
:101C500022F01F0003440120844623F01F0340EAC2
:101C60004C10CDE902218DF8100002A920780593CF
:101C7000FFF778FE00281DDA6FF0150007B0F0BD01
:101C80005A689B680958013B22F01F0003444FF03B
:101C9000020C012023F01F03E1E75A689B680958F2
:101CA000013B22F01F0003444FF0000C062023F0FC
:101CB0001F03D4E723780133237001359FE7C1F870
:101CC0009830C1F8A00001339EE74FF0FF30D5E710
:101CD00000ED00E024990000AAFF4400E40C00207D
:101CE0000000F0FF08B5024B1B689847002008BDB4
:101CF000F8030020034B044A1860937843F0020372
:101D000093707047F8030020D400002008B50549FF
:101D1000054A21F007010548521A05F03CFC002055
:101D200008BD00BF471A002000FC0720FC0300206C
:101D300008B5234A234B1A6000F05EF84FF47A612D
:101D40002148D0F82436C3F30802C3F309434B43B8
:101D500082F480721D49883201FB02334FF4FA216C
:101D60005B00B3FBF1F201FB12331949B3F57A3F83
:101D700028BF0132C1F80429D0F820364FF47A6028
:101D8000C3F30802C3F30943434342F21C5082F4F5
:101D9000807202F2172200FB02334FF47A701B0AA2
:101DA000B3FBF0F200FB1233B3F5FA7F4FF00103FF
:101DB00028BF0132C1F81C27C1F80036002008BD39
:101DC0000020A107F000002000C0FF00F82A0080DA
:101DD0000000125048B1054B054A1B68B3FBF2F3F3
:101DE0005843044B43F0010318477047F0000020AC
:101DF00040420F00709600000122024BC3F80424F9
:101E0000704700BF002008E0084B70B5C31A0D46AC
:101E100007499B10044659434022064805F08AFDB5
:101E20002B4601462046BDE8704018471C040020A0
:101E3000B76DDBB6A08B0000402373B50B4C00934D
:101E4000041B0B460D460A49A41061430646094A85
:101E5000094805F09BFD011E05DA30462B4602B00D
:101E6000BDE87040184702B070BD00BF1C040020E0
:101E7000B76DDBB6F7790000A08B000010B5EFF36B
:101E80001184202383F31288BFF36F8F074A1368EE
:101E900023F00201DB07116002D4012005F0E8FF06
:101EA00084F31188BFF36F8F10BD00BF940400202E
:101EB0002DE9F8430022012106464FF48770FFF711
:101EC00081FC114800F0B8FF104B984219D100F086
:101ED000C3FF00244FF01C090C27DFF8348035695C
:101EE000414609FB045005F00CFC002807DB0123E8
:101EF00007FB04551C44032CEB65F0D10020BDE822
:101F0000F8836FF00400FAE7277A00000000AD0BB9
:101F10004C9900001FB500220123CDE902236B4636
:101F2000084ACDF800D0CDF804D005F05DFD0028BA
:101F300005DB43F609520023684602F0DFFC05B0DA
:101F40005DF804FB217A00000C22104B014602FBD5
:101F50000033002030B4D3E915525865EFF31180F7
:101F6000202484F31288BFF36F8FDC6D04F0C0046B
:101F700044F00204DC6580F31188BFF36F8F1DB15C
:101F80002B4630BC0248184730BC70471C04002068
:101F9000A08B000010B4EFF31182202383F312888A
:101FA000BFF36F8F1648016841F002040460C80750
:101FB00007D482F31188BFF36F8F012010BC00F0AB
:101FC00061BF1049D1F80C14C903F2D5EFF31180A9
:101FD00083F31288BFF36F8F0B49CB6D03F0C003FF
:101FE00043F00203CB6580F31188BFF36F8F82F358
:101FF0001188BFF36F8F002010BCFFF7A5BF00BF93
:102000009404002000E010501C040020C3B21C20E7
:10201000014A03FB002070471C0400202DE9F04119
:10202000012207463449D1E8EF3FC1E8E02F0028FC
:10203000F9D133B9314932484B60CB608A6005F041
:1020400073FB7B1E012B28D8012F06D12D4BD3F813
:10205000503403F00303012B1FD006F0A9F8054606
:10206000E8B9294B1B78D3B104220646254BC3F8A7
:102070000823244CDFF89480D4F84C24D4F84C3452
:10208000D20315D503F00303012B01D0012F0FD18B
:102090006DB386F31188BFF36F8FBDE8F081EFF366
:1020A0001186202383F31288BFF36F8F0125E0E7A9
:1020B000C5B1304605F0FFFBD4F8403413F0FF0300
:1020C000DAD1D4F80821002AD6D0C4F80831D4F8DF
:1020D00008314FF480420123C4F84034C8F8A021ED
:1020E0002361C9E70021202002F0E0FEE4E704229A
:1020F000044BC3F80423D0E7180400200804002090
:102100003804002000E01050F70C002000E100E04F
:1021100008B5074805F0F5FF38B10648FFF7EAFDB6
:102120000448FEF781FF002008BD6FF01200FBE7B6
:10213000208C0000392100000A2838B50446074DDC
:1021400004D1AB680D2128465B689847AB6803480B
:102150005B68E1B29847204638BD00BF208C000084
:102160002DE9F04340F206354668D00648BF03200B
:10217000337B02EA050558BFC2F3401087B001F077
:102180001F07B5F5837F144647EA43178DF8030010
:1021900045D00FD8062D44D007D8B5B1022D14D0A4
:1021A0006FF0150007B0BDE8F083B5F5807FF7D17B
:1021B00001250AE040F20222954234D0B5F5407F75
:1021C00033D0B5F5007FEBD1042522032FD50123B1
:1021D00072688B405360326982BB7F2F07F01F0308
:1021E0004FEA571177D83E4A52F8212084F48031C3
:1021F00002EB8302D2F88030C1F30041C4F34044C3
:1022000023F4706344EA410423F00F031C4344EABF
:10221000800444EA0524C2F880400020C2E7092572
:10222000D3E70825D1E70625CFE70525CDE76303EA
:1022300041BF012372688B409360CCE7103639466A
:1022400030460DF1020201F04BFA14F4403F804693
:102250000CD13946304605F0D0FE224B9845DCD1F2
:1022600030469DF8021001F0A7FAD6E74FF00009BA
:1022700001AB3946304603AACDE90439CDE90199CD
:10228000CDF80C9001F09EF8164B984288D114F4CA
:10229000003315D09DF8033084F48034C4F3004437
:1022A0008DF80E3039464B46304603AA8DF80C5057
:1022B0008DF80D4001F072F90A4B9842CDD06FE7CE
:1022C000CDE9043339460DF10303304603AA0393E5
:1022D00001F078F8F0E7203352F82330FFDE00BF3A
:1022E000709900000000AD0B4209022A034670B548
:1022F00003D0012A18D0CAB170BD0E4E32695168A0
:102300000029F9D0012503F01F030C689D40002926
:10231000F2D08A682A4002D030464B6898473CB1D8
:10232000236821461C46F2E7034EE7E7034EE5E744
:102330002346F6E7008C0000E08B0000C08B000015
:1023400038B545682B69E3B11035284601F026FA07
:102350000446B0B90146284601F0E0F90B4B98421B
:1023600011D1224628460A4901F0ACF92246012142
:10237000DB20FFF727FA2246012140F20D10FFF77C
:1023800021FA002038BD6FF00400FBE70000AD0B20
:10239000E9220000F0B51646426801F01F04107BE8
:1023A00087B044EA40141069002871D0B6F5001FC8
:1023B00002F1100506D12146284605F020FE002036
:1023C00007B0F0BD0027B6F5800F01A80197476060
:1023D0003BD1B3F1007F14BF052304238DF80430F3
:1023E0000023CDE90403039393680DF1030723FA57
:1023F00001F111F001013DD1B6F1A07F3AD104F015
:102400001F037F2C4FEA541003F1200346D8254ABE
:1024100052F8202052F82330DB072BD43A462146CD
:10242000284601F05DF9204B984219D002972146C9
:10243000284603AA00F0C6FF1C4B98422BD101226C
:102440002146284601F0C8F9B9E7B3F1C06F05D0BD
:10245000B3F1007F14BF01230223BFE70323BDE7CD
:102460003946284601F0B0F9104B9842DED06FF0A3
:102470000B00A5E73A462146284601F031F90B4BFF
:102480009842D4D128469DF8031001F095F9CEE783
:102490006FF0850094E76FF0150091E751F8233055
:1024A000FFDE00BF709900000400AD0B0000AD0B13
:1024B00002780B69012A08D0022A08D04AB9064AD4
:1024C0001A6203F1100002F0E5B9044AF8E7044A81
:1024D000F6E7044AF4E700BF0000AD0B0100AE0BC5
:1024E0000200AE0B0100AD0B2DE9F04F87B0049355
:1024F0004368D0F810B0D3F828809B8B174603931D
:102500004FF0FF324FF0FF3305460C4605F000FB5D
:102510000BF1100302930026002300220BF11000A0
:1025200002F0ECF93346BE4201D300234DE0207A9D
:10253000010776D40136BE4221680BD2820709D446
:10254000227D80EA020C0CF0010C02F004025CEA2D
:10255000020C08D023B901F06042B2F1005F1AD03A
:102560004FF0000901E04FF001096268DDF80CE06E
:1025700003EB020CF44557D8C00705D408EB030061
:10258000059306F0FDF8059B62681A4493B2B9F111
:10259000000F2FD113BB4FF00009D4F800A0A3887F
:1025A000049A217A28460092524600F063F8031EEE
:1025B0000BDB43F609520023029802F09FF980B129
:1025C000284600F037F86FF004032846029305F020
:1025D000A2FA029B184607B0BDE8F08F9946C246A2
:1025E000DEE7DBF82030124A9342ECD1237ADB0796
:1025F00002D400230C3496E7C245FAD1A24609E082
:10260000A9EB02011FFA81F9DAF80C0018FA81F13E
:1026100006F0B6F8DAF80420AAF10C0A9145EFD2D8
:10262000E7E76FF08503D0E76FF01B03CDE700BF4E
:102630000000AD0B70B5446823682046D3F80056FF
:10264000D3F8046601F004FC3146284601F0B8FED8
:1026500005460021606A05F061FA204601F0E8FBBA
:10266000034B9D4214BF6FF00F00002070BD00BFF0
:102670000000AD0BF0B50C461D46164687B0476806
:10268000122200210DF1060006F087F804F0010384
:102690008DF80430BDF8303002958DF80530BB8DD3
:1026A0000496AB4214D384F00202C2F340023846CF
:1026B000520101A901F014FC084B98420BD00B33D6
:1026C000984214BF6FF004006FF00F0007B0F0BD28
:1026D0006FF01B00FAE70020F8E700BF0000AD0B29
:1026E00038B5044645682B6A98470121686A05F0A9
:1026F00015FA23462846AA6905F1080101F05EFB98
:10270000054B984204D1204605F02EFA002038BD32
:102710006FF00400FBE700BF0000AD0B036803F09F
:102720001F027F2B02604FEA53129ABF024B53F8ED
:1027300022000020704700BF149A00002DE9F04FDE
:102740001646834640F2FF18DFF88491DFF884A133
:1027500085B000EB8101594503D1002005B0BDE8EB
:10276000F08FDBF80030C3F3C322082AC3F3080458
:1027700000F2AB80444508BF4FF0FF34B3F1D05FA7
:1027800019F802704FEA136210D2192A10D8DFE844
:1027900002F012191F22252B220F0F0F0F3A670F7D
:1027A0000F0F0F0F0F0F0F0F6A7F8285382A78D017
:1027B0006FF08500D2E7C6F80446601C5DD10BF1CE
:1027C000040BC8E7C6F80C46621CF8D000255DE093
:1027D000C6F81046F1E7C6F80846F5E7631CC6F8E8
:1027E0000046ECD0002504E0651CC6F80446E6D09F
:1027F000012503A80394FFF791FF0122039B02FA2E
:1028000003F3836008E0C6F80046002FDCD1631CA8
:10281000D5D0002508272A46DBF80030039403F4BE
:102820000040002818BF002203A818BF012501930B
:102830000092FFF773FF039C019B00EB8400D0F82C
:102840008040C3F3412C009A3B0243EA8C031343BC
:1028500004EA0A04234343EA4503C0F88030AEE7A4
:10286000C6F80446D1E7C6F86045601CDBF80030C6
:10287000A5D0C3F30043002BBAD0012503A80394CD
:10288000FFF74CFF039B05FA03F343602A46C3E7B7
:10289000C6F86445E9E7C6F86845E6E7C6F86C455A
:1028A000E3E703A80394FFF739FF039B621C00EBE7
:1028B0008300D0F8803023F0E04343F08043C0F839
:1028C00080303FF47CAF0125E0E76FF0150045E76D
:1028D0002C9D0000F0F0FCFF0122014B1A607047B4
:1028E00000700D500C2903690BD15B6A064907483B
:1028F0004B4393FBF0F100FB113311600020536058
:1029000070476FF08500704790D0030040420F0081
:102910000022044B0069C3F80021D3F8003101F014
:10292000B9BF00BF00700D507FB50569AB6A63B3D6
:10293000402901D00C292BD105F110064FF0FF32B0
:102940004FF0FF33304601F0DDFE134B00240193BE
:1029500003236946A86A0394029304F0E5FE4FF04E
:10296000FF324FF0FF33284601F0C8FFA86A04F099
:1029700032FF0A4BD3F808256A6201225A603046BA
:1029800001F038FF204604B070BD6FF00A00FAE78E
:102990006FF08500F7E700BFD928000000700D50E8
:1029A00010B504690020FFF731FBA0624FF0FF3241
:1029B0000021204605F0F0FB04F1100005F0E5FBD6
:1029C00000220121D720FEF7FDFED720FEF7CAFE28
:1029D0000122024B0020C3F8042310BD00700D50EB
:1029E00030B50E29036911D10A251968104C0B1353
:1029F00093FBF5F005FB1033C1F30B016143634317
:102A000003EB1133C2E90003002030BD0D290CD1C6
:102A10006424B3F9043093FBF4F104FB113308B2DE
:102A200042F2107113FB01F3ECE76FF08500ECE765
:102A3000A08601002DE9F04104460D46476805F0E7
:102A4000B7FBA0B9274B1B788BB14FF02008642649
:102A500063681B68D3F830318BBB012005F006FAA0
:102A6000013EF5D10021202002F020FAEFE72021DD
:102A7000EFF311831A4681F31288BFF36F8F6068FA
:102A80000068D0F8300120B983F31188BFF36F8F4D
:102A9000EEE77B6A00201D706368796A1B68C3F8E3
:102AA0003C170121C3F84017C3F83001D3F83001B7
:102AB000196582F31188BFF36F8FBDE8F081EFF3E2
:102AC00011831A4688F31288BFF36F8F6168096813
:102AD000D1F830110029DCD183F31188BFF36F8F57
:102AE000C0E700BFF70C002070B514461D4605F086
:102AF000A4F9A042A94113D30A4AD2E90061A41B58
:102B000024F01F0365EB01009B1941EB0001C2E9B2
:102B10000031640944EAC060BDE8704002F01CBCAA
:102B200070BD00BFC801002010B500220121E420C3
:102B3000FEF748FE174A0020D2F8183723F4403336
:102B4000C2F8183700F026FF134B0446984208D10C
:102B50000120124900F0AEFFA04205D0104B984270
:102B600014D04FF0FF3010BD05F067F967220D4B10
:102B700020F01F00C3E900010B4BC3E900010B4B20
:102B800002201A60FFF74AFA0020ECE76FF00B0012
:102B9000E9E700BF00200E500000AD0BEC00002064
:102BA0000200AD0BC8010020C00100201C05002060
:102BB00008B505F042F9054AD2E90032C01A61EBC6
:102BC0000201400940EAC16008BD00BFC801002001
:102BD00037B5431C0CBF6FF0004420EAE07405F0E9
:102BE0002CF90D4BD3E90025801A61EB0503202158
:102BF000C4FB0103402873F100042CBF20F01F0127
:102C0000002352184FF0010145EB030300910348E4
:102C100000F0B4FF03B030BDC8010020E400002084
:102C20000123264AC2F80038A2F55722D2F8002420
:102C3000234AD2F84023292A04BF224AC2F80C347E
:102C4000214AD2F88C3043F44063C2F88C30002221
:102C5000D30003F57F0303F54043D3F8001401319B
:102C60000AD0D3F8001439B1D3F800140132D3F8E4
:102C70000434402A0B60EBD1114BD3F84033292B9D
:102C800008D1124BD3F80026D20744BF6FF00102DF
:102C9000C3F8002600210E4A0B48C2F81815D0F8D8
:102CA0008C3043F44063C0F88C30C2F8A015A2F514
:102CB000A042D2F80034012BFBD070470000125024
:102CC00000C0FF000030055000ED00E000E01050B3
:102CD00000E0045030B50468ACB1B4FA84F30122CA
:102CE000C3F11F03DBB29A4024EA0202D0E8EF5F8F
:102CF000A54204D1C0E8EC2FBCF1000FF6D1EAD117
:102D000002480B7030BD0248FCE700BF0000AD0B6D
:102D10000200AD0B10B50368CB40DB0710D40123D4
:102D20008B40026843EA0201D0E8EF4F944204D19D
:102D3000C0E8EC1FBCF1000FF6D1F2D1014810BD84
:102D40000148FCE70000AD0B0400AD0B0228F7B50D
:102D500005462ED8334B3449185C0026C1F80803C9
:102D6000012142F21074314B314A33F81530525D73
:102D700003F1A04302F1A04203F5871302F5871285
:102D800011601E608D421B68274F8DF8076008BFD9
:102D90000DF10706012D22D0022D36D0D7F84C3484
:102DA00003F480336EB923B1012005F05FF8013CD4
:102DB000F2D103B0F0BD012005F058F8013CE9D193
:102DC000F7E7D7F84C2402F003023270002BF0D062
:102DD0009DF80730002BEED0012DEAD111E0D7F895
:102DE0000C3403F4803336B95BB1012005F03EF8B2
:102DF000013CF4D1DDE7002B0CBF0123002333702D
:102E0000E6D100220B4B5A71D3E7D7F86C34DB03C1
:102E1000CFD5002EDCD1012005F028F8013CF4D1FB
:102E2000C7E700BF599D000000E01050989B0000CC
:102E3000569D000020050020044B1A7922B901227A
:102E400018601A7102487047024870472005002038
:102E50000000AD0B0C00AD0B08B5084B1B6843B16F
:102E60004FF48770FEF7A0FC18B94FF48770FEF797
:102E700079FC0022024BC3F8402408BD2005002045
:102E800000E01050012810B547D0022857D0002884
:102E900038D1304BD3F84C14D3F84C24C80323D585
:102EA00002F00303012B04D013B10020FFF74EFF03
:102EB0000023284A0421C2F8403410234FF48472BE
:102EC000002002F1A04202F587121060146801246C
:102ED00003F1A04303F587131C601F4B1B689BB3D2
:102EE0001C4BC3F804130DE0D3F84824D107DFD5F9
:102EF000D3F850249207D8D4174A12681AB1042282
:102F0000C3F8042310BDD3F80821002AFBD0002207
:102F1000C3F80821D3F80831F4E700230D4AC2F8BA
:102F20001031D2F81011C2F81831D2F81811C2F8C5
:102F30001431D2F8142171214FF48072C0E7242398
:102F40004FF48E728021BBE71368002BFCD0106019
:102F50001368D7E700E010502005002070B5002569
:102F60001E4C1F4ED4F80C3303B970BDB3FA83F373
:102F7000C3F11F039A0002F5807292B202F1A042DF
:102F800002F58712156012680122D8B202FA03F323
:102F9000DBB2102BC4F8083311D0402B1BD0042B0C
:102FA00016D1D4F84C14D4F84C14890710D1C4F8B5
:102FB0004024C4F804332261D4F80C33D4E702234C
:102FC0007371C4F81451D4F814312023C4F80433B5
:102FD00033689847F0E77571FAE700BF00E01050DA
:102FE00020050020036803F01F027F2B02604FEAD8
:102FF00053129ABF024B53F822000020704700BFC3
:103000007C9A0000034A4309D35C00F01F00184477
:10301000C0B270475C9D000070B505460846FFF7DA
:10302000F1FF5A212A79174B01FB0202083233F8CB
:103030001200C10525D5B4240026C0F3432120F495
:10304000F85023F812002A7904FB02340E3434F8C5
:10305000020F10F4807F03D0C0F34320814210D0D0
:103060000136422EF3D1B4200024424302EBC102C8
:103070009C502A79BDE8704000FB02309C30FFF77D
:1030800049BE70BD28050020F0B58446002587B0F4
:10309000DFF848E0124F019102AE1EF8013B06AA8C
:1030A00002EBD30212F8144C03F00703DC4014F0D7
:1030B000010406D10135042DEFD10024204607B0CC
:1030C000F0BD97E80F0086E80F0056F82520136A38
:1030D0004CF825301362002BECD0EFE76C9D00001C
:1030E0005096000010B504460846FFF78BFF5A23A0
:1030F00003FB0400024B083033F81000400B10BDF6
:103100002805002010B504460846FFF77BFF5A2328
:1031100003FB0400034B083033F81000C0F34000F9
:1031200010BD00BF2805002010B504460846FFF773
:1031300069FF5A2303FB0400034B083033F81000E7
:10314000C0F3401010BD00BF28050020B4232DE9B6
:10315000F04F6F4C0E460C1BB4FBF3F4D0F8141375
:10316000DFF8B0B1C9B28DB041F400315BF8342062
:10317000009004F0F6FE8103054639D510220021A7
:10318000E70008A80BEBC40405F007FB636808A878
:1031900019460193FFF778FF3B1D03934FF0000A98
:1031A0005D4B0DF120090293029A12F8013B029245
:1031B000039A02EBD3021BF8022003F0070322FA62
:1031C00003F3DA071AD40AF1010ABAF1040F09F17C
:1031D0000409E9D14FF400310022009804F0C1FE47
:1031E000019908A8FFF750FF0028D7D125F4003532
:1031F0000124002D76D10DB0BDE8F08F474B53442C
:103200000493D9F800100029DDD091FAA1F1B1FAA8
:1032100081F1049B1C7841EA44142046FFF7F2FE3A
:10322000083036F81080C8084FEA98030593012348
:1032300019F8002001F0070103FA01F122EA010266
:1032400009F8002007A80794FFF7CCFE079A059B12
:10325000203250F82220C8F382075B07B846C2F339
:10326000014223D53046D7B22146424604F05AFEE9
:1032700007A80794FFF7B6FE079B203350F82330CA
:10328000C3F301439F4207D10021204604F03BFED7
:103290003946204604F037FE07A80794FFF7A2FE40
:1032A0000122079B02FA03F30362AAE7022A0DD167
:1032B0000321204604F027FE07F00503012BEBD184
:1032C00042462146304604F02DFEE5E70221204625
:1032D000059204F018FE032FF2D0059A032ADBD1E1
:1032E000022FECE795FAA5F3B3FA83F3009904FAF9
:1032F00003F225EA020503F5A27251F822205033A9
:10330000304636F81310C2F3014204F00BFE70E7AA
:10331000280500208C9A00006C9D00006C9D000028
:103320002DE9F74305460846FFF76CFE5A222B7934
:10333000204F02FB0303083337F813300E46DB0738
:10334000044635D5284604F033FE95F804903146FE
:103350004846FFF7E9FE60B14846FFF7C3FE00228A
:10336000D5F8008000B208EB8003C3F81025C3F83D
:10337000102528463146FFF74FFE5A222B7901A827
:1033800002FB03440023083427F814300196FFF7AA
:1033900029FE019B00EB8300D0F88020064B1340F0
:1033A00043F00203C0F88030044803B0BDE8F08366
:1033B0000348FAE728050020F0F0FCFF0000AD0B01
:1033C0000400AD0B2DE9F04F9046044685B0084649
:1033D000FFF718FED8F800900E4607462579B9F198
:1033E000000F23D02846FFF78DFE18B12846FFF7BF
:1033F0009BFE58BB00230DF10F02CDE900338DF881
:103400000E308DF80F300DF10E014B46304604F0B2
:1034100031FD5A2303FB05735D49083331F813204E
:1034200022F0020242F0010221F81320D8F8043001
:10343000002B3FD03146207993F80090D3F804A0B8
:10344000FFF760FE20B1BAF1000F26D0514835E0F9
:103450005A226A43DFF838E102EB070C0CF1080C42
:103460003EF81C3023F02003DB04DB0C2EF81C306C
:10347000BAF1000F11D0B9F1030FE7D8D8F8041052
:103480002068496891F800A000EB8A00B9F1000FAC
:1034900017D1C0F81095C0F810955A2303FB057595
:1034A0003B4A083532F8153023F01C0343EA890300
:1034B00022F81530D8F808305BBB374805B0BDE8B6
:1034C000F08FD0F810B552442BF0030BC0F810B5B4
:1034D000206843EA4A3300EB8A01D1F810055032E4
:1034E00020F4473020F47C70C1F8100541F6F070EC
:1034F000D1F810B500EA061040EA094040EA0B0096
:1035000043F02003C1F810052EF812602EF81C308D
:10351000C3E73146D3E900982046FFF77DFDB9F1B6
:10352000000FCAD0B4232079194D4343EA18EB5851
:10353000994504D15368984501D100210CE0B4238A
:1035400003FB00500DF10F019C30FFF7C3FB124B42
:103550009842B3D19DF80F10B4222379534303EB63
:10356000C10345F80390237953435A2203EBC10367
:103570002B44C3F80480237902FB0373083335F826
:10358000132042EA412242F4807225F8132094E786
:10359000280500200400AD0B0000AD0B2DE9FF470E
:1035A0000546084617461E46FFF72CFD8946044689
:1035B00087B395F804804046FFF7A4FD18B940464C
:1035C000FFF7B2FD68BB5A2303FB0848DFF8E4A00D
:1035D00008F108083AF8183013F01C0F02D07B7875
:1035E000012B1ED001238DF80F3000237A1CCDE96A
:1035F00000734846BB1C0DF10F0104F03BFC5A223E
:103600002B7902FB034308333AF8132042F00302FC
:103610002AF81320002E4BD049462879FFF772FD77
:1036200018B9254804B0BDE8F08700214FF05A0CC6
:1036300030782B68820003EB8003C3F81015C3F8C1
:1036400010152B791B490CFB0343083331F8137019
:1036500027F4604727F0200721F8137077783FB3ED
:103660002B68B6781A44D2F810E5144B3F040EEAE2
:103670000303C2F8103541F6F07307F4403703EA4C
:1036800009133605D2F810E53B4306F480163343A0
:1036900043EA0E03C2F810352B790CFB03440834BF
:1036A00031F8143043EA403343F0200321F814305A
:1036B0000348B7E7280500200400AD0B0FE0ECFF3E
:1036C0000000AD0B30B5B4250479044B05FB043480
:1036D000A160017905FB0133DA6030BD28050020C7
:1036E00070B5067914463046FFF71EFD68B10846EE
:1036F000FFF788FC5A2303FB0600054B083033F81C
:10370000103004485B0B237070BD0348FCE700BF1A
:10371000280500200000AD0B0400AD0BF8B50646EF
:103720000779B420194D00FB075393F8B0405CBBF8
:10373000184684222146103005F02FF83179144ABA
:10374000336852F8316021468E4213D10022C3F310
:103750000830C3F844210130D3F84421FEF702F8C1
:10376000B42303FB075501230A4885F8B030C5F898
:103770009C30F8BDCAB2920002F58070442A04BFA2
:103780001C501A580131DFE70348F2E728050020F2
:103790008C9A00000000AD0B0C00AD0BB421027937
:1037A000044B01FB023393F8B000003818BF01202E
:1037B000704700BF280500200079024B03EB800012
:1037C000FFF7A8BAF40000200079024B03EB800059
:1037D000FFF780BAF40000202DE9F74390F8049039
:1037E000044648461746FFF79FFC0D46266800B37F
:1037F0004846FFF787FC8046D8B94846FFF772FC79
:1038000005B2AD0005F5807246F802802168B25815
:103810002944D1F8102542F00102C1F810252FB13A
:103820000122216802FA00F3C1F8143303B0BDE8A5
:10383000F083D6F8143328469B035CBF4FF4003363
:10384000C6F81433FFF7DEFB5A22237902FB03008C
:103850000E4B083033F81030C3F38203042B11D021
:10386000052B11D001A80195FFF7BCFB019BC16896
:10387000D94001F001010231284603B0BDE8F04310
:1038800004F041BB0321F7E70221F5E728050020FA
:1038900001490248FFF75ABC2805002000A00D503E
:1038A00001490248FFF752BCDC05002000C010505F
:1038B00010B50024037A0D49CA181B0103F1A04377
:1038C00003F5622392F85420C3F82C450C2303FB24
:1038D00002130468DC6042681A610122007A1875DC
:1038E0008B68824013438B6010BD00BF40000020F6
:1038F000074B027AD3F8101521F001010A43C3F8EF
:1039000010250268C3F8A4264268C3F8AC267047A5
:1039100000200E50012303FA00F010F0670F0AD0C8
:10392000064B5B68DB4303F067030342044B054827
:1039300018BF184670470448704700BF4000002079
:103940000000AD0B0400AD0B0800AD0B2DE9F048F5
:10395000EFF31181202383F31288BFF36F8F4FF0B1
:10396000FF356FF04044094ED6E900BC5D4574EB6D
:103970000C07F9D3CCF31303C0E900B381F311882A
:10398000BFF36F8F0248BDE8F08800BF40270E509C
:103990000000AD0BF0B53C4D85B02C78002C6FD1FC
:1039A0003A4A01AB07CA83E8070039491846D1F8FB
:1039B000102522F00202C1F81025FFF799FF072316
:1039C000672202F001012144013BCCB24FEA5202CE
:1039D000F7D1052C56D119464FF0010C2A4E002480
:1039E0006720CFB204E00CFA02F220EA02000134B0
:1039F00090FAA0F25FFA84FEBE45B2FA82F2F2D3E8
:103A00000131327505292A4482F8547006F10C06FA
:103A1000E5D1012100241F489A0801FA02F212F0B0
:103A2000670F18BF1C500433302BF5D1E420FDF78D
:103A300099FE174B1849D3F8102503F5C07322F0EF
:103A40000202C3F8902340F6FF72C3F8A8210022B7
:103A50001A60A3F5807004338B420260F8D1012410
:103A60000B4B0E4A1C660E4B5D201B68B3FBF2F33A
:103A700058430C4B234398470B482C7005B0F0BDBE
:103A80000A48FBE70A48F9E740000020609600007A
:103A900000200E5000210E50B0210E5040420F0069
:103AA000F0000020809600000000AD0B0C00AD0B74
:103AB0000100AD0B73B52A4C054663680E4603F052
:103AC000010304F1140101A80193FFF703F9254B49
:103AD00098423DD100233370636823F00103636093
:103AE000A36843F00103A3601F4BD3F8102596078A
:103AF00032D4D3F8102542F00202C3F81025C5B124
:103B0000D3F8482712F0010202BFD3F8481741F05A
:103B10000101C3F84817144BD3F84017D3F84417E2
:103B20004C00F9D42AB9D3F8482722F00102C3F88F
:103B300048270E4B0E4A1B68B3FBF2F30A4A03EB0D
:103B400043135BB1D2F84017D2F84417490001D4AF
:103B500002B070BD013BF4E70648F9E70648F7E715
:103B6000400000200000AD0B00200E50F0000020AF
:103B700040420F000C00AD0B0700AD0B2DE9F041EA
:103B80000446007A1D46FFF7C5FE1E4B904698423C
:103B900006469DF8187031D12046FFF789FEEFF3F5
:103BA0001180202383F31288BFF36F8F227A164B84
:103BB0009200134400221A60217AC5F3130509010B
:103BC00001F1A04101F56221C1F82085C1F8245519
:103BD00080F31188BFF36F8F87B10123227A0B49DD
:103BE00003FA02F2D1E8EF5F1543C1E8E05F002875
:103BF000F8D1227A9340064AC2F824333046BDE811
:103C0000F08100BF0000AD0B00210E50C800002065
:103C100000200E50F7B5284B284CD3F82C6304F144
:103C200088070EB903B0F0BD96FAA6F00123B0FAEA
:103C300080F08340DA43224926EA0306231893F8EA
:103C40005450830019440C2303FB0543DB6873B312
:103C5000D7E8EF3F03EA020CC7E8EECFBEF1000F52
:103C6000F6D1C340DB0719D5020102F1A04202F5EB
:103C70006222D2F82435D2F82025D1F800C0BCF158
:103C8000000FCED04FF0000CC1F800C00C2101FB9A
:103C9000054529690091E9688847C2E705F10C03E9
:103CA00004EBC30C54F83320DCF80430E5E70A6871
:103CB000002AB6D00B60B4E700200E504000002070
:103CC00000210E50044B40EA0120C3F80005D3F850
:103CD0000024D207FBD5704700E0045010B4CC7B21
:103CE0008A6803682CB9D1E90041C3F80046C3F8DB
:103CF0000416C3F82425282203795343054AD358D0
:103D00002BB1006810BCC0F30830FDF72BBD10BC10
:103D1000704700BF900600207F2800F01F034FEA85
:103D200050110DD8094A52F8212002EB8302D2F833
:103D30008010074B0B4043F00203C2F880307047FD
:103D40000022203352F82330FFDE00BF9C9A00008F
:103D5000F0F0FCFF70B5817B29BB02687F2A02F07E
:103D60001F034FEA521420D8124E134D56F8242048
:103D700040F60C0402EB8302D2F880302B40234340
:103D8000C2F8803042687F2A02F01F034FEA5210C7
:103D90000BD856F8202002EB8302D2F880302B405B
:103DA0002343C2F88030012070BD203351F8233006
:103DB000FFDE00BF9C9A0000F0F0FCFF2DE9F0410F
:103DC000074690F80480282000FB08F0144E0C46AB
:103DD000351895F82210F1B9A96032506B6085F85A
:103DE000251085F824106CB1A37B204685F8273078
:103DF000FFF7B0FF88B1637B2146384685F826304F
:103E0000FFF76CFF282303FB08660123054886F8AB
:103E10002230BDE8F0810448FBE70448F9E700BF21
:103E2000900600200000AD0B0C00AD0B0400AD0BA4
:103E3000062103680279C3F800152821034B01FB12
:103E40000233022283F82220704700BF9006002030
:103E5000282110B5002402790B4B01FB02339C6032
:103E600001680A4AC1F80823D1F8002222F0FF5263
:103E700022F4BC52C1F800220122C1F8004583F8A7
:103E8000222083F8244010BD900600202264F81FF1
:103E900070B5044606790068104DC0F30830FDF790
:103EA0006FFC2046FFF7D4FF282303FB065393F84B
:103EB000272062B993F826304BB92368D3F800065F
:103EC000D3F80446FFF728FF2046FFF725FF2823F5
:103ED00003FB0655002385F8223070BD90060020B4
:103EE00028232DE9F74F9246002290F80490B84D10
:103EF000046803FB095383F823204B680E4633B153
:103F0000CB6803F06043B3F1005F40F07E8133780B
:103F1000023B012B06D8336903F06043B3F1005F25
:103F200040F073811AF0030F40F07181A94BC4F87F
:103F30000833282303FB095393F8242002F0FF01E0
:103F40003AB19B68A44FC4F80433384603B0BDE8C7
:103F5000F08F1AF0140F0CBF0122002283F82420E6
:103F6000327809EB890883F82020727805EBC808BD
:103F700083F82120F268DA6072681A6132695A6146
:103F8000B268C3F81CA09A61CAF3001283F8252016
:103F90007378C4F88835C4F83811D4F83831C4F8C7
:103FA0002811D4F82831C4F81411D4F81431C4F805
:103FB0000411D4F804313378032B00F2A280DFE837
:103FC00003F0779760024FF48073C4F80032D8E9A9
:103FD0000323C4F83C27C4F84037012323654FF07E
:103FE0000061204604F052F80028F8D1D8E90523F2
:103FF000C4F83C27C4F8403728234FF4806203FB01
:1040000009539A60754F282303FB09F3E858E91810
:104010001AF0080313D13278032A10D0012A40F095
:104020008580A26200286ED0282303FB09F3726802
:10403000EB5822B9002B00F0AE80012363602823E7
:1040400003FB09F3EA18EB58002B00F0A4801AF0E8
:10405000040F1CBF002393601AF0400F06D12823E1
:1040600003FB09539A6842F002029A60282303FB7B
:1040700009539A6842F020029A609B68C4F804339E
:1040800063E7D8E90323C4F83C27C4F84037D8E9EC
:104090000523C4F80427C4F808374FF48453C4F840
:1040A0000032012323612823022203FB0953A8E7DE
:1040B0001AF0200FD8E90323C4F83C2714BF4FF4AB
:1040C00080724FF40072C4F840374FF0280315BFD8
:1040D000C4F80022C4F800224FF48062022214BF08
:1040E00003FB095303FB09539A600123236189E70A
:1040F000D8E90323C4F80427C4F808374FF48053E1
:10410000CDE7374F7FE70B6903B9626040F2024B9E
:1041100040F22241204603F0B9FF012310F0200FA6
:1041200018BF636010EA0B0FF2D07DE70122226511
:1041300000287FF479AF096931B340F2024B13EAEA
:104140000B0F7FF471AF40F22241204603F09EFF37
:1041500081060346F3D501904FF48041204603F0D9
:1041600095FFD4F8002288B112F40071019B03D1AD
:104170000123236163600B46D205E0D54FF48061D3
:10418000204603F083FF04E06260D6E70123236149
:1041900063600023D3E7282202FB09550022D4F8EC
:1041A000C434C4F8C43485F824200BB30D4A13F08A
:1041B000010F0D4F18BF174613F0020F02F1010255
:1041C00018BF174613F0040F084B18BF1F46BCE674
:1041D000900600202264F81F0B00AD0B0000AD0B11
:1041E0000400AD0B0000AE0B0100AD0B0200AE0BE6
:1041F0001AF0400F7FF4A9AE4146204603F004FFB9
:10420000044B002808BF1F469FE6034F9DE6034F5F
:104210009BE600BF0100AD0B0A00AD0B0300AD0B28
:1042200070B55B4D022186B0284603F02FFF202198
:104230000646284603F02AFF564CD8B1E6B9A368D3
:104240004FF48041C5F808330223A360A3682846D1
:10425000C5F8043303F01AFF18B1D5F800329B05F6
:1042600003D401224A4B1A615A60012384F8233097
:1042700006B070BD002E57D0E5696E060AD494F8DA
:1042800023303BB94349424803F0BEFE80F00100B1
:1042900084F8230015F0040524D13D4B94F8252023
:1042A000C3F83851D3F83811C3F83451D3F8341166
:1042B00012B194F8232052B10022C3F80022A26068
:1042C000354AC3F808238022344BC3F89821238C45
:1042D000ADF80430E368049323690293636905939E
:1042E000A36903932A4AD2F8C4349807C2F8C434A5
:1042F00047D4590747D4DA0747D494F823309B00B2
:10430000DBB28DF8003094F825300BB984F82430F6
:10431000E3695B0703D594F82330002BA8D0D4E9D8
:10432000003168469847A3E74FF48061284603F0C0
:10433000ADFE94F82030A3B994F825304BB9802213
:10434000C5F80032A360144BC5F80833134BC3F80B
:10435000982100238DF8043094F821308DF8053031
:10436000B8E74FF40073C5F800322223A3600A4B6C
:10437000C5F80833A368C5F8043301232B652B6106
:1043800076E70123BDE70223BBE70323B9E700BFBC
:1043900000700C50900600202264F81F00E100E03D
:1043A000036803F01F027F2B02604FEA53129ABF8B
:1043B000024B53F822000020704700BFAC9A000067
:1043C000F7B5064603F08CFE084603F089FE01A807
:1043D0000196FFF7E5FF0C4640F60D01019B2B4DC2
:1043E00000EB8300D0F8803001942B400B43C0F8E1
:1043F000803001A8FFF7D4FF019B012700EB830069
:10440000D0F880302B400B43C0F88030042003F0FC
:104410002DFD092501A80194FFF7C2FF019AC36889
:10442000D340DB0714D401A80196FFF7B9FF019B25
:10443000013D07FA03F38360042003F017FD3046C3
:1044400003F04EFE042003F011FD15F0FF05E1D14D
:1044500001A80194FFF7A4FF0123019A9340836010
:10446000042003F003FD204603F03AFE042003F08D
:10447000FDFC01A80194FFF793FF019AC36804486B
:10448000D34003F00103C01A03B0F0BDF0F0FCFF0D
:104490000100AD0B38B5EFF31185202383F31288AB
:1044A000BFF36F8F064B9C6803F03EFE85F31188C7
:1044B000BFF36F8F2046BDE83840FDF7F7B800BF67
:1044C000B806002038B50A4B53F82040013053F8A5
:1044D0002050A54200D838BD606830B1037FDB07AB
:1044E00001D403F024FE0834F3E723689847FAE781
:1044F000BC9A0000012270B5294B032086B01A70C7
:10450000FFF7E0FFFCF7DCFE0420FFF7DBFF254CA4
:10451000254D2646AE4204F1300410D300F0F6FBE0
:10452000204C224EAC4226D300F004FCFCF704FDE4
:104530001F4A137B23F00103137306B070BD54F8B8
:104540000C3C059354F8103C049354F8143C03932A
:1045500054F8183C029354F81C3C019354F8203C46
:10456000009354E90A2354E90C0100F0EDF954F8E2
:10457000303C5E65CDE7D4E90A23B3F1FF3F08BFC5
:10458000B2F1FF3F05D052EA0301206803D100F0E9
:10459000BBFC3034C6E73146183000F04BFEF8E77C
:1045A000F70C0020B0950000B09500009582000047
:1045B0006002002008B50348034A0021121A03F0E4
:1045C000CDFD08BDC0010020FC0C0020902370B57B
:1045D000134E012203FB0066002386B0CDE90423BD
:1045E0000F220193CDE9023214234FF4A0720D4D36
:1045F0000D4903FB0055044602FB00110B4B3046EE
:10460000009500F0A1F9737B2C7423F004037373FD
:10461000074B013403EBC423EE606B6006B070BD42
:10462000D0010020B80600200015002065810000A0
:10463000000D0020BFB50020FFF744FF294B03F514
:10464000006282F3088883F30A880024E023264D61
:10465000264F85F82230EC772C766C76AC7685F890
:1046600020406B6A43F4E0236B6285F82340FCF73B
:104670009BFFFDF71BF94FF0FF33AB62EB62FDF7D9
:10468000A3FAFDF739F91A4800F09EF903F038FD56
:104690000120FFF717FF0220164DFFF713FF00F070
:1046A0007DFB154B15495D61154B4FF480620593F9
:1046B00001232846CDE90343CDE901443B4600945C
:1046C00000F042F906466A7B284622F004026A732B
:1046D00003F0AEFD2046FFF779FF3A463146284603
:1046E000FDF7C4F8000D002000ED00E0F5440000E7
:1046F000F002002060020020B806002040160020D2
:10470000709D00002DE9F341044617461E46EFF365
:104710001188202383F31288BFF36F8FC368334A55
:104720007BB180689168884219D057EA060318D196
:1047300088F31188BFF36F8F6FF00F0002B0BDE8F0
:10474000F081916891F90E100133E3609368216163
:10475000A36088F31188BFF36F8F0020EEE7216913
:10476000F2E791F90E1090F90E306FF07E02994247
:10477000A8BF19469142B8BF11468B422DDD03F008
:10478000FCFC054622464146CDE90076184800F07B
:1047900003FA0028E1D0EFF31186202383F3128877
:1047A000BFF36F8FA068D0B1236821699C420AD003
:1047B0004BB193F90E309942A8BF19466FF07E03B2
:1047C0009942B8BF194603F0D8FC40B131460848B9
:1047D00000F076FA6FF00A00B0E70025D2E7002D6E
:1047E000F4D186F31188BFF36F8FF3E7B80600208A
:1047F000F80C0020F8B583680546002B40D0234A0A
:10480000926893423FD1C368012B03D9013BC36037
:104810000020F8BDEFF31187202383F31288BFF344
:104820006F8F0169806803F0A8FC2C68A54207D14E
:104830000023C5E9023387F31188BFF36F8FE7E7E1
:10484000002CF5D0D4E90032002613605A60637B57
:10485000C4E9006623F002036373A66004F1180044
:1048600003F055FDAC6094F90E3020462B61C4F87E
:10487000886003F0DDFC3946054800F021FAC7E7FF
:104880006FF01500C5E74FF0FF30C2E7B806002013
:10489000F80C002070B5EFF31186202383F3128803
:1048A000BFF36F8F0468A0421BD0D4B1D4E90032AB
:1048B000002513605A60637BC4E9005523F00203AE
:1048C0006373A56004F1180003F021FD2046C4F8CD
:1048D000885003F0ADFC3146BDE87040064800F05A
:1048E000EFB9D0E902329A4218BF0133836086F3F0
:1048F0001188BFF36F8F70BDF80C002013B5EFF374
:104900001181202484F31288BFF36F8F846844B12F
:10491000013C846081F31188BFF36F8F002002B0E7
:1049200010BD52EA030406D181F31188BFF36F8FE3
:104930006FF00F00F3E7CDE900230246014800F0D5
:104940002BF9ECE7F80C00202DE9F043984685B0F0
:1049500000F15803C0E91633109B002503730423AC
:10496000073222F0070643730F9B01EB06090F463F
:1049700083734946C0E906558560C5730446FCF754
:10498000B1FC0E9B073020F00700A067C4E91C763D
:1049900002930D9BA9EB000901930C9B4A460093DF
:1049A000394643462046FCF745FF064B65659B6844
:1049B00084F86C5003B1DB6F4846E36705B0BDE88F
:1049C000F08300BFB806002040F20113838100236A
:1049D000C0E91C33C367014B98607047B8060020DC
:1049E0006FF00A01094A9368C3F888100849C3F8B0
:1049F00084004B6843F080534B60002383F311889D
:104A0000BFF36F8F9368D3F888007047B806002013
:104A100000ED00E070B590F90D20437B002A36DBF5
:104A2000D90634D11B4C63F07F032246437352F8FE
:104A3000183FE169934207D1C0E900210860E061B5
:104A400011E09942F8D01B68002BF5D090F90E5078
:104A500093F90E60B542F4D0AE42F2DD5968C0E978
:104A6000003108605860A569954200D005B9E56835
:104A7000A3685A7BD20604D1DA897F2A01D9AA69B0
:104A800032B1AB4202D0284600F032FB656170BD06
:104A90006361FCE7B806002038B590F90D200146A7
:104AA000002A437B04DA03F07F03437303F086FBA1
:104AB0000D4D2A4652F8184FAB68944200D004B905
:104AC000EC688B4207D05A7BD20604D1DA897F2A60
:104AD00001D9A2692AB1A34202D0204600F008FB06
:104AE00023466B6138BD00BFB8060020B3F1FF3F1D
:104AF00008BFB2F1FF3F03D00249183000F09ABB63
:104B0000704700BF9582000070B590F90D200146F6
:104B1000002A437B04DA03F07F03437303F04EFB68
:104B20001C4C4B7B224663F07F034B7352F8183FBB
:104B3000E069934207D1C1E900200160E16111E021
:104B40009842F8D01B68002BF5D091F90E5093F9DC
:104B50000E60B542F4D0AE42F2DD5868C1E90030D3
:104B600001605960A569A368954200D005B9E56860
:104B70008B4207D05A7BD20604D1DA897F2A01D929
:104B8000AA692AB1AB4202D0284600F0B1FA2B46FE
:104B9000636170BDB8060020F8B5DDE906670D4B0E
:104BA0000C46986811460C4A1060EFF311822022DF
:104BB00082F31288BFF36F8F9D68284603F010FBC5
:104BC000284632463B46FFF791FF2046BDE8F840B5
:104BD000FFF706BFB8060020D8060020F8B5044647
:104BE000EFF31187202383F31288BFF36F8F437B8A
:104BF00049B203F01F02002A0CBF0126002639D15A
:104C000003F07F032D4D437303F0D8FA2A46437B0C
:104C1000817363F07F03437352F8183F934227D1A7
:104C2000E869C4E900200460EC610FE09842F8D024
:104C30001B68002BF5D093F90EC06145F6D08C456A
:104C4000F4DD5968C4E900310C605C60AC699442E1
:104C500000D004B9EC68AB689C4202D0204600F05A
:104C600047FA6C6187F31188BFF36F8F3046F8BD48
:104C7000E869DEE79B071ED5856803F09FFA81731C
:104C80002B689D4209D16B68C4E900531C606C60BD
:104C9000E8E76A689342F6D01B68002BF3D093F9DB
:104CA0000E209142F5D08A42F3DD5A68C4E9003201
:104CB00014605C60D6E78173D4E700BFB8060020BB
:104CC00049B9EFF3058030B9054B5A699B689A42A0
:104CD00001D0FFF785BE81F31188BFF36F8F704756
:104CE000B8060020034648B9EFF3058232B9064AF8
:104CF00051699268914201D0FFF772BE83F3118827
:104D0000BFF36F8F704700BFB8060020EFF311812B
:104D1000202383F31288BFF36F8F054B9A68D37BF0
:104D2000013BD37381F31188BFF36F8F704700BFCE
:104D3000B806002070B5EFF31186202383F31288A4
:104D4000BFF36F8F144DAB68DA7B0132DA732A46FA
:104D500052F8184F944200D004B9EC685A7BD2063E
:104D600004D1DA897F2A01D9A2692AB1A34202D0EB
:104D7000204600F0BDF923466B6186F31188BFF32E
:104D80006F8FEFF31180202383F31288BFF36F8FAF
:104D9000BDE87040FFF7A6BFB8060020024B03F144
:104DA0001802C3E906227047B806002070B5EFF379
:104DB0001186202383F31288BFF36F8F1B4CA168E9
:104DC000E0690B68814214BF1A46002249680B60F3
:104DD0005960A368E1692AB9154AC3E900210B604B
:104DE000E3610CE093F90E0092F90E50A84218D03E
:104DF000854216DD5168C3E900210B605360A56947
:104E00000B4B9D4200D005B9E568A3689D4202D0D6
:104E1000284600F06DF965613046BDE87040FFF747
:104E2000DFBD8A42D8D01268D5E700BFB80600209F
:104E3000D0060020F8B550EA010306460C4603D11F
:104E4000FFF7B4FF0020F8BDEFF31187202383F3B1
:104E50001288BFF36F8F124D124BA8681860FFF7CE
:104E60001BFEA868234632460F49183000F0E2F9CD
:104E7000AA680446537B384643F004035373FFF794
:104E8000AFFDAB68D3E90A23B3F1004F08BF002A96
:104E9000D8D103F064FA201A20EAE070D3E700BF0B
:104EA000B8060020D80600209582000038B50446D8
:104EB0000D46FFF7BFFFB5F1FF3F08BFB4F1FF3F5D
:104EC0000246204618D000234FF47A7447F611208A
:104ED0001946C2FB040147F61222904271F100020A
:104EE0000BD3084B834243F608538B4107D347F655
:104EF00012220023FBF7B6FE38BD1846FCE76FF020
:104F00000040F9E7ED85FFFF38B50446EFF3118562
:104F1000202383F31288BFF36F8F437B5B070FD58A
:104F2000183003F0F4F9637B204623F00403637325
:104F3000FFF770FD2946BDE838400448FFF7C0BEC2
:104F400085F31188BFF36F8F38BD00BFF80C0020C8
:104F5000014B9868704700BFB80600202DE9F84360
:104F60000446077BEFF31185202383F31288BFF3F8
:104F70006F8F437B190705D585F31188BFF36F8FBA
:104F8000BDE8F883D90943F008025AD14273A368F7
:104F900013B1204603F01AF904F1180003F0B7F931
:104FA000A66D04F15808B04511D04FF0000976B154
:104FB000304603F00BF906F1180003F0A8F930466B
:104FC000C6F88890FFF726FDA66DB045EFD1DFF853
:104FD000B880D8F808309C423BD1EFF30589B9F18D
:104FE000000918BF4FF00109D8F81860274A964207
:104FF00000D00EB9D8F80C60B34202D0304600F0B1
:1050000077F8C8F81460B9F1000F02D02048FFF714
:10501000DBFCD8F808309C4231D1EFF3058373BB39
:10502000227BD20718D42846FFF7DAFCFB07A7D566
:10503000002383F31188BFF36F8F0423184602DF28
:105040009EE703F07F0343F00803437303F0B6F8D1
:105050009DE74FF00009C7E785F31188BFF36F8F15
:1050600083F31188BFF36F8F0423184602DFEFF339
:105070001180202383F31288BFF36F8FD4E785F369
:105080001188BFF36F8FD1E7B8060020D00600204B
:10509000F00200200122044BC01A044BC0105843F8
:1050A000034B1A54704700BF80030020ABAAAAAA82
:1050B000F80C0020C3897F2B12D80A4B1B6863B100
:1050C000094B90F90E201B689A4209DB437BDB06F3
:1050D00006D1064BC31A18BF012303F00100704725
:1050E0000023FAE7FC000020DC060020D0010020AD
:1050F00070B50E4B0E4C1E7C054606EB460304EBCA
:10510000C304204603F003F900220A4B28469A55AF
:10511000FFF7D0FF48B1084B2046BDE870401A6841
:105120000649013AD31700F085B870BDB8060020D3
:1051300080030020F80C0020FC00002095500000A7
:1051400038B5EFF31185202383F31288BFF36F8FF7
:10515000104B114A9C681068A04206D1FFF7C8FFA7
:1051600085F31188BFF36F8F38BD00211B7C116060
:105170000A4AD35C002BF3D02046FFF79BFF0028A0
:10518000EED0637BDB0602D12046FFF7BDFC204654
:10519000E4E700BFB8060020D8060020F80C002085
:1051A000074808B5074A0849121A02F0D9FFBDE8B6
:1051B00008400648064A0749121A02F0D1BF00BF4C
:1051C00040000020BC010020849D00004000002021
:1051D00040000020849D0000024B1868984208BFE0
:1051E0000020704700010020034B1B680BB9FDF73E
:1051F000DFBC0020704700BFE006002030B570B172
:105200000B4B5B6898420AD0036843B1D3E9042191
:10521000D0E90445121941EB0501C3E90421D0E9A5
:10522000003213605A600023C0E9003330BD00BF74
:1052300000010020B3F1FF3F08BFB2F1FF3F2DE9AD
:10524000F84F0446994615461F467BD08160EFF320
:105250001188202383F31288BFF36F8F013279F115
:10526000FF33DFF8E8A020DBFFF7BEFFDAE9002715
:10527000013549F100092D1849EBE07306464FF05E
:105280000109C4E90453AD1843EB0707FFF7A4FF76
:105290000346DFF8BCE0DEF804A0EBB9C4E900EA9D
:1052A000CAF80040CEF8044028E06FF00103DAE9C4
:1052B00000125B1A4FF0FF3161EB02025B1B62EBE5
:1052C0000902012B72F10001BCBF012300224FF043
:1052D0000009C0E90432D9E7D3E9041CD4E9042069
:1052E0008A4270EB0C0B24DA891A5A686CEB0000C6
:1052F000C3E90410C4E9003214605C60FFF76CFF7E
:1053000084420ED1134B1B685BB9B9F1000F02D177
:10531000FFF76AFF0646304602F0E2FF0021FDF784
:1053200057FC88F31188BFF36F8F28463946BDE8D4
:10533000F88F521A60EB0C009A45C4E90420ADD0F6
:105340001B68AAE700252F46EFE700BF980300205F
:1053500000010020E00600202DE9F047EFF3118561
:10536000202383F31288BFF36F8FDFF8A09000260D
:10537000C9F800000027FFF72FFFDFF89480D9F865
:105380000030D8E900ECD91750B1D0E90442A3426B
:1053900071EB020A1BDAE41A62EB0102C0E9044273
:1053A000002413EB0E034CEB01012046C8E9003149
:1053B000C9F8004002F094FF2146FDF709FC85F38F
:1053C0001188BFF36F8FBDE8F047FFF7B9BE14EB4C
:1053D0000E024CEBE473C0E90467C8E90023FFF751
:1053E0000DFF85F31188BFF36F8F83689847EFF344
:1053F0001185202383F31288BFF36F8FD9F8003013
:105400001B1BC9F80030FFF7E7FEB8E7E0060020F5
:105410009803002010B5EFF31184202383F3128842
:10542000BFF36F8FFFF7E0FE0346054AD2E90001A4
:10543000181841EBE37184F31188BFF36F8F10BD2F
:1054400098030020F8B50D4E0D4C0E4D33680E48F4
:10545000984767782B680C48984733680B489847FB
:10546000022F08D12478E31F5C425C412B68074877
:1054700098472046F8BD0024F8E700BF2C01002023
:10548000E406002028010020900100207C0100207B
:1054900070B51D4E1D4C33681D4898472378590739
:1054A00044BF23F00403237023789A0705D500F046
:1054B000C1F8237823F002032370164D14482B689B
:1054C0009847336814489847637813B1134802F03B
:1054D00077FF002304211148637000F0CBF82B689C
:1054E0000D48984733680A4898472378DB0705D565
:1054F00002F063FF237823F0010323702B68044834
:10550000BDE87040184700BF2C010020E4060020D1
:105510007C0100202801002090010020E8060020E6
:105520002DE9F041FFF78EFF18B100242046BDE8B9
:10553000F081364F36483B689847044620B16FF0FB
:105540008F04FFF7A5FFF1E7324D2B78D80706D47B
:1055500002F031FF04462B7843F001032B702E4EEE
:105560002B483368984710B1002CE8D0E9E7002CAD
:10557000E7D13B682648984704460028DFD12B78BE
:10558000990706D400F04EF804462B7843F0020346
:105590002B7033681E4898470028E5D1002CD0D1E5
:1055A0003B681B4898470028C9D13368184895F8CC
:1055B000008098470028C2D13B68184898470446A5
:1055C0000028BCD16B7843B918F0010F05D01448FE
:1055D00002F0F4FE022304466B7033680F489847CC
:1055E0000028C1D1002CACD13B680948984700285D
:1055F000A5D12B7806485A075CBF43F004032B70F3
:1056000033689847002890D099E700BF2C0100200C
:105610007C010020E40600202801002090010020E9
:10562000E80600200122024B002083F88025704705
:10563000EC0600202DE9F0410A4C002526464FF0EB
:10564000010803272046C4F820802777013502F09F
:1056500095FE202D04F12C04F4D1002386F880352A
:10566000BDE8F081EC060020014B1B68184700BF25
:105670000801002010B50A46044619B1024B00216A
:105680001B68984710BD00BF0C01002010B50C4CE2
:10569000206802F0F1FF0B4A1368591C11604BB9E6
:1056A000094A5920D2F8003443F00703C2F8003405
:1056B000FCF758F82068BDE8104002F0E3BF00BFD7
:1056C00014010020700C00200090055038B5164DD4
:1056D000286802F0D1FF154B1C68013C1C60ECB936
:1056E0005920FCF74DF80722114BC3F80823D3F8D3
:1056F000002422F00702C3F80024C3F80041D3F8C5
:105700000021C3F80441D3F804214FF00072C3F81C
:105710000841D3F80831074BC3F888212868BDE851
:10572000384002F0AFBF00BF14010020700C002011
:105730000090055000E100E070B50D4D0D4E2B6856
:10574000B34202D10024204670BDFFF79FFF00F056
:105750007BFA00F0B7FA40B102F03FFE0446FFF7D3
:10576000B5FF002CEFD12E60ECE700F0B9F9F5E7BA
:1057700010010020117365000022074BC3F81021AF
:10578000C3F80C21C3F80021C3F80421C3F8082191
:10579000C3F81821704700BF0090045008B5FFF708
:1057A000EBFF01230360104B0A6832B9D3F80C21D8
:1057B0001AB9D3F80821002AF6D00B687BB90B4B35
:1057C00099420ED0A3F58473D3F80831002B0CBF97
:1057D0004FF0FF306FF00200FFF7CEFF08BD002052
:1057E000FAE74FF0FF30F7E70090045008910450BB
:1057F00038B505460C4691B10021012002F001FCAC
:1058000008480949C0F80055C0F80445FFF7C6FF2D
:1058100000210446084602F0F4FB204638BD6FF034
:105820000104FAE7009004500091045010B50446BA
:105830000021012002F0E5FB064B0749C3F80045B3
:105840000648FFF7ABFF00210446084602F0D9FBEB
:10585000204610BD00900450089104500890045058
:1058600038B50C4659B1074D0749C5F8000507483A
:10587000FFF794FF10B9D5F80835236038BD6FF0F5
:105880000100FBE700900450109104500C9004506C
:105890002DE9F04F89B006460F4690461D4602F0AE
:1058A00054FE044678B973690090C3F3013262F381
:1058B00005148DF8004014F0300408D1B168890750
:1058C00010D06FF08604204609B0BDE8F08F102C90
:1058D00008D1BDF8023023F4F87343F4A873ADF88F
:1058E00002304EE0DBB2F82B02D06FF08504EAE71D
:1058F00000234FF0010B9E4619461846D6F808C003
:10590000DFF8CC9159F804AB1CEA0A0F08D00BFA67
:1059100000F343EA0E0303F07F0E012341EA0A017C
:1059200001300728EED12BB19DF803306EF3470309
:105930008DF803303CEA0101D7D17388FF2B35D0B5
:1059400005D8802B34D0C02BCFD1022303E0B3F590
:10595000807FCAD104239DF8021063F306118DF8ED
:10596000021014B91CF0030FABD13379022B2BD0EA
:1059700020D8012BA5D1BDF8021063F3C811ADF8F2
:105980000210012A6FD0032A23D0002A99D133882C
:10599000B3F5105FA9D1182D6DD0202D70D0102D2A
:1059A0008FD1DFF830A101251F261AE00323D2E7AB
:1059B0000123D0E7032B01D0FF2B82D10221BDF8B8
:1059C000023061F3C8138AE7BDF8023043F4C073B4
:1059D00085E7412D3DD104254F26DFF8FCA008F1D5
:1059E00001080024381902F084FD00286CD001342D
:1059F000AC42F7D11F2E07D02946384602F08DFD64
:105A0000044600287FF45FAF009B4FF0FF390793F7
:105A100000239B46CDF818A0BDF802204344C2F3F2
:105A2000C112059201AC03F1100C224618685968A6
:105A3000083303C263451446F7D101A907EB0B00F5
:105A4000FFF7D6FE044630B302F07FFD6FF09204FC
:105A500039E7182D19D0202D1AD0102D7FF431AF31
:105A6000DFF874A09FE7302D7FF42BAF03253F268E
:105A7000DFF868A0B5E7DFF85CA002252726B0E7CD
:105A8000DFF850A002252F26ABE7DFF84CA0F4E7A3
:105A9000DFF844A0F6E71C2101A80BF1010B02F08E
:105AA0001CFDAB4506D00AEB0B12CDE906294FEAE7
:105AB0000B13B1E71F2E3FF406AFFA20FFF7B6FE37
:105AC00000283FF400AFC1E76FF08A04FBE600BF97
:105AD000D49A000000FF0720000000201094055019
:105AE00010B590B01C22002101A802F056FEF8204B
:105AF00002F0FFFC08B3202200200DEB020100F0B1
:105B000089F90446F8B901A84FF4807102F0FBFC52
:105B10000E4B0F4904930F4BCDE901130E4BF821A7
:105B2000069320230DEB0302FFF7B2FE202104466B
:105B30000DEB010002F0D1FC05E0F92002F0D9FCE8
:105B40000028D8D10446204610B010BD0010C00473
:105B500000240001014B4E80F800FF7F10B5044681
:105B6000FFF794FD104B186802F086FD0CB101237D
:105B70002370BFF35F8F00220C4BDA61BFF35F8F9E
:105B8000BFF35F8F4FF0FF321A63BFF35F8FBFF336
:105B90005F8F3422DA61BFF35F8F012203F5922316
:105BA000C3F8042310BD00BF1801002000000150FD
:105BB00010B5044638B9FFF789FDBDE81040074B22
:105BC000186802F05FBD03783BB1FFF77FFD034B20
:105BD000186802F057FD0023237010BD1801002043
:105BE00038B5154CD4F80051BDB1BFF35F8F134BDE
:105BF000996ABFF35F8FBFF35F8F4FF0FF321A6375
:105C0000BFF35F8F0023C4F80031D4F800310C4B90
:105C10001868BDE8384002F048BDD4F8083153B1E7
:105C200000F06EF802F0B4FCC4F80851D4F8083162
:105C30000121044BECE738BD0090055000000150F5
:105C4000200100201C01002008B5074B186802F055
:105C50001BFD064B186802F017FDBDE80840002246
:105C600059201146FBF7AEBD200100201C01002089
:105C700038B5094B1C7864B1084B4FF0FF311D68F3
:105C8000284602F003FD4FF0FF310446284602F09B
:105C90000AFD204638BD00BFF70C0020200100207F
:105CA00010B5064C236D3BB9214651F8503B98691D
:105CB00002F07BFC01232365014810BD740C002019
:105CC000C40C002038B500240B4D0C4BEC662B6047
:105CD00003F5C0436B60FFF7E3FF50B16B6D2046E7
:105CE000B3F5007FCCBF4FF480634FF40073AB601B
:105CF00038BD0E20FCE700BF740C002000200150CE
:105D000000487047740C00204FF480732DE9F04771
:105D100096B0804603A80393002402F071FC4FF074
:105D200010091E4E0DF12F0525F01F0506F1200A62
:105D3000012210211A4802F0BBFB2B190093524696
:105D4000102320211548CDF8049000F0EDF8074607
:105D5000F8B9D6E90C321034013342F10002302C8C
:105D6000C6E90C32E4D1B8F1000F04D02246414616
:105D7000284602F090FB2E46084C0FCE0FC496E842
:105D80000F00203584E80F0095E80F00103484E8F8
:105D90000F00384616B0BDE8F08700BFA003002012
:105DA000C0030020F0B5184D184FAB6B8DB0BB424F
:105DB00028D0174E306802F05FFC402300221946BD
:105DC000284602F07FFB684602F027FC044678B9BB
:105DD0006846FFF799FF044690B9302302461946FA
:105DE000684602F06FFB01220023C5E90C23AF6374
:105DF000306802F047FC204602F0EFFA0DB0F0BD2B
:105E00000E24F5E70020F9E7A0030020B4A5B4A50F
:105E1000240100202DE9F04F99B00DF1570802F14F
:105E20000F0982460E46144628F01F084FEA19193A
:105E300022B100296ED0B2F5005F6BD8374F384DD4
:105E4000386802F019FCD5E90C3213430BD15046E7
:105E5000FFF7A8FF834630B1386802F013FC5846BC
:105E600019B0BDE8F08FD5E90C2319EB020943F115
:105E70000003B9F5803F73F1000313D302A802F0C9
:105E8000CCFBE8B902A8FFF73FFF83460028E3D127
:105E900030230246194602A802F014FB0022002318
:105EA000C5E90C234FF4807302A8029302F0A8FB0B
:105EB000DFF870A03CB92046FFF726FF8346CBE70A
:105EC0006FF0920BC8E7102C4FF001024FF0100159
:105ED0005046A14628BF4FF0100902F0E9FA1023FE
:105EE00052462021CDE900830D4800F01DF883467D
:105EF0000028B1D14A463046414602F041FCD5E97E
:105F00000C32013342F10002C5E90C32A4EB090462
:105F10004E44CFE76FF0860BA1E700BF24010020BD
