:10000000301A00208D150000A9820000791500002B
:1000100079150000791500007915000079150000A8
:100020000000000000000000000000000D170000AC
:100030007915000000000000A516000079150000E9
:10004000C1180000C1180000C1180000C11800004C
:10005000C1180000C1180000C1180000C11800003C
:10006000C1180000C1180000C1180000C11800002C
:10007000C1180000C1180000C1180000C11800001C
:1004800081F0004102E000BF83F0004330B54FEA45
:1004900041044FEA430594EA050F08BF90EA020FB2
:1004A0001FBF54EA000C55EA020C7FEA645C7FEA45
:1004B000655C00F0E2804FEA5454D4EB5555B8BF68
:1004C0006D420CDD2C4480EA020281EA030382EAD9
:1004D000000083EA010180EA020281EA0303362D6B
:1004E00088BF30BD11F0004F4FEA01314FF4801C3E
:1004F0004CEA113102D0404261EB410113F0004F50
:100500004FEA03334CEA133302D0524263EB430306
:1005100094EA050F00F0A780A4F10104D5F1200EA4
:100520000DDB02FA0EFC22FA05F2801841F10001FF
:1005300003FA0EF2801843FA05F359410EE0A5F1D3
:1005400020050EF1200E012A03FA0EFC28BF4CF004
:10055000020C43FA05F3C01851EBE37101F00045BA
:1005600007D54FF0000EDCF1000C7EEB00006EEBC7
:100570000101B1F5801F1BD3B1F5001F0CD3490851
:100580005FEA30004FEA3C0C04F101044FEA4452A8
:1005900012F5800F80F09A80BCF1004F08BF5FEA2F
:1005A000500C50F1000041EB045141EA050130BD0F
:1005B0005FEA4C0C404141EB0101013C28BFB1F521
:1005C000801FE9D291F0000F04BF01460020B1FA6C
:1005D00081F308BF2033A3F10B03B3F120020CDA3F
:1005E0000C3208DD02F1140CC2F10C0201FA0CF01D
:1005F00021FA02F10CE002F11402D8BFC2F1200C82
:1006000001FA02F120FA0CFCDCBF41EA0C01904037
:10061000E41AA2BF01EB0451294330BD6FEA040480
:100620001F3C1CDA0C340EDC04F11404C4F120026B
:1006300020FA04F001FA02F340EA030021FA04F37D
:1006400045EA030130BDC4F10C04C4F1200220FAD4
:1006500002F001FA04F340EA0300294630BD21FA12
:1006600004F0294630BD94F0000F83F4801306BFD8
:1006700081F480110134013D4EE77FEA645C18BFCC
:100680007FEA655C29D094EA050F08BF90EA020F63
:1006900005D054EA000C04BF1946104630BD91EA5B
:1006A000030F1EBF0021002030BD5FEA545C05D15E
:1006B0004000494128BF41F0004130BD14F580049D
:1006C0003CBF01F5801130BD01F0004545F0FE4111
:1006D00041F470014FF0000030BD7FEA645C1ABF46
:1006E000194610467FEA655C1CBF0B46024650EA7D
:1006F000013406BF52EA033591EA030F41F40021A9
:1007000030BD00BF90F0000F04BF0021704730B52E
:100710004FF4806404F132044FF000054FF0000103
:1007200050E700BF90F0000F04BF0021704730B5C4
:100730004FF4806404F1320410F0004548BF404299
:100740004FF000013EE700BF42004FEAE2014FEAEE
:1007500031014FEA02701FBF12F07F4393F07F4FC9
:1007600081F06051704732F07F4208BF704793F0CC
:100770007F4F04BF41F40021704730B54FF46074DF
:1007800001F0004521F000411CE700BF50EA0102E2
:1007900008BF704730B54FF000050AE050EA01028B
:1007A00008BF704730B511F0004502D5404261EBFB
:1007B00041014FF4806404F132045FEA915C3FF43C
:1007C000D8AE4FF003025FEADC0C18BF03325FEAD9
:1007D000DC0C18BF033202EBDC02C2F1200300FA8A
:1007E00003FC20FA02F001FA03FE40EA0E0021FAAF
:1007F00002F11444BDE600BF70B54FF0FF0C4CF49D
:10080000E06C1CEA11541DBF1CEA135594EA0C0F4E
:1008100095EA0C0F00F0DEF82C4481EA030621EA89
:100820004C5123EA4C5350EA013518BF52EA0335C4
:1008300041F4801143F4801338D0A0FB02CE4FF076
:100840000005E1FB02E506F00042E0FB03E54FF0A6
:100850000006E1FB03569CF0000F18BF4EF0010E9E
:10086000A4F1FF04B6F5007F64F5407404D25FEA9A
:100870004E0E6D4146EB060642EAC62141EA55514D
:100880004FEAC52040EA5E504FEACE2EB4F1FD0C8F
:1008900088BFBCF5E06F1ED8BEF1004F08BF5FEA0D
:1008A000500E50F1000041EB045170BD06F00046BF
:1008B00046EA010140EA020081EA0301B4EB5C046C
:1008C000C2BFD4EB0C0541EA045170BD41F4801164
:1008D0004FF0000E013C00F3AB8014F1360FDEBF89
:1008E000002001F0004170BDC4F10004203C35DA65
:1008F0000C341BDC04F11404C4F1200500FA05F3E8
:1009000020FA04F001FA05F240EA020001F0004288
:1009100021F0004110EBD37021FA04F642EB0601FE
:100920005EEA430E08BF20EAD37070BDC4F10C0428
:10093000C4F1200500FA04F320FA05F001FA04F2EC
:1009400040EA020001F0004110EBD37041F10001D8
:100950005EEA430E08BF20EAD37070BDC4F12005E3
:1009600000FA05F24EEA020E20FA04F301FA05F24B
:1009700043EA020321FA04F001F0004121FA04F2F3
:1009800020EA020000EBD3705EEA430E08BF20EAC3
:10099000D37070BD94F0000F0FD101F000464000FD
:1009A00041EB010111F4801F08BF013CF7D041EA7F
:1009B000060195F0000F18BF704703F00046520083
:1009C00043EB030313F4801F08BF013DF7D043EA54
:1009D0000603704794EA0C0F0CEA135518BF95EA0A
:1009E0000C0F0CD050EA410618BF52EA4306D1D191
:1009F00081EA030101F000414FF0000070BD50EAB0
:100A0000410606BF1046194652EA430619D094EA39
:100A10000C0F02D150EA013613D195EA0C0F05D123
:100A200052EA03361CBF104619460AD181EA030177
:100A300001F0004141F0FE4141F470014FF000002F
:100A400070BD41F0FE4141F4780170BD70B54FF0CA
:100A5000FF0C4CF4E06C1CEA11541DBF1CEA13554A
:100A600094EA0C0F95EA0C0F00F0A7F8A4EB05042C
:100A700081EA030E52EA03354FEA013100F0888023
:100A80004FEA03334FF0805545EA131343EA1263EC
:100A90004FEA022245EA111545EA10654FEA0026A1
:100AA0000EF000419D4208BF964244F1FD0404F55A
:100AB000407402D25B084FEA3202B61A65EB0305B6
:100AC0005B084FEA32024FF480104FF4002CB6EB73
:100AD000020E75EB030E22BFB61A754640EA0C00F3
:100AE0005B084FEA3202B6EB020E75EB030E22BF33
:100AF000B61A754640EA5C005B084FEA3202B6EB74
:100B0000020E75EB030E22BFB61A754640EA9C0032
:100B10005B084FEA3202B6EB020E75EB030E22BF02
:100B2000B61A754640EADC0055EA060E18D04FEAC0
:100B3000051545EA16754FEA06164FEAC30343EA60
:100B400052734FEAC2025FEA1C1CC0D111F4801F2D
:100B50000BD141EA00014FF000004FF0004CB6E726
:100B600011F4801F04BF01430020B4F1FD0C88BFC5
:100B7000BCF5E06F3FF6AFAEB5EB030C04BFB6EBD0
:100B8000020C5FEA500C50F1000041EB045170BDC3
:100B90000EF0004E4EEA113114EB5C04C2BFD4EBF0
:100BA0000C0541EA045170BD41F480114FF0000E74
:100BB000013C90E645EA060E8DE60CEA135594EAF0
:100BC0000C0F08BF95EA0C0F3FF43BAF94EA0C0FF3
:100BD0000AD150EA01347FF434AF95EA0C0F7FF468
:100BE00025AF104619462CE795EA0C0F06D152EABC
:100BF00003353FF4FDAE1046194622E750EA4106A0
:100C000018BF52EA43067FF4C5AE50EA41047FF4B0
:100C10000DAF52EA43057FF4EBAE12E753B94AB980
:100C2000002908BF00281CBF4FF0FF314FF0FF30F4
:100C300000F00CB8ADF1080C6DE904CE00F008F836
:100C4000DDF804E0DDE9022304B07047704700BF1F
:100C50002DE9F04786468C460846089E15467446A0
:100C60001946002B40F0C1808542B2FA82F245D984
:100C70004AB1C2F1200300FA02FC954094402EFADA
:100C800003F343EA0C0C4FEA154EA8B2230CBCFB4D
:100C9000FEF80EFB18CC08FB00F943EA0C4399451B
:100CA00028D9EB1808F1FF3704D2994502D9A8F1E9
:100CB00002072B44A3EB0903A4B2B3FBFEFC0EFB1B
:100CC0001C330CFB00F044EA0344A04214D92C1955
:100CD0000CF1FF3304D2A04202D9ACF102032C4440
:100CE000241A43EA07401EB1D440002334607360E5
:100CF000BDE8F0874746DDE76346F1E792BB431B5B
:100D000001214FEA154EAFB2200CB3FBFEFC0EFBE7
:100D10001C330CFB07F840EA0343984561D9EB18F4
:100D20000CF1FF3004D2984502D9ACF102002B44FB
:100D3000A3EB0803A4B2B3FBFEFC0EFB1C330CFBBD
:100D400007F744EA0344A7424DD92C190CF1FF33AD
:100D500004D2A74202D9ACF102032C44E41B43EABB
:100D60000040C0E7C2F120039540944020FA03F10F
:100D70002EFA03F34FEA154E9040AFB20343B1FB96
:100D8000FEFC0EFB1C10190C0CFB07F841EA00419D
:100D9000884522D969180CF1FF3004D2884502D960
:100DA000ACF102002944A1EB08019BB2B1FBFEFCAF
:100DB0000EFB1C110CFB07F743EA01439F420ED9BF
:100DC000EB180CF1FF3104D29F4202D9ACF10201C1
:100DD0002B44DB1B41EA004193E76046E3E76146B1
:100DE000F7E76046A4E76346B8E7834206D916B939
:100DF000002108467CE7C6E900E0F9E7B3FA83F78B
:100E00008FB9834201D3724508D8BEEB020460EB70
:100E1000030301209C461EB9002169E73846FAE722
:100E2000C6E9004CF8E7C7F1200CBB400EFA07F505
:100E300022FA0CF42EFA0CF1BA401C4320FA0CF3FF
:100E4000B8404FEA144901431FFA84FEB3FBF9F896
:100E500009FB18300B0C08FB0EFA43EA00439A45D5
:100E600040D9E31808F1FF3004D29A4502D9A8F11D
:100E700002002344A3EB0A0389B2B3FBF9F809FB90
:100E8000183308FB0EFE41EA03418E452CD9611848
:100E900008F1FF3304D28E4502D9A8F102032144A0
:100EA00043EA0040A1EB0E01A0FB02984145CE466B
:100EB000434602D306D14D4504D20138B9EB020EA8
:100EC00068EB0403002EA7D0B5EB0E0261EB030123
:100ED00001FA0CFC22FA07F3F9404CEA0303C6E9D5
:100EE000003199E74046C5E74346D9E700000000D6
:100EF00030B585B004468368DB68402198470028F8
:100F00002EDBA3681B6902AA0E2120469847002801
:100F10002ADBA3681B696A460D21204698470028F2
:100F200026DB039A0299164806F0FAFF0098FFF7AD
:100F3000F9FB04460D460198FFF7F4FB0EA3D3E935
:100F40000023FFF783FD02460B4620462946FFF7A4
:100F50009DFA02460B460B4806F0E2FF05B030BD95
:100F6000094806F0DDFFF9E7084806F0D9FFF5E784
:100F7000074806F0D5FFF1E70000000080842E410D
:100F80004CB6000064B60000C8B50000ECB5000027
:100F90001CB6000008B50D4806F0C2FF0C4808F06A
:100FA000DAFD58B10B4806F0BBFF0948FFF7A0FF78
:100FB0004FF22440002104F0CDF9F6E7044B196804
:100FC000054806F0ADFF002008BD00BF7CB600005C
:100FD00084A90000A4B600008CB6000008B5024B3E
:100FE0001B68984708BD00BFD0000020014B186067
:100FF000704700BFD000002000B585B00A4600232E
:10100000009301930293039302238DF80230044B63
:1010100001930146684605F015FE05B05DF804FB36
:10102000DD0F000080B505460E461746984604F0D1
:10103000F5F9034609F0F8FB0446DFF8189049F883
:101040000030424639463046A84754F8090000F0BF
:101050000FFB00BF080000002DE9F04383B00446F9
:1010600008461546238B13F0080F05D103F0070639
:1010700000230093019354E0012909D043F0200399
:10108000238385F31188BFF36F8F03B0BDE8F0832E
:1010900043F010032383F4E7204606F079FF42E093
:1010A000D4F814904A466946204606F08AFF4FF06D
:1010B0000008238B03F00707B74269D0A268002A13
:1010C00066D0012243F00803238385F31188BFF320
:1010D0006F8F002A64D1009B2BB14B463A4669467C
:1010E000204606F0E7FFB8F1000F02D03449204651
:1010F000C047EFF31185202383F31288BFF36F8F6E
:10110000238B23F008032383238B13F0100F4DD080
:1011100023F0100323830120268B06F00706002806
:10112000AFD00228B8D00028ABD0013804282BD883
:1011300001A353F820F000BFA110000089110000A6
:101140004D11000061110000751100002369D3F8F2
:1011500000800621204606F0F1FE4FF00009A8E7C6
:101160002369D3F804800421204606F0E7FE4FF0FF
:1011700000099EE72369D3F808800521204606F080
:10118000DDFE4FF0000994E74FF00008C14690E7FC
:10119000009A0AB1002295E7B8F1000F92D1B3E7A7
:1011A0004A463946204606F0D1FE94E713F0200F58
:1011B00004D023F0200323830220ADE70020ABE717
:1011C000E3800000014B036000207047B8B60000C8
:1011D00008B5034806F0A4FE024806F0A1FE08BDCB
:1011E000B8B60000F0B6000030BFFFF7FDBF00BF8B
:1011F00038B50446054D2A46054909F033F9054A34
:101200000021601909F03BF938BD00BF0000000063
:10121000FCB200000400000070B50646064D074B06
:101220001D444C1B2046FFF7E3FF083CC6F8B440C2
:1012300005F1080070BD00BF0000000004000000C0
:10124000054B5A699B689A4204D0044A536843F09C
:1012500080535360704700BFB806002000ED00E0E7
:1012600038B51446264B9B6A13F0100F1AD110257F
:10127000234B9B6A13F0080F00D01225204B9B6A6A
:1012800013F0020F11D01E4B5A6B9B6A13F0800FA4
:101290000AD0002930D01A4A936A23F0800393625F
:1012A000132502E01125E3E71325154B9B6A13F084
:1012B000010F00D01425124B9B6A13F0200F1DD193
:1012C0000F4B9B6A13F0100F01D10D4B9B6A0C4B17
:1012D0009B6A13F0200F04D0094A536A23F4005389
:1012E0005362074A936A43F0FF039362012106F0B9
:1012F000E1FF2070284638BD1325D6E71525DFE726
:1013000000ED00E038B51546204B9B6A13F4805F72
:1013100019D116241D4B9B6A13F4006F00D01824BA
:101320001A4B9B6A13F4007F10D0184B9A6B9B6A80
:1013300013F4004F09D0D9B1144A936A23F400433F
:101340009362192402E01724E4E719240F4B9B6AE7
:1013500013F4806F00D01A240C4B9B6A13F4807F27
:1013600008D10A4B9B6A13F4005F04D01C2402E0EE
:101370001924EBE71B24054A936A43F47F439362E5
:10138000012106F097FF2870204638BD00ED00E0EF
:101390001A4B9B6A13F0007F2BD11D20174B9B6AC1
:1013A00013F0807F00D01F20144B9B6A13F4801F22
:1013B00000D00220114B9B6A13F4002F00D0212093
:1013C0000E4B9B6A13F4802F00D022200B4B9B6A9C
:1013D00013F4003F00D02320084B9B6A13F4803F96
:1013E00009D1064A936A6FEA03436FEA1343936293
:1013F00070471E20D2E72420F3E700BF00ED00E095
:1014000081690D4B5A6942F480725A61BFF34F8F64
:10141000BFF36F8F31F8021C5A6922F480725A614F
:10142000BFF34F8FBFF36F8F4DF60273994201D018
:10143000002070470120704700ED00E038B50546F8
:1014400000230B701A4BD86A10F002002DD10C4605
:10145000DB6A002B2ADB164BD86A10F0804025D0BF
:101460002846FFF7CDFF08B128681FE0104B9B6AA4
:1014700013F0FF0F0DD10E4B986A10F47F400ED180
:101480000B4B9B6AB3F5803F10D32846FFF780FFD4
:101490000CE0224601212846FFF7E2FE06E0224644
:1014A00001212846FFF72EFF00E0002038BD00BFD5
:1014B00000ED00E030B58BB00C46264B5968C1F307
:1014C0000801002383F31188BFF36F8F02F07F437D
:1014D000B3F17F4F15D102F00C03082B14D012F09A
:1014E000080F0BD000250DF12702204606F0E7FE7D
:1014F00086469DF8273053B10BB030BD0446012518
:10150000F1E700252C46EEE700252C46EBE70DF130
:10151000040C20686168A268E368ACE80F002069E9
:101520006169A269E369ACE80F0045B1C3F3080241
:101530005AB96FEA53236FEA4323089305E0089BE7
:1015400023F4FF7323F00103089301A9704606F00A
:101550009CFED1E700ED00E0064B5A6942F0100214
:101560005A615A6942F480625A615A6922F008024B
:101570005A61704700ED00E0EFF30880EFF3098156
:1015800001B57246FFF796FF01BD00BF002080F352
:101590001488BFF36F8F002080F30A8880F30B88D4
:1015A000104880F3088800200F49087001F0B0FC53
:1015B00000200E490860BFF34F8F00F02FF8202065
:1015C00080F311880A484FF40061401880F30988BD
:1015D000EFF314800221084380F31488BFF36F8F68
:1015E00000F0F6F8301A0020EF0C002094ED00E037
:1015F000F00C0020084BD3F89000C0F30720002324
:1016000006E0054AC2F898300021C2F8A010013364
:101610008342F6DB704700BF00ED00E010B572B604
:10162000002484F31388FFF7E5FF234608E003F165
:1016300020010E4A4FF0FF3042F821000133DBB2A7
:101640000F2BF4D9002308E003F16001074A4FF0A3
:10165000FF3042F821000133DBB20F2BF4D962B620
:10166000BFF34F8FBFF36F8F10BD00BF00E100E0ED
:1016700008B50A4B9B68834202D003F0D5FE08BD33
:10168000EFF30583002BF8D0054B5A6842F08052E7
:101690005A605A6A22F400425A62EEE7B806002005
:1016A00000ED00E016498A684FF030001044EFF377
:1016B000098C80E8F01F202080F31288BFF36F8F21
:1016C000104F4FF000664A698A603E60D2F8B4005D
:1016D0000D4C2060D2F8B8000023C2F8B83080F377
:1016E000118802F1300090E8F01F8CF3098802F1B4
:1016F000000004B506F01CFEBDE804407047000081
:10170000B806002004ED00E0700400201EF0040F75
:101710000CBFEFF30880EFF30980816911F8021C18
:101720000229FFD001B5724606F0B8FD01BD00BF29
:10173000002807DB00F01F02400901239340024A02
:1017400042F82030704700BF00E100E000280CDBC9
:1017500000F01F024009012393402030034A42F861
:101760002030BFF34F8FBFF36F8F704700E100E071
:10177000002808DB4901C9B200F1604000F5614072
:1017800080F80013704700F00F004901C9B2014B07
:101790001954704714ED00E04209054B53F822201C
:1017A00000F01F00012303FA00F01040704700BF53
:1017B00000E100E0044B23F07F03044A9360BFF391
:1017C0004F8FBFF36F8F70470000000000ED00E007
:1017D00008B5FFF7EFFF074AD2F8883023F470030B
:1017E000C2F8883002F0E8FF03F088FF00F04EF8FE
:1017F00003F040F800ED00E010B4A2F120040E491F
:1018000042F8081C21F0010142F8081C42F8203C73
:10181000019B42F81C3C029B42F8183C039B42F897
:10182000143C4FF0807342F8043C04650023C0F878
:10183000B83010BC704700BF2510000000B50E4640
:1018400015460B4B9860D0F8B4200A4B1A60D0F8BC
:10185000A43083F30B882C4686F309880020064BBE
:1018600098472046002100220023044C204700BF57
:10187000B8060020700400203B8300002510000003
:10188000014B10221A61704700ED00E0002206E0D3
:1018900003F00F030949194420230B760132B2F5F6
:1018A000877F0ADC13B2002BF2DB03F1604303F500
:1018B0006143202183F80013F0E77047FCEC00E05F
:1018C00008B5EFF30583103B044A02EBC3014968F6
:1018D00052F833008847FFF7B3FC08BDA4A9000005
:1018E00010B584B00A4C23460A4A01210A4806F082
:1018F00020FE0023019302930393084B0193E41A03
:101900000294012101A806F018FE04B010BD00BF2A
:1019100000F002200000002020B70000C0010020DD
:10192000024B034AC3F8C020704700BF00ED00E03F
:10193000AAFF4400034BC3F89800C3F89C10C3F8F7
:10194000A020704700ED00E00E4BC3F89800C3F8EC
:101950009800D3F89C000A7A60F304020A72D3F864
:10196000A020C2F34202087A62F347100872D3F84B
:101970009C2022F01F020A60D3F8A03023F01F033E
:10198000CB60704700ED00E0084BD3F89030C3F314
:101990000723013B984205D810B5044606F0FAFC2F
:1019A000204610BD6FF01500704700BF00ED00E04D
:1019B0002DE9F04F87B0814600910193144600272E
:1019C00034E0C34565D12946C0B206F009FD2CE0DC
:1019D000584AC2F89860D2F89C3003F01F0321F0F7
:1019E0001F010B43C2F89C302946E0B206F0F8FC18
:1019F000044610F1160F00F09680013415E0013B0B
:101A00004C49C1F89860D1F8A02002F01F0223F0E1
:101A10001F031343C1F8A0302946E0B206F0E0FCF2
:101A2000044610F1160F7ED001340137009B9F420F
:101A300079DA07EB47054FEA850A09EB85056E68F9
:101A4000002EF2D0019B23B1284606F0B7FC0028F7
:101A500065D0314659F80A0006F0E4FC064610F15C
:101A6000160F5FD0844262DD324BC3F89800D3F882
:101A70009C2022F01F02C3F89800D3F8A03043F056
:101A80001F0859F80A306968194401F1FF3B934275
:101A900097D093429CD0C345B1D0013B2549C1F8B2
:101AA0009860D1F8A02002F01F0223F01F03134317
:101AB000C1F8A0302946E0B206F092FC044610F1CD
:101AC000160F30D001301B4BC3F89860D3F89C1030
:101AD0009DF8102061F304028DF81020D3F8A03097
:101AE000C3F34203D2B263F347128DF8102059F8C2
:101AF0000A306A681344029323F01F03A8EB0B0813
:101B00004344013B23F01F03059302A9C0B2FFF732
:101B10003BFF044610F1160F05D0013485E76FF046
:101B2000150400E00446204607B0BDE8F08F6FF0D2
:101B30001504F8E700ED00E010B5034C012322780E
:101B4000FFF736FF207010BDEC0C002070B5054685
:101B50000E46002400E00134A6421EDD04EB4403DF
:101B60009A0005EB830359680029F4D0A85806F0C1
:101B700059FC04EB84030B4A42F8230010F1160FC2
:101B80000CD0094B1B78984209DA04EB840302EB72
:101B900083010431FFF7D8FEDDE7002070BD6FF050
:101BA0001500FBE774040020EC0C0020044B052218
:101BB000C3F89420BFF34F8FBFF36F8F704700BF00
:101BC00000ED00E0BFF35F8F024B0022C3F89420CA
:101BD000704700BF00ED00E038B51C4B1D681C4B82
:101BE000D3F89030C3F307239D422BD8FFF7EAFFC9
:101BF000FFF796FE002407E0144B596801EB04112F
:101C0000204606F0C7FB0134A542F5D811480570FF
:101C100006F019FC10F1160F13D00E4B1A780C4B6E
:101C2000D3F89030C3F307239A4207DA084BC3F87E
:101C300098200021C3F8A0100132F0E7FFF7B6FFAB
:101C4000002038BD4FF0FF30FBE700BF2CB700008D
:101C500000ED00E0EC0C002008B5024B1B68984733
:101C6000002008BD88040020034B1860034A9378C5
:101C700043F002039370704788040020D4000020D2
:101C800008B5064921F00701C1F1005202F53C32C6
:101C9000034806F0C5F8002008BD00BF371A002031
:101CA0008C04002068B108B5064A074B1B68074939
:101CB000A1FB03139B0C00FB03F042F001039847C8
:101CC00008BD704720B30000F000002083DE1B43F6
:101CD000234BD3F82436C3F3080282F48072C3F393
:101CE000094388324FF47A6101FB03F31D4901FB7C
:101CF00002335B001C4AA2FB0312D20B4FF4FA2101
:101D000001FB1231B1F57A3F00D30132174BC3F812
:101D10000429134BD3F82036C3F3080282F48072EF
:101D2000C3F3094302F217224FF47A6101FB03F374
:101D300042F21C5101FB02331B0A0B4AA2FB0312A5
:101D400092094FF47A7101FB1231B1F5FA7F00D399
:101D50000132064BC3F81C270122C3F80026704746
:101D600000C0FF00F82A0080D34D6210000012501E
:101D700008B5044B044A1A6000F008F8FFF7A8FF02
:101D8000002008BDF00000200020A107024B012226
:101D9000C3F80424704700BF002008E000487047E3
:101DA000EC040020034BC01A8010034B03FB00F02F
:101DB000704700BFAC040020B76DDBB638B50546F0
:101DC0000C46FFF7EFFF01464022034806F051FCA6
:101DD00001462846A04738BDA4A8000030B583B00E
:101DE00005460C46FFF7DEFF0146402300932346DD
:101DF000054A064806F057FC011E01DB03B030BD62
:101E00002846A047FAE700BFEF860000A4A800001C
:101E100008B5022806D0042803D10021044806F0A2
:101E200016FC08BD0121024806F011FCF9E700BFCD
:101E3000A4A8000010B582B0EFF31184202383F32F
:101E40001288BFF36F8F144A136843F002011160C8
:101E500013F0010F09D1002384F31188BFF36F8FB2
:101E6000A3B906F04CFC02B010BD0DF10702012130
:101E70000A4806F06FFB9DF807300BB10023EBE733
:101E8000FFF78CFF06F0D1FB0123E5E700210448B2
:101E900006F0DDFBE7E700BFFC04002000E0105087
:101EA000A4A8000010B5EFF31184202383F3128857
:101EB000BFF36F8F074A136823F00201116013F01C
:101EC000010F04D084F31188BFF36F8F10BD06F0AB
:101ED00020FCF7E7FC04002070B582B0054601281D
:101EE00006D12C4BD3F8503403F00303012B4AD016
:101EF00007F0B9FE044618B9274B1B78002B37D1E1
:101F0000EFF31186202383F31288BFF36F8F012430
:101F10001CB9204B0422C3F808230DF1070200214D
:101F20001C4806F017FB28B19DF80730012B25D07F
:101F3000012D23D0F4B1304606F013FA154BD3F837
:101F4000403413F0FF0FE8D1124BD3F80831002BC7
:101F5000E3D0104B0022C3F80821D3F80821012256
:101F6000C3F840240D492020C1F8A0011A61D4E72C
:101F70000026CDE7012006F0D6FBDFE72CB186F383
:101F80001188BFF36F8F02B070BD024B0422C3F8FB
:101F90000423F8E700E01050EF0C002000E100E01F
:101FA00000B585B0CDF800D0CDF804D00023029361
:101FB000012303936B46074A06F091FB002805DBDB
:101FC00043F609520023684602F0ACFD05B05DF807
:101FD00004FB00BF8387000070B506460022012184
:101FE00040F2051006F098F9114801F0C1F8114BC4
:101FF000984219D101F0CEF80024012C12D82146C4
:10200000304606F0C4FA05462146304606F0CAFAC4
:10201000094906F074F8002805DB0123AB601C4475
:10202000E4B2EAE7002070BD6FF00400FBE700BFF8
:10203000111E00000000AD0B64B7000008B5C1B26E
:10204000014806F0AFFA08BDA4A8000010B5044688
:102050000E4B0121D3E8EF2FC3E8E01F0028F9D190
:102060001AB1631E012B0DD910BD094806F09AFA6A
:10207000084900234B608B60CB6001238B6006F026
:102080005BF8EEE72046FFF727FFEDE7A804002006
:10209000A4A800009804002010B504460A2806D021
:1020A000E1B2064883685B689847204610BD034844
:1020B00083685B680D219847F2E700BF24A9000000
:1020C00010B5044C2046FFF7CFFD2046FEF78EFFEB
:1020D00010BD00BF9920000008B5054807F03BFD82
:1020E00018B1FFF7EDFF002008BD6FF01200FBE70D
:1020F00024A90000036803F01F0202605B09012BA2
:1021000006D0022B06D00BB1002070470248704762
:10211000024870470248704700A0105000820D50DE
:1021200000040550022806D0012806D008B904484A
:10213000704700207047034870470348704700BF4E
:10214000C4A8000004A90000E4A800002DE9F0479D
:1021500086B0884616469946446801F01F05237BE1
:1021600045EA4315204606F0EFFB002864D0B6F59B
:10217000001F35D00DF10C0A00270397049749463C
:10218000304606F016FC8DF80C0000970197029778
:10219000CDF804A0A36823FA08F313F0010F02D1CD
:1021A000B6F1A07F23D004F110060DF117022946E5
:1021B000304607F0E5FA234B984237D010346A4690
:1021C0002946204607F0D0FA1E4B984237D101220B
:1021D0002946204607F0ECFA002006B0BDE8F0875B
:1021E000294604F1100007F0E7FA0020F5E7284639
:1021F00006F04AFB0028D6D10DF11702294604F15A
:10220000100007F0BDFA104B984203D00DF11703F0
:102210000493D3E70DF117024146204606F005FC72
:10222000084B9842F2D06FF00B00D6E79DF81710DC
:10223000304607F0B5FAC1E76FF08500CDE76FF0E3
:102240001500CAE70000AD0B0400AD0BF0B589B076
:102250000F461446456801F01F062B7B46EA4316DD
:10226000104606F076FB8DF81E0040F20633234040
:10227000B3F5837F53D016D8062B4CD006D9B3F5CF
:10228000807F0DD101238DF81D3024E003B3022B94
:1022900003D102238DF81D301DE06FF0150038E0EA
:1022A0006FF0150035E040F2022293423BD0B3F5C7
:1022B000407F03D105238DF81D300CE0B3F5007F7E
:1022C00003D104238DF81D3005E06FF0150020E0E8
:1022D00000238DF81D3014F4002F28D06A680123E4
:1022E000BB405360284606F02FFB40B310350DF17C
:1022F0001F023146284607F043FA074614F4403FD0
:1023000036D13146284607F047FA3C4B9F426DD004
:10231000002009B0F0BD08238DF81D30DBE709234C
:102320008DF81D30D7E706238DF81D30D3E714F460
:10233000802FD7D06A680123BB409360D2E7C4F3F3
:1023400040438DF8083014F4803F0CBF0123002374
:102350008DF81030002401940DF11D0300930DF150
:102360001E0304AA02A9304606F033FA2046D0E73D
:1023700002AA002302930393049305930693059204
:1023800004AA3146284607F0EFF91C4B98421DD1AC
:1023900014F4003F1DD09DF81D308DF8103014F45A
:1023A000803F0CBF012300238DF811309DF81E30B3
:1023B0008DF81230002304AA3146284607F0D8F9D8
:1023C0000E4B9842A1D06FF01500A2E76FF01500F8
:1023D0009FE700230493059306930DF11E030493D6
:1023E00004AA3146284607F0BFF9E9E79DF81F1017
:1023F000284607F0D5F900208BE700BF0000AD0BA1
:1024000038B504464568284606F09EFA20B91349B7
:10241000204606F048FA38BD1035284607F0B8F9CE
:102420000028F4D10021284607F0AEF90C4B984261
:1024300010D100220B49284607F09EF90022012105
:10244000DB2005F069FF0022012140F20D1005F0AC
:1024500063FFDCE76FF00400DDE700BF118A0000D6
:102460000000AD0BEB89000008B50B690278012A6A
:102470000CD0022A0DD012B1074A1A6201E0074AB5
:102480001A6203F1100002F009FB08BD044A1A6247
:10249000F7E7044A1A62F4E70100AD0B0000AD0B48
:1024A0000100AE0B0200AE0B2DE9F04F8BB0069091
:1024B0000F46924607930569099543689A6A049204
:1024C0009B8B05934FF0FF324FF0FF3306F0D0FAAD
:1024D00005F11003184608930022002302F022FBA6
:1024E0000026344603963CE04FF0010B01E04FF02C
:1024F000000B20466A6804EB020CDDF814E0F4459A
:1025000000F2898013F0010F56D06B6823449CB20F
:10251000BBF1000F24D1002C56D157F80990AB889D
:10252000079A00924A46297A069800F09FF8031EFF
:10253000039369DB43F609520023089802F0F2FA8C
:102540000390002844D1099B1A6A374B9A4266D1FE
:102550002B7A13F0010F02D0049B99453FD0002441
:102560004646564550D206EB46054FEA850907EB2D
:1025700085052B7A13F0080F43D157F8091001F0A5
:10258000604206F10108D0450ED213F0020F0BD1C4
:1025900008EB480007EB8000007A10F0040F03D12D
:1025A000584010F0010F9FD0002CA0D1B2F1005F75
:1025B00007D04FF0000B9CE7049B184407F052FF34
:1025C000A3E74FF0000BA3E72346DDF81090A7E741
:1025D000069800F02BF86FF00403039314E01D46F7
:1025E00006E0A41AA4B22919385807F03BFF013EAF
:1025F00006EB4603980007EB83035A689442F0D237
:10260000ADE76FF085030393069806F036FA03985A
:102610000BB0BDE8F08F6FF01B030393F4E76FF08E
:1026200004030393F0E700BF0000AD0B70B54468EE
:102630002368D3F80056D3F80466204601F002FF61
:102640003146284601F088FF05460021606A06F001
:102650002BFA204601F0E6FE034B9D4201D10020FB
:1026600070BD6FF00F00FBE70000AD0B10B586B03A
:10267000406800240194029403940494059401F0AA
:1026800001048DF80440BDF820408DF80540029308
:102690000492828D9A4215D311F0020F0DD00022C0
:1026A00001A901F027FF0A4B98420ED00B33984244
:1026B00005D06FF0040006B010BD2022F0E76FF0E7
:1026C0000F00F8E76FF01B00F5E70020F3E700BF0D
:1026D0000000AD0B38B505464468236A98470121D0
:1026E000606A06F0E1F92B46A26904F10801204670
:1026F00001F052FE054B984204D10549284606F0E8
:10270000C1F938BD6FF00400FBE700BF0000AD0B5E
:102710003F8B0000036803F01F0202605B09012B7E
:1027200006D0022B06D00BB100207047024870473C
:10273000024870470248704700A0105000820D50B8
:1027400000040550F0B583B001900C4617461E46B4
:1027500001A8FFF7DFFF0199203150F82130094D22
:102760001D4044EA470444EA86039DF8202043EADA
:1027700002239DF8242043EA02432B4340F82130F2
:1027800003B0F0BDF0F0FCFF2DE9F04F85B0074637
:102790008B469246002423E04FF0FF3535E0CAF81F
:1027A0000456012603963146B5F1FF3F16D0B1F12C
:1027B000FF3F40F01C8157F8093013F4004F02D05E
:1027C00001260022039200220192CDF80080C3F37B
:1027D0004123324603992846FFF7B4FF0134E4B29F
:1027E0005C4580F008814FEA840957F82430C3F330
:1027F000C322C3F30805082A00F2FF80834911F8B9
:10280000028040F2FF129542C6D01B0E382B00F218
:10281000F78001A252F823F09F270000FD28000056
:102820000B2900001729000025290000332900008A
:102830003F290000012A0000012A0000012A0000AF
:10284000012A00004D29000061290000012A000032
:10285000012A0000012A0000012A0000012A0000CC
:10286000012A0000012A0000012A0000012A0000BC
:10287000752900008729000099290000AB29000074
:10288000012A0000012A0000012A0000012A00009C
:10289000012A0000012A0000012A0000012A00008C
:1028A000012A0000012A0000012A0000012A00007C
:1028B000012A0000012A0000012A0000012A00006C
:1028C000012A0000012A0000012A0000012A00005C
:1028D000012A0000012A0000012A0000012A00004C
:1028E000012A0000012A0000012A0000012A00003C
:1028F000012A0000012A0000BD290000CAF80C5678
:10290000002603964FF0FF314EE7CAF81056012615
:102910000396314648E7CAF80856002603964FF05A
:10292000FF3141E7CAF800560026012303933146E0
:102930003AE7CAF8045601260396002134E7CAF89C
:102940000856002603964FF0FF312DE7CAF80056CF
:10295000B8F1000F3BD0002603964FF0FF3123E77C
:10296000CAF80456B8F1000F39D0002603964FF08C
:10297000FF3119E7CAF8605557F80910C1F3004153
:102980000126039610E7CAF8645557F80910C1F3F9
:1029900000410126039607E7CAF8685557F8091061
:1029A000C1F3004101260396FEE6CAF86C5557F8BC
:1029B0000910C1F3004101260396F5E604212846DB
:1029C00006F010F9012603964FF0FF31ECE646467B
:1029D000CDF80C804FF0FF314FF00808E4E6464692
:1029E000CDF80C804FF0FF314FF00808DCE62846A8
:1029F00006F0F0F8DFE6002004E06FF0150001E0DB
:102A00006FF0850005B0BDE8F08F00BF54B800003E
:102A1000014B01221A60704700700D5003690C29A8
:102A200010D15B6A094901FB03F3094880FB0310DD
:102A3000D917C1EBA0411160064800FB1133536068
:102A4000002070476FF08500704700BF90D00300F2
:102A500083DE1B4340420F002DE9704384B00469BC
:102A6000A36A7BB3402901D00C292ED104F11006B2
:102A70004FF0FF384FF0FF3942464B46304601F0E9
:102A800037FF0025019502950395114B0193032310
:102A900002936946A06A05F04FFB42464B4620462A
:102AA00002F040F8A06A05F0A6FB0A4BD3F808250F
:102AB000626201225A60304601F09AFF284604B053
:102AC000BDE870836FF00A00F9E76FF08500F6E764
:102AD000112A000000700D5010B504690020FFF7A6
:102AE000ADFAA0624FF0FF320021204607F097F8C0
:102AF00004F1100007F08CF800220121D72005F026
:102B00000BFCD72005F0FEFB024B0122C3F8042387
:102B1000002010BD00700D5008B50069044B002264
:102B2000C3F80021D3F8003101F0B8FF08BD00BFA1
:102B300000700D5003690E2916D00D292CD1B3F960
:102B40000430174880FB0310D917C1EB601108B29D
:102B50001060642000FB11331BB242F2107101FBC4
:102B600003F35360002070471B6818130D4981FB65
:102B7000001CD917C1EBAC01116001EB8101A0EB86
:102B800041000949C3F30B0301FB03F31B1301FBD2
:102B900000335360002070476FF08500704700BF1E
:102BA0001F85EB5167666666A0860100F8B505468D
:102BB0000E46476807F057F820B9154B1B7843B10C
:102BC000002300E0012353B9284606F0B6F9044675
:102BD00011E00123F7E784F31188BFF36F8FEFF360
:102BE0001184202383F31288BFF36F8F284606F0E9
:102BF00031F90028EFD07B6A1E700122796A2846DD
:102C000006F031F984F31188BFF36F8FF8BD00BF70
:102C1000EF0C002038B5044645680121E86806F04D
:102C2000D8F9636818686B69C0F8243505F1180194
:102C300006F0F4F8204606F037F900B138BD024935
:102C4000204606F0D9F8F9E76790000000B583B098
:102C500002460B4601210091024801F07BF803B0C7
:102C60005DF804FBE400002030B583B014461D4637
:102C7000684600F0B5FF009BA342019BAB4111D316
:102C8000094A13685168E41A65EB0105600924F0EC
:102C90001F041B1941EB05011360516040EAC56038
:102CA00002F00AFE03B030BDC801002000B583B0B9
:102CB00000220121E42005F02FFB1B4AD2F818372F
:102CC00023F44033C2F81837002000F0ABFF174B55
:102CD000984226D11649012000F0F0FF134B98428C
:102CE0000AD00233984204D04FF0FF3003B05DF8B1
:102CF00004FB6FF00B00F9E7684600F071FF0199E3
:102D0000009B23F01F030B4A136051600A4A1360B3
:102D100051600A4B67221A600220FFF797F90020E2
:102D2000E4E74FF0FF30E1E700200E500000AD0B6C
:102D3000EC000020C8010020C00100209405002004
:102D400000B583B0684600F04BFF0098064A136850
:102D50005268C01A019B63EB0203400940EAC3605A
:102D600003B05DF804FB00BFC801002030B583B09C
:102D7000B0F1FF3F21D020EAE074E5176D0145EA8C
:102D8000D4656401684600F02BFF009BE418019BAA
:102D900045EB03050C4B18685968241A65EB0105CF
:102DA000402C75F100030BD324F01F04001941EBF4
:102DB0000501FFF74BFF03B030BD6FF00044DCE7C7
:102DC00020240025F2E700BFC8010020074BD3F8FC
:102DD0004023D3F844331C2A01D000207047012B34
:102DE00001D0002070470120704700BF00C0FF00E5
:102DF000074BD3F84023D3F844331C2A01D00020DA
:102E00007047012B01D0002070470120704700BFA0
:102E100000C0FF00044BD3F840331C2B01D000202E
:102E200070470120704700BF00C0FF00074BD3F878
:102E30004023D3F844331C2A01D000207047012BD3
:102E400001D0002070470120704700BF00C0FF0084
:102E5000044BD3F840331C2B01D0002070470120D5
:102E6000704700BF00C0FF00036813F0020F0DD0D1
:102E7000036813F0010F0DD0074B0922C3F80C258E
:102E80000F22C3F8042501221A60FEE7034B0360FA
:102E9000EF3B0360704700BF00801050F000FA5015
:102EA000036813F0020F0DD0036813F0010F0DD06B
:102EB000074B0922C3F80C250F22C3F80425012271
:102EC0001A60FEE7034B0360EF3B0360704700BFEF
:102ED00000801050F000FA5008B50848FFF7C4FF12
:102EE0000748FFF7C1FF0748FFF7DAFF0648FFF77B
:102EF000D7FF0648FFF7B8FF08BD00BF00C50D505B
:102F000008C50D5010C50D5018C50D5000C70D5007
:102F100008B53B4B0122C3F80028FFF77BFF18B12F
:102F2000384B0122C3F80C24FFF7D6FF364AD2F8FB
:102F30008C3043F44063C2F88C30002309E0334AFC
:102F400003F1800152F8310002EBC10252680260C5
:102F500001333F2B0DD803F180022C4951F8322068
:102F6000B2F1FF3F05D003F1800251F83220002A70
:102F7000E5D1234BD3F840341BB9214BC822C3F809
:102F80004024FFF735FF48B1204BD3F83423204BC2
:102F90009A4203D81A4B1F4AC3F84026FFF746FF50
:102FA00018B11D4B1D4AC3F8AC27FFF70FFF48B1FE
:102FB000134B3422C3F82426D3F83C2622F40022F3
:102FC000C3F83C26FFF744FF50B1154BD3F8003649
:102FD00013F0010F04D0124B6FF00102C3F800266A
:102FE000104A0323C2F818350749D1F88C3043F44E
:102FF0004063C1F88C300023C2F8A03508BD00BF83
:10300000000012500030055000ED00E000C0FF004D
:10301000001D0A1840E0A91E00A0085078000A040C
:1030200000E0105000B0045010B50468ACB1B4FA20
:1030300084F3C3F11F03DBB201229A4024EA0202A7
:10304000D0E8EFCFA44504D1C0E8EE2FBEF1000FC9
:10305000F6D1EAD10B70024810BD0248FCE700BF70
:103060000000AD0B0200AD0B0368CB4013F0010F65
:1030700011D100B5026801238B401343D0E8EFCF94
:10308000944504D1C0E8EE3FBEF1000FF6D1F1D176
:1030900002485DF804FB0248704700BF0000AD0B1A
:1030A0000400AD0B044BD3F840331C2B01D000209F
:1030B00070470120704700BF00C0FF0070B582B0AC
:1030C0000646F0B1012849D104224FF480737121E2
:1030D0002548C0F8081302F1A04202F58712012129
:1030E000116003F1A04303F5871300221A601B68E7
:1030F000FFF7D8FF68B1012E08D000258DF80750E2
:103100000DE014224FF484730421E1E7164B0122F1
:10311000DA6000238DF80730012E03D0002542F23B
:10312000107407E00DF10705F9E7012005F0B8FF7D
:10313000013C0DD02A4631460B4805F0B5FF02464A
:1031400040B1002DF1D09DF80730002BEDD002E00A
:10315000002200E001220AB1012E01D002B070BDB0
:10316000024B00225A71F9E700E010509805002048
:10317000054B1B792BB9044B186001221A710348C7
:1031800070470348704700BF980500200000AD0B52
:103190000C00AD0B08B5054B1B680BB105F0A3FF88
:1031A00005F09FFF024BC3F8400408BD98050020BE
:1031B00000E0105000B583B020B101285CD003B00E
:1031C0005DF804FB3F4BD3F84C24D3F84C3403F0A8
:1031D00003038DF8073012F4803F27D1394BD3F821
:1031E000483413F0010F26D105F07BFF8DF807005E
:1031F0009DF80720334BC3F8402410224FF484730A
:10320000042003F1A04303F5871300211960196816
:1032100002F1A04202F58712012111602A4A1268C8
:10322000002A47D0274BC3F80403C8E70DF1070075
:1032300005F065FFDCE7234BD3F8503403F00303BC
:103240008DF807300DF1070005F059FF0028CFD0A9
:103250001D4B1B6823B11B4B0422C3F80423AEE7AC
:10326000184BD3F80831002BFAD0164B0022C3F8C4
:103270000821D3F80831A2E7124B0022C3F810212D
:10328000D3F81011C3F81821D3F81811C3F814217A
:10329000D3F81431FFF706FF38B10A4B01229A60C8
:1032A00000224FF480737120ABE700224FF480734B
:1032B0007120A6E71A68002AFCD000221A601B6859
:1032C0007DE700BF00E010509805002008B5244BB2
:1032D000D3F80C0311E0234B02225A71204B002239
:1032E000C3F81421D3F814212022C3F804231D4B62
:1032F0001B6898471A4BD3F80C0380B3B0FA80F0E0
:10330000C0F11F00012303FA00F283009BB203F512
:1033100080739BB2C0B203F1A04303F58713002171
:1033200019601B68D3B20E4AC2F80833102BD2D0F2
:10333000402B10D0042BDAD1D2F84C14D2F84C2404
:1033400012F0030FD3D1064A0121C2F84014C2F88B
:1033500004331161CEE7034B00225A71C7E708BD61
:1033600000E010509805002030B401F5A27150F82B
:1033700021500E4C2C4040F8214050F8214041F69D
:10338000F07C0CEA021C1B0403F440334CEA030CEF
:103390009DF808301B0503F480134CEA030C44EA43
:1033A0000C0440F8214030BC704700BF0FE0ECFF38
:1033B000036803F01F0202605B09012B06D0022B99
:1033C00006D00BB100207047024870470248704792
:1033D0000248704700A0105000820D5000040550B4
:1033E00000B583B0019001A8FFF7E2FF019A2032F7
:1033F00050F82210044B0B4043F0020340F82230F7
:1034000003B05DF804FB00BFF0F0FCFF30B585B001
:1034100086460D4694460C4B93E8070004AB03E93F
:103420000700734609E004AA02EB830252F80C2C51
:10343000146A4CF8044B146201330EEB05029A42F5
:10344000F1D805B030BD00BF00B300004309034A06
:10345000D35C00F01F001844C0B27047E0B8000011
:10346000C0EB0010014B03EBC0007047A00500202B
:10347000014B03EBC0007047F8B800002DE9F041A4
:1034800084B005460C4616461F460846FFF7DEFF89
:10349000804656B32146284605F08AFF28B12146CA
:1034A000284605F045FF002843D12146284605F06F
:1034B0004EFF10B17378012B3BD001238DF80F30F4
:1034C000002301930096B31C721C0DF10F012046DE
:1034D00005F08AFE2879FFF7C3FF08F1080230F8EB
:1034E000123043F0030320F81230002F3BD0214666
:1034F000284605F05DFF002837D13E782B6806F599
:10350000A272002143F8221043F822102879FFF715
:10351000A7FF08F1080230F8123023F02003DB0483
:10352000DB0C20F812307B782BB9114804B0BDE8D1
:10353000F0811048FAE7BA780092224631462868AE
:10354000FFF712FF2879FFF78BFF024608F108000A
:1035500032F810307603B6B2334343F0200322F83A
:1035600010300348E2E70248E0E70248DEE700BF28
:103570000000AD0B0400AD0B70B506460D461446B9
:1035800005F0D6FE68B13079FFF76AFF0646284697
:10359000FFF75CFF083036F810305B0B23700248F1
:1035A00070BD0248FCE700BF0000AD0B0400AD0B8E
:1035B00030B583B005460191002400E00134022CAF
:1035C00018D80E4B1B5D03F0070202A901EBD303D1
:1035D00013F8043CD34013F0010FEFD005EB840245
:1035E00001212046FFF712FF55F82430002BE5D0CB
:1035F000012000E0002003B030BD00BFF0B80000A3
:1036000008B50079024B03EB8000FFF70DFD08BD04
:10361000F40000202DE9F04182B0054688461646A8
:103620001F4606F006F8AEB33A463146284605F086
:103630001BFF041E20DB2879FFF712FF40F83460DF
:103640002879FFF70DFF00EBC40047602879FFF7EA
:1036500007FF05464046FFF7F9FE083035F8103001
:10366000E4B26402A4B2234343F4807325F810301B
:10367000094802B0BDE8F0812879FFF7F1FE0DF1AD
:1036800007016030FFF7D0FC034B9842F1D19DF861
:103690000740D0E70048ECE70000AD0B2DE9F0470C
:1036A00084B006460C4690460846FFF7CFFE074614
:1036B0003079FFF7D5FE0546D8F80090B9F1000F34
:1036C00021D02146304605F062FE002843D1002378
:1036D0008DF80E308DF80F30019300934B460DF1AD
:1036E0000F020DF10E01204605F07EFD07F10802E4
:1036F00035F8123023F002039BB225F8123043F064
:10370000010325F81230D8F80430BBB193F80090CB
:10371000D3F804A02146304605F02AFEE8B1BAF1FC
:10372000000F61D1083735F8173023F01C039BB226
:1037300025F8173043EA890325F81730D8F8082010
:10374000002A55D05368126821463046FFF762FFC1
:1037500004B0BDE8F0872748FAE707F1080235F81A
:10376000123023F02003DB04DB0C25F81230BAF111
:10377000000FD7D0B9F1030F38D8D8F804305B6800
:1037800093F800A0B9F1000F08D133680AF5A27AC6
:10379000002243F82A2043F82A20C3E7484605F0D0
:1037A0000FFE034631680AF5A27C51F82C2022F066
:1037B000030241F82C2022465146306805F0B9FC3E
:1037C0000AF1300305EB43039C8007F1080235F84A
:1037D00012304FEA4A3A1FFA8AFA43EA0A0343F0E0
:1037E000200325F812309DE70248B1E70148AFE712
:1037F0000148ADE70400AD0B0000AD0B38B5054640
:103800000C4605F086FD08B9074838BD2146284614
:1038100005F007FE2146284605F036FF2046FFF753
:10382000DFFD0248F1E700BF0400AD0B0000AD0B67
:1038300008B50079024B03EB8000FFF715FC08BDCB
:10384000F4000020F0B583B005460E460079FFF77E
:1038500007FE90F8743013B10D4803B0F0BD044674
:1038600046220021103006F00AFE2F682879FFF763
:10387000FFFD03680093002332464FF400313846C1
:1038800005F024FF012384F8743023660148E4E73F
:103890000C00AD0B0000AD0B2DE9F04784B0814664
:1038A0000F4690460023019302930393516801A8A9
:1038B000FFF77EFE4DE094FAA4F4B4FA84F404F029
:1038C0001F05264B9B5D45EA43152846FFF7BEFDC5
:1038D000083037F810A0CAF3820A01AB03EB860365
:1038E000E00804F007041A5C0121A14022EA010269
:1038F0001A54284605F0F1FC03465246294638463C
:1039000005F061FE284605F0F7FC04AB03EB8603E7
:1039100053F80C4C002CCED10136022E0DD8104B92
:103920009B5D08F10402D90803F00703525C22FAF8
:1039300003F313F0010FEFD0E7E700224FF400315B
:10394000484605F02FFCD8F8041001A8FFF730FE18
:1039500008B10026E1E704B0BDE8F087F4B8000044
:10396000F0B80000F8B504460E461248081A124B8B
:10397000A3FB00308009FFF77BFD0746D4F8141342
:10398000C9B2026841F40031204605F00BFC05463F
:1039900010F4003F05D12A463146204605F0C2FE0C
:1039A000F8BD3A4631462046FFF776FF25F400354C
:1039B000F1E700BFA00500208988888808B5024982
:1039C0000248FFF7CFFF08BDA005002000A00D5062
:1039D00008B502490248FFF7C5FF08BD18060020D8
:1039E00000C0105010B5D0F8103523F00203C0F815
:1039F000103540F6FF73C0F8283300220AE0930028
:103A000003F5C07C002440F80C40DBB28033C45086
:103A10000132D2B20B2AF2D90123036669B1074BF6
:103A2000074A1068074AA2FB0020800C00EB400008
:103A3000C0EB401043F00103984710BD30B30000C5
:103A4000F000002083DE1B43024B5868C04300F0A7
:103A50006700704740000020024BD3F81005C0F308
:103A60004000704700200E5003498B6801228240BD
:103A700013438B60704700BF4000002010B5044620
:103A800005F0D4FE28B1204605F0C6FE18B1034863
:103A900010BD0348FCE70348FAE700BF0000AD0B88
:103AA0000800AD0B0400AD0B10B5037A0C49CA1821
:103AB00092F854201B0103F1A04303F56223002474
:103AC000C3F82C4502EB420301EB83030468DC607E
:103AD00044681C61007A1875FFF7C6FF10BD00BF6F
:103AE00040000020027A0A4BD3F8103523F001037E
:103AF0005AB101221343064AC2F810350368C2F8CE
:103B0000A4364368C2F8AC3670470022F2E700BF23
:103B100000200E5070B582B02D4BD3F82C4320E01E
:103B20002C4B01F10C0203EBC20553F832206B68F9
:103B30004FEA800C284D55F80C6096B1002645F8E8
:103B40000C60244D01EB41064FEA860CAC44DCF8D6
:103B50000C6001EB41014FEA810C65442969009139
:103B6000B04794B394FAA4F0B0FA80F001238340F4
:103B7000DD4324EA0304174B1A1892F8541001EBA2
:103B8000410C4FEA8C021344DB68B3B1134AD2E80C
:103B9000EF3F03EA0506C2E8EC6FBCF1000FF6D177
:103BA000C34013F0010FBBD0094A00F152031D01BD
:103BB00002EB03135B685259BAE78000064B1A58B0
:103BC000002ACED000221A50CBE702B070BD00BF51
:103BD00000200E504000002000210E50C8000020A0
:103BE00030B4EFF3118C202383F31288BFF36F8F6F
:103BF0000A4BD3E900454FF0FF31A1426FF040413D
:103C0000A941F5D3C5F31303046043608CF3118815
:103C1000BFF36F8F024830BC704700BF40270E5083
:103C20000000AD0B30B585B01E4B1C7814B11E489A
:103C300005B030BD05461D4A01AB07CA83E8070041
:103C40001B49D1F8102522F00202C1F810251846B0
:103C5000FFF748FF672005F0D4FD05280FD0154871
:103C6000E6E7204605F0EAFD0E4B04EB440103EBCA
:103C700081010875034483F854400134E4B2042CF4
:103C8000EFD90B4C00232A466721204605F0EBFDB7
:103C900001212046FFF7A6FE024B01221A700648BA
:103CA000C6E700BF400000200C00AD0B0CB30000C5
:103CB00000200E500100AD0B0000AD0B70B582B0BE
:103CC00005460E461C494B6803F00103019314316D
:103CD00001A8FFF7A9F90446184B984202D02046E4
:103CE00002B070BD00203070134A536823F0010306
:103CF0005360FFF7B9FEFFF7AFFED0B92946104871
:103D000005F05EFD0F4B1B680F4AA2FB03239B0CC3
:103D100003EB431300E0013B3BB1094AD2F84017E3
:103D2000D2F8442712F0804FF5D1002BD7D1074CA1
:103D3000D5E7074CD3E700BF400000200000AD0BE3
:103D400000200E50F000002083DE1B430700AD0B67
:103D50000C00AD0B2DE9F041044617461E469DF8B8
:103D60001880007AFFF78AFE05461C4B984202D065
:103D70002846BDE8F0812046FFF796FEEFF311815B
:103D8000202383F31288BFF36F8F227A9200144BA3
:103D9000134400221A60237A124A5233180102EBAC
:103DA00003131750C6F313065E6081F31188BFF347
:103DB0006F8FB8F1000FDBD0227A012303FA02F2F1
:103DC0000949D1E8EF6F1643C1E8E06F0028F8D148
:103DD000227A9340034AC2F82433C9E70000AD0BAE
:103DE00000210E5000200E50C800002082B08DF837
:103DF0000400C9B28DF8051040EA0120054BC3F854
:103E00000005044BD3F8003413F0010FF9D002B0D1
:103E1000704700BF00B00450036803F01F02026047
:103E20005B09012B06D0022B06D00BB10020704796
:103E300002487047024870470248704700A010507F
:103E400000820D5000040550F0B583B001900C467F
:103E500017461E4601A8FFF7DFFF0199203150F8F1
:103E60002130094D1D4044EA470444EA86039DF889
:103E7000202043EA02239DF8242043EA02432B43F7
:103E800040F8213003B0F0BDF0F0FCFF00B583B086
:103E9000019001A8FFF7C0FF019A203250F82210CC
:103EA000044B0B4043F0020340F8223003B05DF8AE
:103EB00004FB00BFF0F0FCFF034610F0010F08D137
:103EC000064813F0020F00D0054813F0040F02D18A
:103ED00070470448F5E70448FAE700BF0100AD0B5E
:103EE0000100AE0B0000AE0B0200AE0B2DE9F0415D
:103EF00004460D4616461F46002380F823305368BB
:103F000033B1D36803F06043B3F1005F40F00E813A
:103F10003378023BDBB2012B40D917F0030F40F09E
:103F20000881854BC5F8083394F82430002B3ED126
:103F300017F0140F0CBF0123002384F824303378CA
:103F400084F82030737884F82130F368E360736874
:103F5000236133696361B368A361C7F3001384F815
:103F60002530E7617378C5F888350023C5F8383106
:103F7000D5F83821C5F82831D5F82821C5F81431ED
:103F8000D5F81421C5F80431D5F804313378032B62
:103F900000F2A480DFE803F075915E11336903F04D
:103FA0006043B3F1005FB8D0DFF890814FE0A368C1
:103FB000C5F80433DFF8888149E04FF48073C5F811
:103FC0000032E2682369C5F83C27C5F84037012371
:103FD0002B6500224FF00061284605F068FC0028A0
:103FE000F7D16269A369C5F83C27C5F840374FF49B
:103FF0008063A360DFF84C8117F0080F11D133788C
:10400000032B0ED0012B6CD02368002B73D0002122
:10401000284605F0CCFC73681BB923680BB101235B
:104020006B602368002B69D017F0040F01D00023C8
:10403000A36017F0400F03D1A36843F00203A3600D
:10404000A36843F02003A360A368C5F80433404687
:10405000BDE8F081E2682369C5F83C27C5F8403720
:104060006269A369C5F80427C5F808374FF484537B
:10407000C5F8003201232B610223A360DFF8C4805E
:10408000BAE7E2682369C5F83C27C5F8403717F05E
:10409000200F0BD04FF48073C5F800324FF48063CB
:1040A000A36001232B61DFF89C80A5E74FF4007328
:1040B000C5F800320223A360F3E7E2682369C5F87C
:1040C0000427C5F808374FF48053C5F800320123A0
:1040D0002B610223A360DFF86C808DE7DFF8688036
:1040E0008AE7236823B10021284605F044FC92E7C3
:1040F00004F10C01F8E704F10C0189E7D5F8C404D8
:10410000C5F8C404002384F8243018B1FFF7D4FEA6
:1041100080469CE717F0400F99D12146284605F0CC
:104120008BFC002893D1DFF8248090E7DFF80C8027
:104130008DE7DFF81C808AE72264F81F0A00AD0BC8
:104140000B00AD0B0000AD0B0400AD0B0100AD0B7F
:104150000300AD0BF0B587B005460C4691F8203052
:10416000012B6DD001F114073A460221284605F0D3
:104170009EFB06463A462021284605F098FB00287B
:104180007CD0002E5FD0E36913F0400F04D194F887
:104190002330002B00F0A580E36913F0040F33D126
:1041A0000023C5F83831D5F83821C5F83431D5F8B1
:1041B000343194F8253013B194F82330A3B100239F
:1041C000C5F80032A360604BC5F80833C5F30F3261
:1041D000C5F3083302F01F025B09012101FA02F264
:1041E00060335A4941F8232094F820308DF8043088
:1041F00094F821308DF80530E36804932369029325
:1042000063690593A3690393D5F8C434C5F8C4342E
:1042100013F0020F7ED001238DF8003094F8253082
:104220000BB984F82430E36913F0040F02D094F83A
:1042300023301BB1236861686846984707B0F0BD1A
:1042400001F10C0790E7A368C5F808330223A360C7
:10425000A368C5F8043300224FF48041284605F0D6
:1042600026FB20B1D5F8003213F4007F02D10123E0
:104270002B616B60012384F82330DFE7002E82D1AD
:104280003A464FF48061284605F011FB94F820303F
:1042900083BB94F825309BB9C5F80032A3602A4B44
:1042A000C5F80833C5F30F32C5F3083302F01F0217
:1042B0005B09012101FA02F26033244941F823200D
:1042C00094F820308DF8043094F821308DF80530C2
:1042D000E36804932369029363690593A3690393D5
:1042E00092E72146284605F0A7FB80F0010084F8FC
:1042F000230051E74FF40073C5F800322223A36076
:10430000114BC5F80833A368C5F8043301232B65A6
:104310002B6193E713F0040F03D002238DF80030D4
:104320007CE713F0010F03D003238DF8003075E70D
:1043300094F823301BB104238DF800306EE700237E
:104340008DF800306AE700BF2264F81F00E100E04A
:1043500030B585B00D6800954C6801948A6802926A
:10436000C97B8DF80C10036819B9C3F80056C3F85F
:104370000446C3F82425037903EB8303054A52F866
:10438000333023B10068C0F3083003F0BBFF05B041
:1043900030BD00BF9006002070B506460D4604797A
:1043A00004EB84001B4901EBC00191F8221079BB9A
:1043B000184804EB840C00EBCC0140F83C204B6027
:1043C00000238B6081F8253081F82430B5B1A97BBA
:1043D00000EBCC0383F82710284605F06FFB08B9E3
:1043E0000D4814E0697B04EB84020A4B03EBC20323
:1043F00083F8261029463046FFF7AAFF04EB840411
:10440000044B03EBC403012283F82220034870BD50
:104410000348FCE7900600200400AD0B0000AD0B44
:104420000C00AD0B037902680621C2F8001503EBFE
:104430008303034A02EBC303022283F8222070475E
:104440009006002010B403790E4903EB830C01EBB6
:10445000CC0C0024CCF8084000680B4AC0F80823B4
:10446000D0F8002222F0FF5222F4BC52C0F8002201
:10447000C0F8004501228CF822208CF8244010BCA2
:10448000704700BF900600202264F81F30B583B04B
:10449000054604790068C0F3083003F038FF284669
:1044A000FFF7D0FF04EB8402114B03EBC20393F838
:1044B00027302BB90E4B03EBC20393F826304BB1D8
:1044C00004EB84040A4B03EBC403002283F822208C
:1044D00003B030BD2B68D3F800060090D3F8045623
:1044E0000195FFF7D3FC2846FFF7D0FCE8E700BFB3
:1044F0009006002008B5134690F804C00CEB8C0C15
:104500000A460168024800EBCC00FFF7EFFC08BD4B
:104510009006002008B502490248FFF71BFE08BDBF
:104520009006002000700C50036803F01F02026028
:104530005B09012B06D0022B06D00BB1002070477F
:1045400002487047024870470248704700A0105068
:1045500000820D5000040550F0B583B005460E46AC
:1045600005F0CBFA304605F0C8FA019501A8FFF72F
:10457000DBFF019A203250F82230204F3B4040F6BA
:104580000D04234340F82230019601A8FFF7CCFF29
:10459000019A203250F822303B40234340F8223029
:1045A000042004F07DFD0024082C12D8304605F0CC
:1045B000BEFA70B9284605F0ADFA042004F070FD8B
:1045C000284605F09AFA042004F06AFD0134E4B2AA
:1045D000EAE7304605F09EFA042004F061FD30461B
:1045E00005F08BFA042004F05BFD304605F09FFADD
:1045F00010B1034803B0F0BD0248FBE7F0F0FCFF48
:104600000000AD0B0100AD0B034B00E02033034A6B
:104610009342FBD3704700BFA4A80000A4A90000E8
:1046200038B5EFF31185202383F31288BFF36F8F22
:10463000054B9C6805F0A7FA85F31188BFF36F8FCF
:104640002046FDF715F838BDB806002038B50546F8
:104650000B4B53F8204002E02368984708346B1C4A
:10466000074A52F82330A34209D960680028F3D0E2
:10467000037F13F0010FF1D105F088FAEEE738BDA2
:1046800018B90000F0B587B000EB4006104D05EBFF
:10469000861600EB80000F4B03EB80030E4A059259
:1046A000012204920F2203920022029201920093AF
:1046B0000A4B4FF4A0720A4901EB8011304600F01A
:1046C00059FA737B23F00403737307B0F0BD00BF86
:1046D000D0010020B806002008B90000CB9B0000E4
:1046E000F014002008B553EA020102D100F072FE76
:1046F00008BD0249183001F03DF8F9E7039E0000BB
:1047000010B586B0184C14E0636A0593236A0493CD
:10471000E3690393A3690293636901932369009397
:10472000E368A2686168206800F024FA23685C6589
:1047300030340E4B9C42E7D300F026FD0A4C00E0DB
:1047400030340A4B9C420BD2A26AE36AB3F1FF3FBA
:1047500008BFB2F1FF3FF3D02068FFF7C3FFEFE7D8
:1047600000F02AFD06B010BD1CB200001CB2000013
:1047700008B50A4B01221A700320FFF767FFFCF708
:1047800027FD0420FFF762FFFFF7BAFFFCF702FCEA
:10479000034A137B23F00103137308BDEF0C0020C1
:1047A0009002002008B50146014A0248FDF746F88C
:1047B000714700009002002008B50348034A121A0E
:1047C000002105F0FAF908BDC0010020F00C00201E
:1047D00010B50446FFF756FF04EB44030A4901EB0A
:1047E00083110A4A04EB840302EB8303D9601C742F
:1047F000074B03EBC42303F5006304EB840402EBD3
:104800008402536010BD00BFD0010020B806002014
:10481000F00C002070B586B000F006FD104D114B75
:104820005D61114B059301230493002403940294CA
:10483000019400940D4B4FF480620D49284600F01E
:1048400099F906466B7B23F004036B73284605F049
:1048500083FA2046FFF7BCFF304606B070BD00BFAC
:1048600090020020B806002010B900007147000037
:104870003016002008B50020FFF7E8FE194B03F5BD
:10488000006282F3088883F30A88174CE02384F8D7
:1048900022300023E37723766376A37684F82030F2
:1048A000626A42F4E022626284F82330FCF754FE2C
:1048B000FCF7E6FF4FF0FF33A362E362FDF78CF9EC
:1048C000FDF70EF8094800F0BBF9FFF79DFE012047
:1048D000FFF7BCFE0220FFF7B9FEFFF79BFFFFF7D3
:1048E00061FF00BFF00C002000ED00E0500300204D
:1048F0002DE9F04182B00446EFF31187202181F3C6
:104900001288BFF36F8FC16899B9002950D1364B17
:104910009B6893F90E3023610131E160324B9B6853
:10492000A36087F31188BFF36F8F002002B0BDE84A
:10493000F08116461D4682682B4B9B689A42E4D054
:1049400055EA060136D092F90E80414693F90E00E1
:1049500005F048F9804534DC4FF0000800960195D9
:1049600022463946214800F021FB0028DED0EFF333
:104970001185202383F31288BFF36F8FA36843B39D
:1049800023689C4223D013B3216993F90E0005F0EC
:1049900029F90146204605F030F9E8B9B8F1000FD1
:1049A0001AD185F31188BFF36F8F6FF00A00BDE74E
:1049B0002369B0E787F31188BFF36F8F6FF00F00A3
:1049C000B4E70146204605F018F98046C6E721699C
:1049D000E0E7B8F1000FE4D02946044800F0A8FB56
:1049E0006FF00A00A2E700BFB8060020DC06002036
:1049F000F8B58368002B47D00446264A9268934254
:104A000045D1C368012B04D9013BC360002528466A
:104A1000F8BDEFF31186202383F31288BFF36F8F65
:104A2000016905F0EAF82768BC420CD03D1E18BFAA
:104A3000012557B9A760CDB90023E36086F311883B
:104A4000BFF36F8FE3E70027F0E77A683B681360F6
:104A50005A6000233B607B607A7B22F002027A730B
:104A6000BB6007F1180005F042FAE3E797F90E3052
:104A700023610025C7F8BC50384605F06DF9314672
:104A8000054800F055FBC2E76FF01505BFE74FF092
:104A9000FF35BCE7B8060020DC060020F8B5044668
:104AA000EFF31187202383F31288BFF36F8F05681C
:104AB000A84212D02E1E18BF012685B906BBA368D6
:104AC000E268934224D001221344A36000230BBB6D
:104AD00087F31188BFF36F8FF8BD0025EAE76A6896
:104AE0002B6813605A6000232B606B606A7B22F096
:104AF00002026A73AB6005F1180005F0F8F9DDE712
:104B00000023C5F8BC30284605F026F90123DEE76E
:104B10000022D9E73946024800F00AFBDCE700BF73
:104B2000DC06002010B582B0EFF31181202484F35D
:104B30001288BFF36F8F846844B1013C846081F3B5
:104B40001188BFF36F8F002002B010BD53EA02043A
:104B500006D0009201930246054800F027FAF3E7D9
:104B600081F31188BFF36F8F6FF00F00ECE700BF88
:104B7000DC0600202DE9F04F85B004460F461546AF
:104B80001E46DDF838A0DDF83C90DDF84080DDF809
:104B90004CB000F158038365C365129B0422119940
:104BA00005F067F82A463946204605F047F80546DD
:104BB000CDF80880CDF80490CDF800A03346024629
:104BC00039462046FCF718FE0023636584F86C30F4
:104BD0002667C4F874A0C4F87890C4F87C80EFF31A
:104BE0001182202383F31288BFF36F8F134B196A4E
:104BF000C4F880101C6282F31188BFF36F8FBBF181
:104C0000000F13D01F22594604F1840005F03FFC29
:104C1000002384F8A330094B9B685BB1D3F8B03014
:104C2000C4F8B030284605B0BDE8F08F002384F802
:104C30008430F0E7C4F8B030F4E700BFB8060020D5
:104C40000123437303730023C0F8A430C0F8A830D5
:104C5000C0F8B030014B9860704700BFB806002024
:104C60000A4A9368C3F8B8006FF00A01C3F8BC1091
:104C700007494B6843F080534B60002383F311884E
:104C8000BFF36F8F9368D3F8BC007047B80600205D
:104C900000ED00E0437B90F90D20002A51DB13F07A
:104CA0001F0F4ED110B563F07F034373254A52F8AE
:104CB000183F93420ED100230CE05A684260036013
:104CC000106058601EE01A461E49C9698A420FD01A
:104CD0001B687BB173B190F90E1093F90E209142CD
:104CE000F1D0521A002AE8DC1A46002BECD1F0E78A
:104CF0000023EEE7134BDA6903F11801016042600B
:104D00001060D8610F4B53F8184F9C420ED06CB115
:104D10000C4B9B685A7B12F01F0F0AD1DA897F2A4D
:104D200007D9A2692AB9074A536109E0054BDC6833
:104D3000EEE7A34202D0204600F05EFC014B5C612E
:104D400010BD7047B806002010B5437B90F90D20C8
:104D5000002A14DB154B9A6853F8184F9C4219D05F
:104D6000C4B1824219D0537B13F01F0F15D1D389E0
:104D70007F2B12D9A36983B90C4B5A6114E003F05D
:104D80007F0343734268036813605A600023036023
:104D90004360DFE7054BDC68E3E7A24202D0204630
:104DA00000F02AFC014B5C6110BD00BFB80600207A
:104DB0002DE9F84305460C46404B9E68737B13F083
:104DC000600F28D013F0200F2AD008271F4222D1CD
:104DD0003B43737313F0800F24D1082F2DD04FF075
:104DE0000009364B53F8188F98454BD0B8F1000F97
:104DF00048D0324B9B68434502D0404600F0FCFB54
:104E00002E4BC3F81480102F05D0304600F054FC10
:104E1000B9F1000F3AD184F31188BFF36F8F46E0E8
:104E20001027D3E703F07F0373737268336813604E
:104E30005A60002333607360CFE7B3685BB1726878
:104E4000336813605A60002333607360727B22F012
:104E500002027273B360304604F04AFF06F1580054
:104E600004F04BFF154B9B689E4202D04FF00009A7
:104E7000B7E7EFF3058313B94FF00009B1E74FF03F
:104E80000109AEE70D4BD3F80C80B2E70C48FFF7F1
:104E9000D7FEC0E7EFF31184202383F31288BFF31A
:104EA0006F8F04F09DFE84F31188BFF36F8F6B7BCF
:104EB00013F0600FEED1BDE8F88300BFB806002004
:104EC00050030020B3F1FF3F08BFB2F1FF3F00D114
:104ED000704708B50249183000F04CFC08BD00BF0F
:104EE000039E000010B5437B90F90D20002A0ADBD9
:104EF000437B63F07F0343732B4A52F8183F93427E
:104F000019D1002317E003F07F034373426803685D
:104F100013605A60002303604360E9E75A68426007
:104F20000360106058601EE01A461F49C9698A4232
:104F30000FD01B687BB173B190F90E1093F90E205E
:104F40009142F1D0521A002AE8DC1A46002BECD12B
:104F5000F0E70023EEE7144BDA6903F11801016072
:104F600042601060D861104B9A6853F8184F9C4209
:104F70000ED06CB182420ED0537B13F01F0F0AD1BA
:104F8000D3897F2B07D9A3692BB9074B5A6109E055
:104F9000054BDC68EEE7A24202D0204600F02CFB75
:104FA000014B5C6110BD00BFB806002010B50C4677
:104FB00011460A4882680A4B1A60EFF311832023D6
:104FC00083F31288BFF36F8FDDE90223806804F05A
:104FD000B7FE2046FFF744FE10BD00BFB806002014
:104FE000DC0600202DE9F04104460E460023EFF3D5
:104FF0001185202282F31288BFF36F8F1F4650E085
:1050000003F07F0363736268236813605A600023B0
:105010002360636071B2A173637B63F07F0363738A
:10502000424A52F8183F93420ED100230CE05A68CE
:105030006260236014605C601CE01A463B48C069F3
:1050400082420DD01B686BB163B193F90E2091427F
:10505000F3D0521A002AEADC1A46002BEED1F2E70E
:105060000023F0E7314BDA6903F118012160626037
:105070001460DC612D4B53F8188F984520D0B8F19F
:10508000000F1DD0294B9B68984502D0404600F088
:10509000B3FA264BC3F8148085F31188BFF36F8FE2
:1050A0000123002B3FD1637B03F01F02002A0CBFBA
:1050B00001270027A4D013F0020F05D1A673EBE758
:1050C0001A4BD3F80C80DDE7A1686268236813608F
:1050D0005A6000232360636070B2A0730B6899422A
:1050E0000DD100230BE05A686260236014605C609D
:1050F000D2E79C464A6894450DD01B686BB163B1FA
:1051000093F90E209042F4D0121A002AEBDC9C4650
:10511000002BEFD1F2E70023F0E74B6821606360DA
:105120001C604C60B8E73846BDE8F081B806002046
:1051300008B50B4659B9EFF3058242B9064A5069E2
:105140009268904203D00846FFF78AFD03E083F39C
:105150001188BFF36F8F08BDB806002008B503465D
:1051600050B9EFF305823AB9064A51699268914203
:1051700002D0FFF775FD03E083F31188BFF36F8F53
:1051800008BD00BFB80600200023EFF311812022E4
:1051900082F31288BFF36F8F09E0064B9A68D37BC6
:1051A000013BD37381F31188BFF36F8F0123002B71
:1051B000F3D07047B806002038B50023EFF311850F
:1051C000202282F31288BFF36F8F0EE0154BDC684C
:1051D00017E0A24202D0204600F00EFA114B5C61AB
:1051E00085F31188BFF36F8F0123BBB90D4B9A680C
:1051F000D17B0131D17353F8184F9C42E6D0002C7B
:10520000E4D0537B13F01F0FE3D1D3897F2BE0D978
:10521000A369002BDDD1034B5A61E1E704F0F7FDF0
:1052200038BD00BFB806002008B5024804F0FAFDFA
:1052300008BD00BFCC06002038B5EFF31184202351
:1052400083F31288BFF36F8F224B9A68DB699A420F
:1052500005D01368516812680A60516006E00023A7
:10526000F8E71C4AD269934212D01B6893B1194ADD
:10527000906890F90E1093F90E209142F1D0521AD5
:10528000002AEEDD5A6842600360106058600AE050
:105290000023EBE70F4B9A68D96903F118001060FF
:1052A00051600A60DA610B4B53F8185F9D420DD0D4
:1052B00065B1084B9B689D4202D0284600F09CF9DE
:1052C000044B5D612046FFF7CBFC38BD014BDD6828
:1052D000EFE700BFB8060020F8B551EA000328D078
:1052E00005460C46EFF31187202383F31288BFF3A2
:1052F0006F8F154EB068154B1860FFF725FDB0682D
:105300002A4623461249183000F034FA0446B2689F
:10531000537B43F0040353733846FFF7A1FCB36893
:105320009A6ADB6AB3F1004F08BF002A05D000205B
:10533000F8BDFFF781FF0020FAE704F007FE201A0E
:105340000028F5DC0020F3E7B8060020DC0600208A
:10535000039E000038B504460D46FFF7BDFF024628
:105360002046B5F1FF3F08BFB4F1FF3F2CD0D11765
:105370004FEA411C4CEAD26C53019B1A6CEB010CB6
:105380004FEA8C0C4CEA937C9B00981841EB0C0183
:10539000C90041EA5071C00047F61123C01841F11D
:1053A000000147F61223984271F100030BD3084B1A
:1053B000834243F608538B4107D347F6122200235A
:1053C000FBF72CFC00E0002038BD6FF00040FBE74D
:1053D000ED85FFFF38B5EFF31185202383F31288A5
:1053E000BFF36F8F437B13F0040F04D185F3118853
:1053F000BFF36F8F38BD0446183004F078FD637B2F
:1054000023F0040363732046FFF744FC2946024857
:10541000FFF78EFEEEE700BFDC060020014B986828
:10542000704700BFB80600202DE9F843037B03F066
:105430000107EFF31186202383F31288BFF36F8FE8
:10544000457B15F0080F1AD10446B14600F1580803
:1054500004F01AFC10B345F020056573EFF30583E3
:105460009BB131462046FFF7A3FC67B1002383F3CD
:105470001188BFF36F8F0423184602DF03E086F321
:105480001188BFF36F8FBDE8F88341463D4B9868A4
:1054900004F0FCFB3046FFF7E3FBE6E745F00803CA
:1054A000637313F0800F33D1A3685BB16268236824
:1054B00013605A60002323606360627B22F0020263
:1054C0006273A36004F1180004F011FD404604F07B
:1054D00014FC2C4B9A68944227D00026294B53F891
:1054E000185F9D4228D03DB3AA4202D0284600F062
:1054F00083F8244B5D61204600F0DEF8FEB9214BB5
:105500009B689C421FD089F31188BFF36F8FACE773
:1055100005F07F0545F00805657362682368136030
:105520005A60002323606360BEE7EFF305830BB985
:105530000026D3E70126D1E7124BDD68D4E71248F5
:10554000FFF77EFBDBE7EFF30583002BDBD1237B4B
:1055500013F0010F12D089F31188BFF36F8F00236E
:1055600083F31188BFF36F8F0423184602DFEFF334
:105570001189202383F31288BFF36F8F4846FFF70A
:105580006FFB72E7B806002050030020044BC01ADE
:10559000C010044B03FB00F0034B01221A54704768
:1055A00010040020ABAAAAAAE0060020C3897F2B22
:1055B00011D80E4B1B687BB190F90E200C4B1B6869
:1055C0009A420CDB437B13F01F0F0AD1094B984220
:1055D00009D0012300E0002303F0010070470023FD
:1055E000FAE70023F8E70023F6E700BFFC000020FD
:1055F000E4060020D001002070B505460D4B1E7C4E
:1056000006EB46030C4C04EBC304204604F06FFC8D
:105610000A4B00229A552846FFF7C8FF00B970BD13
:10562000074B1A68013AD3170649204600F0A2F842
:10563000F5E700BFB806002010040020E0060020B7
:10564000FC0000208D55000038B5EFF311852023B4
:1056500083F31288BFF36F8F144B9C68144B1B6845
:10566000A34217D0124B00221A60104B1B7C114A28
:10567000D35C53B12046FFF799FF30B1637B13F041
:105680001F0F0FD02046FFF7B7FF85F31188BFF338
:105690006F8F38BD2046FFF7AFFF85F31188BFF34A
:1056A0006F8FF6E72046FFF71DFCEBE7B8060020FA
:1056B000DC060020E0060020EFF31181202383F3B5
:1056C0001288BFF36F8F0C4B1B6A834205D1D3F84E
:1056D0008020094B1A620AE013461BB1D3F88020E0
:1056E0008242F9D11BB1D0F88020C3F8802081F329
:1056F0001188BFF36F8F7047B806002008B50648C1
:10570000064A121A064904F05CFA0648064A121ABA
:10571000064904F056FA08BD40000020BC010020F4
:1057200020CD0000400000204000002020CD0000DF
:10573000034B1868984200D070470020FCE700BF78
:105740000001002030B1044A5268904201D0006844
:1057500070470020704700BF0001002008B5044BCF
:105760001B680BB1002008BDFDF7EAFAFBE700BF9C
:10577000E80600202DE9F04F83B00193B3F1FF3F1D
:1057800008BFB2F1FF3F0DD004469146816000236F
:10579000EFF3118A202282F31288BFF36F8F1D4628
:1057A0001E4635E000252E462846314603B0BDE8AA
:1057B000F08FFFF7D3FF80460135019B43F10006D0
:1057C000451946EBE07625616661384A13685268F0
:1057D000ED1846EB02064FF0010B41E0C91A67EBEA
:1057E0000202016142614368636020601C604460A2
:1057F00005E02F4B5A682360626014605C60FFF71D
:1058000097FF844240D08AF31188BFF36F8F012342
:10581000002BC9D14D46019E6FF00103B3EB090384
:105820004FF0FF3363EB0603002BC2DB1F4B1968FD
:105830005B686918019A43EB02036FF00102521A88
:105840004FF0FF3161EB030310461946012A73F153
:10585000000301DA01200021206161614FF0000B9B
:10586000FFF766FF0028C4D00169476923696269B0
:105870008B4272EB070EB1DB5B1A62EB070223610E
:105880006261FFF75FFFEDE70A4B1B68002BBAD19F
:10589000BBF1000F06D0404604F00EFB0021FDF7DF
:1058A00065FAB0E7FFF75AFF8046F4E728040020C6
:1058B00000010020E806002070B5EFF311862023D8
:1058C00083F31288BFF36F8F2A4B1860FFF730FF06
:1058D000044623E0284A136851685B1941EBE571DF
:1058E0001360516000220023C4E90423204604F021
:1058F000CCFA86F31188BFF36F8FA36820469847D0
:10590000EFF31186202383F31288BFF36F8F194AB8
:1059100013685B1B1360FFF70BFF04463CB125695E
:105920006169144B1A68D317AA428B41D2DA44B189
:10593000236962690F4909685B1A62EBE1722361AE
:1059400062610D4A0B4D2868136851681B1841EBC2
:10595000E0711360516000242C60204604F0ACFA22
:105960002146FDF703FA86F31188BFF36F8FFFF727
:105970006BFE70BDE80600202804002010B5002250
:10598000EFF31184202383F31288BFF36F8F134644
:1059900011460CE0FFF7E2FE074A13685168C3188E
:1059A00041EBE07184F31188BFF36F8F0122002A6D
:1059B000F0D0184610BD00BF2804002070B5104D6F
:1059C000104C2368284698470F4B5E780F4B1B6896
:1059D0002846984723680E489847022E07D000248F
:1059E000E4B20A4B1B680A489847204670BD064B34
:1059F0001B78072B01D00024F2E70124F0E700BF59
:105A0000900100202C010020EC060020280100203D
:105A10007C01002010B5244B1B6824489847244B78
:105A20001B7813F0040F03D023F00403204A1370F3
:105A30001F4B1B7813F0020F22D11E4B1B681B4813
:105A40009847194B1B681C489847194B5B78FBB962
:105A5000174C002363700421601800F00FF9154BF8
:105A60001B6815489847104B1B68104898472378C7
:105A700013F0010F10D10F4B1B680C48984710BD55
:105A800000F0D8F80A4A137823F002031370D4E721
:105A90000A4804F096FADBE704F090FA237823F042
:105AA00001032370E7E700BF2C0100207C010020E8
:105AB000EC0600202801002090010020F0060020C4
:105AC00038B5FFF77BFF002840F09E804F4B1B68E6
:105AD0004F4898470446002840F081804D4B1B7882
:105AE00013F0010F09D04C4B1B684948984768B127
:105AF000002C76D16FF08F0473E004F05BFA04465B
:105B0000444A137843F001031370ECE7002C68D18A
:105B10003E4B1B683E489847002866D13D4B1B789A
:105B200013F0020F09D03C4B1B683948984768B105
:105B3000002C56D16FF08F0453E000F073F8044648
:105B4000344A137843F002031370ECE7002C48D179
:105B50002E4B1B682E489847002849D12D4B1B78A7
:105B600003F001052C4B1B6829489847002842D1B7
:105B7000264B1B682948984700283FD1254B5B7866
:105B800003B945B9244B1B682448984760B144BB0E
:105B90006FF08F0425E0224D284604F010FA0446E9
:105BA000022305F8033CEDE7DCB9184B1B681848E5
:105BB000984730BB174B1B7813F0040F04D143F008
:105BC000040314490B700446134B1B681048984794
:105BD00018B134B96FF08F0403E024B101E06FF025
:105BE0008F04FFF717FF204638BD6FF08F04F8E7EA
:105BF0006FF08F04F5E76FF08F04F2E76FF08F041A
:105C0000EFE76FF08F04ECE70024ECE72C010020B5
:105C10007C010020EC0600202801002090010020DB
:105C2000F0060020024B012283F8802500207047F7
:105C3000F406002038B500259DB10B4B002283F8F7
:105C4000802538BD2C23084803FB04000123036290
:105C50000323037704F089F901341F2CF2D90135AD
:105C6000EAE72C46F9E700BFF406002008B5024B2E
:105C70001B68984708BD00BF0801002039B110B566
:105C800004460A46024B1B680021984710BD704726
:105C90000C010020002209E0930003F1A34303F567
:105CA0004043054951F822101960013240F2C643C1
:105CB0009A42F1D9704700BF30B9000008B54820BA
:105CC00002F025FB024B0722C3F8082308BD00BFE2
:105CD0000080045008B50C4B186804F010FB0B4A08
:105CE0001368591C116023B1074B186804F00FFBAF
:105CF00008BD074AD2F8003443F00703C2F8003465
:105D0000482002F0FFFAEFE714010020780C002091
:105D10000080045008B5154B186804F0F0FA144AD6
:105D20001368013B136023B1104B186804F0EFFABD
:105D300008BDFFF7C3FF0F4BD3F8002422F0070282
:105D4000C3F800240022C3F80021D3F80011C3F8DF
:105D50000421D3F80411C3F80821D3F80831064B05
:105D60004FF48072C3F88821DEE700BF14010020E1
:105D7000780C00200080045000E100E010B50F4BCB
:105D80001A680F4B9A4216D0FFF7A4FF00F076FB7B
:105D9000FFF780FF00F0AEFB48B900F0A9FA044617
:105DA000FFF7B8FF44B9054B054A1A6004E000F05C
:105DB00009F80446F4E70024204610BD1001002035
:105DC000117365000A2846DC10F1550F35DB00F130
:105DD00055035F2B3CD8DFE803F0383B3B3B3B3BB4
:105DE0003B3B3B3B3B3B603B3B3B3B3B3B3B636091
:105DF0003B3B3B3B3B3B3B3B3B3B3B3B3B3B3B3BF3
:105E00003B3B3B3B3B3B3B3B3B3B3B3B3B3B696689
:105E10003B3B3B3B3B3B3B3B3B3B3B3B3B3B3B6CA1
:105E20003B3B3B3B3B3B3B3B3B3B3B3B7E663B830C
:105E30003B3B3B3B3B3B6C3B3B6C6FF08600704716
:105E4000002070476FF0860070476FF09300704736
:105E50006FF0860070476D2840DC64281ADB6438D8
:105E60000928EFD801A353F820F000BFD15E00004D
:105E7000455E0000455E0000415E0000B95E000026
:105E8000CB5E0000C55E0000455E0000455E000080
:105E9000BF5E00006FF0860070476FF084007047AF
:105EA0006FF0890070476FF0920070476FF08800C4
:105EB00070476FF0940070476FF0850070476FF087
:105EC0008C0070476FF0930070476FF0860070474A
:105ED0006FF0980070476FF0850070476FF0860094
