:10000000C0490020955D0000C36D0000815D0000C7
:10001000815D0000815D0000815D0000815D000068
:10002000000000000000000000000000F55D00007E
:10003000815D000000000000815D0000815D000026
:1000400031070000310700003107000031070000D0
:1000500031070000310700003107000031070000C0
:1000600031070000310700003107000031070000B0
:1000700031070000310700003107000031070000A0
:100080003107000031070000310700003107000090
:100090003107000031070000310700003107000080
:1000A0003107000031070000310700003107000070
:1000B0003107000031070000310700003107000060
:1000C0003107000031070000310700003107000050
:1000D0003107000031070000310700003107000040
:1000E0003107000031070000310700003107000030
:1000F0003107000031070000310700003107000020
:10010000310700003107000031070000310700000F
:1001100031070000310700003107000031070000FF
:1001200031070000310700003107000031070000EF
:1001300031070000310700003107000031070000DF
:1001400031070000310700003107000031070000CF
:1001500031070000310700003107000031070000BF
:10016000C11900003107000031070000310700000D
:10017000310700003107000031070000310700009F
:10018000310700003107000031070000310700008F
:10019000310700003107000031070000310700007F
:1001A000310700003107000031070000310700006F
:10047C00014B1B68184700BF300200202DE9F047E4
:10048C00058B04462807904612D4022905F007056F
:10049C0040F0CD80204605F002FF80B10138218B61
:1004AC00042800F29F80DFE800F0C29D657D8D007E
:1004BC0001290CBF45F0100545F02005258388F374
:1004CC001188BFF36F8FBDE8F08701F007035A1F47
:1004DC00012A1CD8002221F00701062B276889B2BB
:1004EC00C4E9002209D13B4603E0628B01326283EE
:1004FC001B68002BF9D141F002012046218305F045
:10050C00CEFE002800F0A18041F020019CE0042BDD
:10051C000AD121F0070189B22046218305F0BFFEE4
:10052C0010B141F020012183218B01F0070AAA456B
:10053C0075D00027B946A368002B00F08E8041F0DF
:10054C000801218388F31188BFF36F8FA1680029FC
:10055C0000F08C800D68002900F0888033465246EC
:10056C002046D1F80480C047002D48D02B6829467E
:10057C001D46F0E7236921F0070141F00601062D25
:10058C00D3F80090218335D1B9F1000F47D041F059
:10059C000801218388F31188BFF36F8F20463D49F2
:1005AC00C84731E021F00701236941F0040189B209
:1005BC00042DD3F804902183E6D000274FF0040AD1
:1005CC003E46B8E721F00701236941F0050189B2E5
:1005DC00052DD3F808902183D6D000274FF0050ABB
:1005EC003E46A8E701F0070AAA4518D00027B946ED
:1005FC003E46A0E700274FF0060A3E469BE72B46F7
:10060C00B5E7B9F1000FC9D1EFF31188202383F3BB
:10061C001288BFF36F8F238B23F008032383258B62
:10062C00EA062ED525F01003238305F0070566692D
:10063C00218B002EBFF649AF00232768C4E9003395
:10064C0021F0070141F001012183218B4FF00009BA
:10065C0001F0070AAA457FF46EAF002F94D041F049
:10066C000801218388F31188BFF36F8F002FC8D046
:10067C003D68394633465246204605F0FEFD2F466E
:10068C00F4E7AB067FF51BAF25F02003238305F0C1
:10069C000705FFE6E3620000002318460649D1F87F
:1006AC009020C2F30722934200DB7047C1F89830C8
:1006BC00C1F8A0000133F6E700ED00E0002807DBED
:1006CC0001234109034A00F01F00834042F8213006
:1006DC00704700BF00E100E000280CDB0122064956
:1006EC00430900F01F008240203341F82320BFF360
:1006FC004F8FBFF36F8F704700E100E00028ACBF55
:10070C0000F16040064B4FEA4111C9B2ABBF00F596
:10071C00614000F00F0080F800131954704700BFBF
:10072C0014ED00E0EFF30583034A103B02EBC30129
:10073C00496852F8330008470094000030B5104C5B
:10074C00D4F89030C3F30723013B984215D80D7AA7
:10075C000B6805F01F0223F01F031A43CB686D09C9
:10076C0023F01F0343EA450343F00103C4F8980048
:10077C00C4F89C20C4F8A03030BD6FF01500FBE726
:10078C0000ED00E0244B254A4FF47A611A600122F7
:10079C00234B2448C3F80424D0F82436C3F30802AE
:1007AC00C3F309434B4382F480721F49883201FB27
:1007BC0002334FF4FA215B00B3FBF1F201FB12336D
:1007CC001A49B3F57A3F28BF0132C1F80429D0F891
:1007DC0020364FF47A60C3F30802C3F30943434352
:1007EC0042F21C5082F4807202F2172200FB023398
:1007FC004FF47A701B0AB3FBF0F200FB1233B3F523
:10080C00FA7F4FF0010328BF0132C1F81C270020EA
:10081C00C1F80036704700BF2C0200200020A10751
:10082C00002008E000C0FF00F82A008000001250F1
:10083C00084B70B5C31A0D4607499B100446594323
:10084C004022064805F0D6FD2B4601462046BDE861
:10085C007040184718180020B76DDBB6EC73000019
:10086C00402373B50B4C0093041B0B460D460A49F1
:10087C00A41061430646094A094805F0E6FD011E2D
:10088C0005DA30462B4602B0BDE87040184702B07E
:10089C0070BD00BF18180020B76DDBB6C564000032
:1008AC00EC730000014B1B68184700BF08180020B0
:1008BC0070B50221044640F20510FFF71FFF1D4BD7
:1008CC001A7912B16FF0040070BD1B4A1A60012234
:1008DC001A711A4B19790029F4D119491A71196036
:1008EC00184B19790029EDD117481A711860174B5C
:1008FC00C3F84014164B1B6A9B0603D440F2051038
:10090C00FFF7DCFE236993B11C220021184606F088
:10091C00F8FC01251C220F4E056406612469002198
:10092C00A01806F0EEFC0020E662E564CCE76FF060
:10093C001500C9E708180020E56800001018002011
:10094C00B10800006C180020D764000000E01050C3
:10095C0000E100E01C8A00000A2810B5044603D10F
:10096C000D21044800F0AAFC0248E1B200F0A6FCFC
:10097C00204610BD6C7400000023024A0020C1E91F
:10098C00002370470050160000487047148A00007E
:10099C00024B0B6001231360704700BF0C8A0000F0
:1009AC00024B034A0020C3F80C25704700B00450DA
:1009BC0080000080036803F01F025F2B02604FEA87
:1009CC0053129ABF024B53F822000020704700BF0D
:1009DC00008A00004209022A034670B503D0012A9E
:1009EC0018D0CAB170BD0E4E326951680029F9D0C9
:1009FC00012503F01F030C689D400029F2D08A6882
:100A0C002A4002D030464B6898473CB123682146B7
:100A1C001C46F2E7034EE7E7034EE5E72346F6E70D
:100A2C002C7400000C7400004C7400002DE9F04F85
:100A3C004368027A85B003EBC2029A4204D86FF085
:100A4C00010005B0BDE8F08F5C798C4200F0B180FC
:100A5C000833F2E7DBF80020C2F3C323082BC2F300
:100A6C00080100F2A380514508BF4FF0FF31B2F1ED
:100A7C00D05F19F803604FEA126310D2192B12D809
:100A8C00DFE803F014226865293365111111111187
:100A9C00111111111111111111116B76797C382B67
:100AAC006FD04E2B56D06FF08500CAE7C5F80416F0
:100ABC00481C14D0012403A80391FFF77BFF039B70
:100ACC0004FA03F3436004E0C5F80C164A1C06D084
:100ADC000024224617E04B1CC5F8001664D10BF11C
:100AEC00040B5F45B6D10020ABE74C1CC5F80416CF
:100AFC00F5D0012403A80391FFF75CFF0122039BAF
:100B0C0002FA03F38360DBF80030039103F4004036
:100B1C00002818BF002203A818BF012401930092DB
:100B2C00FFF748FF0399019B00EB8100D0F8801080
:100B3C00C3F3412C009A330243EA8C03134301EABA
:100B4C0008010B4343EA4403C0F88030C7E7C5F8FB
:100B5C000816BBE7C5F81016AAE7C5F860154A1CBD
:100B6C00DBF80030BBD0C3F30043002BC1D0A1E7AE
:100B7C00C5F86415F3E7C5F86815F0E7C5F86C150A
:100B8C00EDE703A80391FFF715FF039B00EB830030
:100B9C00D0F8803023F0E04343F08043C0F880303D
:100BAC004B1C9CD0012494E70024A3E76FF01500A4
:100BBC0047E7D3F800B01F7940F2FF1A0568DFF859
:100BCC000C90DFF80C800BEB87078AE7CF930000C3
:100BDC00F0F0FCFF38B505460221C620FFF78EFD6C
:100BEC00C620FFF76BFD6C680121E068FFF71EFF64
:100BFC006B6819686369C1F82435E28BA38BA07EFE
:100C0C001343228C1343628C1343627E9BB20243C8
:100C1C00207E02431343C1F86C3569680B68D3F826
:100C2C00002242F48022C3F800220822C3F80025D7
:100C3C004A6A0121C3F83C270022C3F840271965F2
:100C4C00D3F830110029FBD0C3F800252846BDE8A5
:100C5C003840014905F03BBCD36500002DE9F84F45
:100C6C00884D894FD5E90064911B63EB0400490959
:100C7C0041EAC0614801801944EBD164C7E9002303
:100C8C00C5E9000400230024804AC2E90034EFF3D4
:100C9C001182202383F31288BFF36F8F7C4EDFF811
:100CAC00F4913068DFF8F081B04208BF0020C9F839
:100CBC0000109646D8E90021D9F80030A8B3D0E945
:100CCC00044B4FEAE37CA3427CEB0B0A05DAE41AF3
:100CDC006BEB0C0BC0E9044B27E0A21841EBE47161
:100CEC000023C8E900210022C0E90423D0E9003226
:100CFC0013605A600023C0E900338EF31188BFF3F0
:100D0C006F8F83689847EFF3118E202383F312883B
:100D1C00BFF36F8FD9F8003030681B1BB04272469E
:100D2C00C9F80030C5D1D8E900219A1841EBE3731A
:100D3C00C8E900230023C9F80030584B584C1B7AE3
:100D4C00D6F80080E21892F854C0D7E900A9554FA4
:100D5C00B045D7E900100CF10C0638D0B8F1000FF3
:100D6C0035D0D8E90428B2F1004F78F1000B2EDA17
:100D7C00B8F1000FB8BF0022814508BF8A459046E4
:100D8C0027D1B2F1806F24DA5201012A38BF012237
:100D9C00511840F10000C7E9001004EBC60554F8E7
:100DAC00361068681B01891803F1A04340F100005C
:100DBC0042F0004203F5622344F836106860C3F831
:100DCC0028258EF31188BFF36F8FBDE8F88F6FF075
:100DDC000048D5E9002ADFF8B4904FF0200BD9E990
:100DEC00005952194AEB090A1546D146C8FB0B5952
:100DFC00A94270EB0908C7E900591BB2C9F31307E4
:100E0C000FD304EBC60244F83650C2F804901B0111
:100E1C0003F1A04303F56223C3F82055C3F82475EE
:100E2C00CFE7891A0CF10C0C60EB0A00C82904EB13
:100E3C00CC0670F1000044F83C50C6F80490E6DA99
:100E4C001A0102F1A04202F56222C2F82055C2F842
:100E5C002475154A9B001A441368002BB1D04FF02F
:100E6C00FF346FF04043114ED6E90001844273EB1E
:100E7C000107F9D3A84271EB0909A2D20023136030
:100E8C009FE700BFD8020020D0020020C80200203B
:100E9C001002002004180020C002002018020020BC
:100EAC0080000020B802002000210E5040270E5078
:100EBC00F0B585B06E4681680546103921F00F04F7
:100ECC0005F04FFA32460A4B03F1100C37461868FE
:100EDC005968083303C763453E46F7D110232146B2
:100EEC00284605F028FA003818BF012005B0F0BDDF
:100EFC00068C0000064BD3F840231C2A05D1D3F8EE
:100F0C004403431E5842584170470020704700BFAD
:100F1C0000C0FF0003689A070CD50368DB070DD5EA
:100F2C000922074BC3F80C250F22C3F80425012214
:100F3C001A60FEE7034B0360EF3B0360704700BF92
:100F4C0000801050F000FA50034A4309D35C00F0C3
:100F5C001F001844C0B27047BF930000F0B506469E
:100F6C00002487B0114F019117F8012B06AB03EB4E
:100F7C00D20313F8143C02F00702D34013F0010320
:100F8C0006D10134032CEFD10023184607B0F0BD75
:100F9C00074A03AD07CA85E8070055F824100A6A0A
:100FAC0046F824200A62002AEBD0EEE7D893000022
:100FBC00207500000123044A03FA00F0936823EA29
:100FCC0000039360704700BF80000020124B70B587
:100FDC0053F82050013053F82060AE4200D870BD59
:100FEC006C68B4B1237FDB0711D4636953B120461D
:100FFC00984738B10028B8BF4042FF28A8BFFF204F
:10100C00E3681870E268537843F0010353700835B5
:10101C00E3E72B689847FAE7D889000001680E4A85
:10102C000346914215D1C169A2F11022A2F1EF122F
:10103C0091420ED18268012A0BD8C26812B10169A3
:10104C008A4206D0586928B19B691B1A58425841EC
:10105C0070470120704700BF55AA00FF70B50D4BBB
:10106C009E68A6B13046FFF7D9FF044678B9F368FD
:10107C006BB935690DB9204670BD2846FFF7CEFF18
:10108C0028B9EB68B34202D12E462D69F2E7012450
:10109C00F1E700BFDC17002010B5034B0A461B68B4
:1010AC0000210446984710BD0402002010B50446E8
:1010BC0010B109B1FFF7F0FF024B2046BDE810401C
:1010CC001B6818470802002070B5446A05460E4696
:1010DC0044B9074B01201B689847686228B1204629
:1010EC00AE6270BD6FF08A00FBE76FF08C00F8E722
:1010FC000C0200200022074BC3F81021C3F80C216E
:10110C00C3F80021C3F80421C3F80821C3F8142143
:10111C00704700BF00500450C36870B57BB9C369F9
:10112C0000F128021A60C369454A9A604368C26993
:10113C00DB6843F48063D360C3691033C361836A93
:10114C009B052FD40368C268DD6800F1EC04302DD8
:10115C0034BF082610261D6901366B1E1340EB1A8E
:10116C00B34238BF5B191C44D50004F8015C03F191
:10117C00EB045209044400F1ED05A5425CD1802238
:10118C0080F8EC20426AC469C4322260C269936060
:10119C004468C269E468D460C2691032C2610269F1
:1011AC001A4402610269C469D31C23F003039B1A1D
:1011BC0054F8042C42EA032244F8042CC26952F875
:1011CC00084C234443F0005342F8083C026A03687D
:1011DC00DB6811600168026AC96803339160026AB6
:1011EC0023F0030302F1100101620168C9689942FE
:1011FC000BD0002111610168026AC9685B1A43F0C7
:10120C0080439360036A10330362836A13F4806330
:10121C0011D102685169D26891420CD0026A1360F4
:10122C000268016A5369D2689B1A43F080438B6051
:10123C00036A1033036270BD04F8012D120A9CE797
:10124C0004000020144B4FF0010C1A68082091691F
:10125C00C3E919C0C1F30B02482A5A6528BF4822BA
:10126C0011F4003F9A6508BF0022DA6511F4803250
:10127C0008BFC3E9152201F47002B2F5700F14BF58
:10128C0000229A6D00299A65BCBF0022C3E919227D
:10129C0001221A65704700BF1C070020044B186818
:1012AC00044BB0FBF3F0044B43F00103184700BFB1
:1012BC002C02002040420F00307500002DE9F04157
:1012CC0004460D464768EFF305837BB9244B1B7826
:1012DC0063B14FF02008642663681B68D3F8303183
:1012EC0063BBFFF7DBFF013EF6D1F4E72021EFF300
:1012FC0011831A4681F31288BFF36F8F6068006800
:10130C00D0F8300120B983F31188BFF36F8FEEE76B
:10131C007B6A00201D706368796A1B68C3F83C17F0
:10132C000121C3F84017C3F83001D3F83001196517
:10133C0082F31188BFF36F8FBDE8F081EFF3118357
:10134C001A4688F31288BFF36F8F61680968D1F869
:10135C0030110029DCD183F31188BFF36F8FBAE70A
:10136C00BA21002038B504230A4C42F21075C4F897
:10137C000833012363610023C4F80831D4F8083121
:10138C00D4F84C34DB0303D5FFF788FF013DF7D1CC
:10139C0038BD00BF00E0105010B51D4B1D4CD3F8EC
:1013AC004C14D3F84C2411F4803F18D002F00302F3
:1013BC00012A03D00AB1FFF7D5FF0022144BC3F862
:1013CC0040240022C3F80821D3F8082101221A6115
:1013DC00226872B9D3F80821002AFBD011E0D3F8A7
:1013EC004824D107E9D5D3F850249207E3D42268D6
:1013FC001AB10422C3F8042310BDD3F80821002A23
:10140C00FBD00022C3F80821D3F80831F4E700BF61
:10141C0000E010506C1800200C22104B014602FB0F
:10142C000033002030B4D3E90E529863EFF31180EF
:10143C00202484F31288BFF36F8F1C6C04F0C0045B
:10144C0044F002041C6480F31188BFF36F8F1DB14C
:10145C002B4630BC0248184730BC70471818002087
:10146C00EC730000154B9A6A12F0007F9A6A14BF55
:10147C001E201D2012F0807F9A6A18BF1F2012F4C4
:10148C00801F9A6A18BF022012F4002F9A6A18BFA4
:10149C00212012F4802F9A6A18BF222012F4003FE8
:1014AC009A6A18BF232012F4803F9A6A18BF24202E
:1014BC006FEA02426FEA12429A62704700ED00E056
:1014CC0010B5194B0246986A9C6A10F4805F14BFE1
:1014DC001720162014F4006F9C6A18BF1820A4055E
:1014EC0009D5986B986A000404D51AB19A6A22F44B
:1014FC0000429A6219200C4B9A6A12F4806F9A6A15
:10150C0018BF1A20D2050CD49B6A13F4005F18BFC5
:10151C001C20054A936A43F47F43936200230B70AB
:10152C0010BD1B20F5E700BF00ED00E010B51C4B13
:10153C000246986A9C6A10F0100F14BF11201020FC
:10154C0014F0080F9C6A18BF1220A40709D5586B19
:10155C00986A000604D51AB19A6A22F080029A623F
:10156C0013200F4B9A6A12F0010F9A6A18BF1420BD
:10157C0012F0200F9A6A18BF1520D40658BF9B6A28
:10158C00074B9A6A920642BF5A6A22F400525A6278
:10159C009A6A42F0FF029A6200230B7010BD00BFE2
:1015AC0000ED00E02DE9F84F06460F4690469946AF
:1015BC000024DDF828A0DFF844B0A24501D80020B3
:1015CC000FE0AAEB0405B5F5806F28BF4FF48065DA
:1015DC0030462B46094A04EB080104F08AFE10B190
:1015EC000120BDE8F88F2B465A46384604EB09011A
:1015FC0004F0A1FE0028F3D12C44DEE714030020F4
:10160C0038B50D4B0546C068DC6D04F02EFE8442E7
:10161C0003D2E86804F029FE04464FF4F9726243E1
:10162C00A96864425032224001232846891A05F0E9
:10163C005DF9C00F38BD00BF781700202DE9F041CF
:10164C0047680646BD6885B395F874406CBB462266
:10165C00214605F1140095F8758005F052FE2146DF
:10166C001A4A2B6852F838C08C4524D14FF0000828
:10167C0040F20D14C3F84481D3F84421144A934228
:10168C0014BF2046DB20FFF719F8012385F87430CE
:10169C002B66BB680F4A0221DB20C3E90328FFF746
:1016AC002DF802212046FFF729F83046BDE8F0411D
:1016BC00094904F00CBFCAB2920002F58070442AAA
:1016CC0004BF1C501A580131CEE700BFF08900004E
:1016DC0000A00D50E10900007F6100000022144BB6
:1016EC0010B51A60134B144A00211A60134B144A9C
:1016FC001A60144B13F003020FBF4FF4006402F294
:10170C00FC74C2F104029B181846224605F0F9FD40
:10171C000D4A0E49C2E900040160A1F11021203CE0
:10172C00A1F1EF1190604460C161D060002010BD48
:10173C00EC1700200C020020991D0000080200206C
:10174C00851E0000BA190020DC17002055AA00FFE6
:10175C00F8B51E4D064695F880350F467BB3002430
:10176C002B462246197FD1B13CB9022905D1196A01
:10177C0019B91979002918BF1C460132202A03F126
:10178C002C03EFD114B96FF08C0006E0204605F065
:10179C005BF8204605F0E9F810B100240DE01C467A
:1017AC00237F7BB90123237736B1094B651BAD1021
:1017BC005D4305F18045356000203C60F8BD6FF05D
:1017CC008800EAE76FF09600E7E700BF8C0700207F
:1017DC00A38B2EBA70B5174D1446A84226D8C0F567
:1017EC00B21303F580539A4220D8CAB142F20103D6
:1017FC00114DC5F80035A9B105F0A5FDBFF35F8FFC
:10180C00D5F81834DB0706D4C4F308041CB1012343
:10181C00AB60BFF35F8F4FF40052074BC3F800254A
:10182C00002070BDFF2105F06CFDE7E76FF015009F
:10183C00F7E700BFFF4F160000B0045010461A46E1
:10184C00084B10B5994209D8C1F5B21404F580546F
:10185C00A24203D805F077FD002010BD6FF01500F3
:10186C00FBE700BFFF4F160010B4EFF311822021ED
:10187C0081F31288BFF36F8F2B48036843F0020487
:10188C0013F0010F0460294B26D182F31188BFF3AA
:10189C006F8F0022C3F81021D3F81011C3F8182150
:1018AC00D3F81811C3F81421D3F814112049D1F826
:1018BC0040131C2904BF012199601C4BC3F8002163
:1018CC00D3F8002101221A601A4A12680AB3712255
:1018DC00C3F8042310BC7047D3F80C04C003D4D550
:1018EC00EFF3118081F31288BFF36F8F12490B6CE9
:1018FC0003F0C00343F002030B6480F31188BFF3C1
:10190C006F8F82F31188BFF36F8F002010BCFFF72D
:10191C0083BDD3F80021002AFBD00022C3F800219C
:10192C00D3F80031D6E700BF6818002000E0105053
:10193C0000C0FF00101800201818002070B5EFF33D
:10194C001185202383F31288BFF36F8F154A136818
:10195C0023F00201116013F001021BD17121124B13
:10196C0042F21074C3F8081301215960C3F8002126
:10197C00D3F800210D4A0C4ED2F840231C2A08BF84
:10198C00D960D6F80C3413F4803308D0FFF786FCFA
:10199C00013CF6D185F31188BFF36F8F70BD044AFB
:1019AC005371F7E76818002000E0105000C0FF00EA
:1019BC0010180020684620F007018D4601B5194B20
:1019CC00D3F80021DAB1BFF35F8F4FF0A3418A6ADD
:1019DC00BFF35F8FBFF35F8F4FF0FF300863BFF330
:1019EC005F8F0021C3F80011D3F800310E4B19683A
:1019FC0019680A431A60BDE8014085467047D3F860
:101A0C0008110029F7D00220084909688860C3F83A
:101A1C000821D3F80831064B1A681A6842F0010203
:101A2C00E8E700BF00800450E40200201C070020FF
:101A3C00E002002038B5084B5A78D20709D51C783B
:101A4C003CB9064D284604F0F1F92046044B1D60C4
:101A5C0038BD6FF01200FBE76E0200206509000034
:101A6C00300200202DE9F04F814659F8043B8BB031
:101A7C00D3F8141390F8754000936C4BC9B241F431
:101A8C000031804653F83420009804F009FE81039D
:101A9C0005463AD50023CDE907330993634B07A8D4
:101AAC0003EBC4035B6819460193FFF757FA042351
:101ABC0003EBC40303934FF0000B5D4B0DF11C0AB9
:101ACC000293029A594912F8013B0292039A02EBD3
:101ADC00D3028A5C03F0070322FA03F3DA071AD461
:101AEC000BF1010BBBF1030F0AF1040AE9D14FF41E
:101AFC0000310022009804F0D3FD019907A8FFF7EC
:101B0C002DFA0028D7D125F400350124002D75D1EC
:101B1C000BB0BDE8F08F474B5B440493DAF8001030
:101B2C000029DDD091FAA1F1B1FA81F1049B1C7866
:101B3C0041EA44142046FFF707FA08EB4000878A75
:101B4C00C808BB08059301231AF8002001F007010F
:101B5C0003FA01F122EA01020AF8002006A8069411
:101B6C00FEF728FF069A059B203250F82220C7F377
:101B7C0082065B073746C2F3014223D54846D6B2EC
:101B8C0021463A4604F03FFE06A80694FEF712FFE3
:101B9C00069B203350F82330C3F301439E4207D1F8
:101BAC000021204604F0A3FD3146204604F09FFDA1
:101BBC0006A80694FEF7FEFE0122069B02FA03F32A
:101BCC000362ABE7022A0DD10321204604F08FFDFE
:101BDC0006F00503012BEBD13A462146484604F0AA
:101BEC0012FEE5E702212046059204F080FD032E4B
:101BFC00F2D0059A032ADBD1022EECE795FAA5F375
:101C0C00B3FA83F3009904FA03F225EA020503F50B
:101C1C00A27251F8222008EB43034846B3F8641033
:101C2C00C2F3014204F0EFFD70E700BFF089000041
:101C3C00D8930000D89300000122F8B54C49D1E8A4
:101C4C00EF3FC1E8E02F0028F9D13BBB49498A603E
:101C5C008A684B6002F00302012ACB601ED1CB6074
:101C6C008A68032A1AD8EFF31185202282F312888E
:101C7C00BFF36F8F4FF6FF763F48848E04F0070258
:101C8C00C48EB44244D0022A2FD10134C48685F3C9
:101C9C001188BFF36F8F1C3004F0EFFAEFF305825D
:101CAC001AB9364B1B78002B37D1EFF31182202356
:101CBC0083F31288BFF36F8F0120002501242027A6
:101CCC002F4B304ED3F84CC4D3F84C141CF4803F3B
:101CDC0029D001F00301012925D1002844D082F339
:101CEC001188BFF36F8F0020F8BD5124D440E40756
:101CFC000ED50B60036A43B9C0E9071142B92A46F5
:101D0C0002212148FEF7BAFBC8E719600162F5E72A
:101D1C0085F31188BFF36F8FC0E70421184B104671
:101D2C00C3F80813C9E772B685F31188BFF36F8F38
:101D3C00BFF34F8F20BF82F31188BFF36F8F62B652
:101D4C00D3F8401411F0FF01BCD1D3F808C1BCF199
:101D5C00000FB7D0C3F80811D3F80811C3F84044EA
:101D6C00C6F8A0711C61ADE70422C3F80423BAE7DE
:101D7C0000180020F017002018180020BA210020AD
:101D8C0000E0105000E100E034180020F8B5384DA8
:101D9C002B68EE68D3B1AB68C3B1002860D00029C2
:101DAC005ED001FB00F4B4FBF0F0884258D1211D49
:101DBC0056D8A2070CD024F003020432334603E0B9
:101DCC00586890424ED29B69002BF9D11846F8BD49
:101DDC002246F3E7801A232803F120061CD801229F
:101DEC009A60D3E90512A9B18A619A690AB1596955
:101DFC0051610022C3E905222B69DB0703D5FFF7EC
:101E0C002DF9002831D122460021304605F079FA0F
:101E1C000346DBE7EA60E8E702F1200C03EB0C0178
:101E2C002038C1E90107CB601869124F086143F8EB
:101E3C000C70A7F11027A7F1EF17CF6100B1C160AB
:101E4C00586948619F698F6140B18161886900B1AF
:101E5C00416101201961C3E90120CAE7E960F5E796
:101E6C000023B3E79F68002FB4D0012004F054F98D
:101E7C00DC17002055AA00FF70B50546002840D09D
:101E8C003B4E3368002B3CD0B268002A39D08342D9
:101E9C0003D872681344984202D3012004F03CF931
:101EAC00A0F120042046FFF7B9F80028F5D155F829
:101EBC00183C012BF1D155F8143C45F8180C0BB318
:101ECC009A68FAB955F81C2C02F120015A680A4498
:101EDC005A6055E905321A6155F8145C2B6903B147
:101EEC00DD6020220021204605F00BFA286908B19C
:101EFC0083684BB333699B0703D5FFF7AFF8002812
:101F0C00CBD170BD55F8100C00282AD0836843BB88
:101F1C004268636813442033636003692361D4E926
:101F2C0005239AB9CBB9436963618269A261B3B1E4
:101F3C009C61A36903B15C61236903B1DC6020225D
:101F4C00002105F0DEF9D5E72C46E1E79361A369A2
:101F5C00002BE8D062695A61E5E7F360F7E7F460BB
:101F6C00E7E7F36845F8083C03B15C61F460C1E74E
:101F7C00DC17002030B50D46816887B0102302AA0B
:101F8C001039044604F0B5F9002802DA012007B034
:101F9C0030BD1022204602A904F039FB00283FD1A5
:101FAC001022204902A805F0DBF900280CBF012300
:101FBC0002232B70A1680123203921F00F01204648
:101FCC000DF10702203904F094F90028DEDB9DF8AE
:101FDC000730204603F00F021B096A702B71012297
:101FEC000DF1070104F013FB10B96B78042B03D926
:101FFC0001236B7000232B71A2682046203A22F03B
:10200C000F02103AA91C04F013FB0028BED1A268E1
:10201C002046203A22F00F02E91C04F009FBB6E737
:10202C000323C6E7068C00002C232DE9F341204D39
:10203C000F4603FB0055D5F82080B8F1000F01D1F5
:10204C0005F057F9EB682E8940461E4404233146AF
:10205C000DEB030204F04DF9044620B10124204697
:10206C0002B0BDE8F08146F60813BDF804206D8976
:10207C009A421AD1BDF806309D4201D00324EEE7F6
:10208C00042340460DEB0302A91904F032F9002891
:10209C00E4D146F60713BDF804209A42EED1BDF800
:1020AC0006302B4433443B60D9E7002DF1D0E5E7F3
:1020BC0078170020F0B5214C0546266A85B0F068EB
:1020CC0004F0D3F84FF4F9735843B368503083429B
:1020DC0001D205F00EF96A79E16D012A12BFA62230
:1020EC0000220F462C7918BF4A4304F1FF3401FB40
:1020FC0004342B68A4EB000418BF4F00013B1444BC
:10210C00F06807FB034404F0B0F80746304604F0CF
:10211C0028F90F2201460DF1010005F0F2F82B7998
:10212C006A468DF8003021463B46304604F003F9F0
:10213C00003818BF012005B0F0BD00BF7817002093
:10214C002DE9F3410221E420FEF7D8FA7C4B7D4CBB
:10215C00D3F8182722F44032C3F81827227822B17A
:10216C006FF0770002B0BDE8F081D3F8101521F0C4
:10217C000201C3F81015D3F8101541F00101C3F892
:10218C0010150521C3F8A4160421C3F8AC160723B7
:10219C00672101F001000244013BD2B24FEA510128
:1021AC00F7D1052A40F0C38019464FF0010C654E5B
:1021BC0000256720CFB204E00CFA02F220EA0200FC
:1021CC00013590FAA0F25FFA85FEBE45B2FA82F2B2
:1021DC00F2D3013132750529224482F8547006F18C
:1021EC000C06E5D10121002557489A0801FA02F2A4
:1021FC0012F0670F18BF1D500433302BF5D1E420BB
:10220C00FEF75CFA4E4B0027D3F8102503F5C0738C
:10221C0022F00202C3F8902340F6FF72C3F8A82103
:10222C004A4A1F60A3F58071043393420F60F8D1C2
:10223C004FF00108424D464EC5F860803068454B62
:10224C00B0FBF3F05D235843434B43EA0803984734
:10225C00636801A803EA080384F80080019304F082
:10226C0031FC0028FFF67EAF3C4B20751F72636873
:10227C0023F001036360A36843F00103A360D5F866
:10228C0010359F073FF56CAFD5F8103543F00203BE
:10229C00C5F81035D5F8482712F0010202BFD5F861
:1022AC00483743F00103C5F84837254BD3F840179E
:1022BC00D3F844174800F9D42AB9D3F8482722F0A8
:1022CC000102C3F84827234A3368B3FBF2F31C4AD4
:1022DC0003EB431383B3D2F84017D2F844174900E9
:1022EC0028D44FF0FF306FF040411D4DD5E90078F8
:1022FC00B84271EB0806F9D31A4927F01F02C1E95D
:10230C0000284FF0FF304FF0FF310C22164BC3E981
:10231C00000194F85430002002FB0343134A186167
:10232C00DA6001221875064BC3F824231AE76FF004
:10233C008B0017E7013BCDE76FF0730012E700BF8E
:10234C0000200E508000002000210E50B0210E50B5
:10235C002C02002040420F00607500001802002083
:10236C0040270E50D8020020D0020020690C00003B
:10237C002DE9F041466801F01F04307CB56888B047
:10238C0044EA4014002D00F0B580B2F5001F07D1CF
:10239C002146284604F0FEF9002008B0BDE8F08183
:1023AC000027B2F5800F03A80397476063D1B3F100
:1023BC00007F14BF052304238DF80C300023CDE9D6
:1023CC0006030593F3680DF10707CB4013F0010FDB
:1023DC005CD1B2F1A07F59D102A80294FEF7EAFABF
:1023EC00029B203350F82330DA074FD43A4621466B
:1023FC00284604F0F5F916300AD195F875003F4BD4
:10240C0003EB800004F05EFB0028C6DB8DF80700B0
:10241C0004972146B06805AA04F06EFB0028BCDBCB
:10242C00B5682146284604F075F980462046FEF72B
:10243C008BFD2F6800F10806B8F1000F37D0284645
:10244C0004F073F998BB05EB4606B3885B0B990057
:10245C0001F58072B850BA582A680A44D2F810159F
:10246C0041F00101C2F810150122296802FA03F3A8
:10247C00C1F8143390E7B3F1C06F05D0B3F1007F0E
:10248C0014BF0123022397E7032395E73A4621461D
:10249C00284604F0A5F90028BBD195F87500174B18
:1024AC009DF8071003EB800004F0E1F8B1E7D7F8D2
:1024BC00143305EB46059B035CBF4FF40033C7F8A0
:1024CC001433AB88C3F38203042B0FD0052B0FD02E
:1024DC0002A80294FEF76EFA029BC168D94001F083
:1024EC0001010231204604F002F955E70321F9E716
:1024FC000221F7E76FF085004FE700BF24020020B0
:10250C002DE9F04FD50640F2063548BF4FF00309D0
:10251C00D0F8048002EA050598F8103058BFC2F3D1
:10252C00401989B001F01F06B5F5837F144646EAC1
:10253C0043168DF80A9044D00DD8062D43D005D8FB
:10254C00A5B1022D12D06FF0150037E0B5F5807FE4
:10255C00F9D101250AE040F202239D4235D0B5F5B0
:10256C00407F34D0B5F5007FEDD104250123200345
:10257C0003FA01F12DD5D8F804305960D8F8087059
:10258C006FBB05A80596FEF715FA059B84F4803100
:10259C0000EB8300D0F88020C1F30041C4F340432A
:1025AC0043EA410322F4706243EA890322F00F02EA
:1025BC0043EA05231343C0F88030002009B0BDE87E
:1025CC00F08F0925D2E70825D0E70625CEE70525AB
:1025DC00CCE7620344BFD8F804309960CEE73146AB
:1025EC0038460DF10B0204F0FBF814F4403901905D
:1025FC003DD13046FEF7A8FC04B207EB4404A38A95
:10260C00DB0725D5384604F0C5F83146384604F0CA
:10261C0081F840B1A28A3B68520B03EB8203C3F8EA
:10262C001095C3F810953846314604F089F800230C
:10263C0005A8A3820596FEF7BDF9059B00EB830068
:10264C00D0F88020394B134043F00203C0F880309F
:10265C00019B002BB1D1D8F808309DF80B1093F8E2
:10266C007500334B03EB800004F001F8A5E7002361
:10267C0003AACDE90623384605AACDE90333059311
:10268C0004F03AFA002898DB14F40033D8F80890D8
:10269C003DD014F4803430460CBF4FF0010A4FF09B
:1026AC00000AFEF751FC3146074648469DF80AB031
:1026BC0004F03BF828B9484604F02CF800287FF4C5
:1026CC007CAF3FB209EB4707BB8A13F01C0F02D05B
:1026DC00002C3FF472AF05A80596FEF76BF9059B2D
:1026EC0000EB8300D0F8803023F4706323F00F03E9
:1026FC0043EA8B0343EA4A0343EA052343F001030D
:10270C00C0F88030BB8A43F00303BB82A0E7CDE95D
:10271C00063331460DF10A03484605AA059304F029
:10272C00EBF90028FFF649AF92E700BFF0F0FCFF91
:10273C0024020020F8B50126324C334DD4F80C336A
:10274C0003F0710343B901252E4C304ED4F80C33F1
:10275C0003F00C035BBBF8BDB3FA83F30021C3F1A8
:10276C001F039A0002F5807292B202F1A04202F5A8
:10277C008712116006FA03F7042B1268D8B2C4F85A
:10278C00087308D0062B10D02B689847D4F80C335C
:10279C0003F07103D6E702236B71C4F81411D4F85B
:1027AC0014312023C4F80433EEE76971ECE7B3FA73
:1027BC0083F30027C3F11F039A0002F5807292B2D3
:1027CC0002F1A04202F58712176005FA03F1022B01
:1027DC001268D8B2C4F8081310D1D4F84C34D4F819
:1027EC004C349B070AD10423C4F84054C4F8043376
:1027FC002561D4F80C3303F00C03ABE7336898472E
:10280C00F7E700BF00E01050101800206C180020F3
:10281C00F7B5284B284CD3F82C6304F188070EB974
:10282C0003B0F0BD96FAA6F00123B0FA80F0834015
:10283C00DA43224926EA0306231893F854508300FE
:10284C0019440C2303FB0543DB6873B3D7E8EF3F54
:10285C0003EA020CC7E8EECFBEF1000FF6D1C3407D
:10286C00DB0719D5020102F1A04202F56222D2F86F
:10287C002435D2F82025D1F800C0BCF1000FCED001
:10288C004FF0000CC1F800C00C2101FB0545296973
:10289C000091E9688847C2E705F10C0304EBC30C0F
:1028AC0054F83320DCF80430E5E70A68002AB6D087
:1028BC000B60B4E700200E508000002000210E5069
:1028CC002DE9F0430446002693B00DF11F05DFF807
:1028DC00788025F01F05102201231C4911F8010DE9
:1028EC00013A03440B704FEA1323F7D1A81902F0F5
:1028FC007FFFA946074618BBD8E90C3210360133C6
:10290C0042F10002302EC8E90C32E4D154B104F18A
:10291C00300299F8003014F8011B4B40A24209F820
:10292C00013BF6D12E46084C0FCE0FC496E80F0093
:10293C00203584E80F0095E80F00103484E80F0070
:10294C00384613B0BDE8F08378020020A8020020BE
:10295C000FB430B587B00AAC54F8045B10220021D8
:10296C0002A8019404F0CDFC02238DF80A30064B2A
:10297C002246294602A8039303F084FA07B0BDE867
:10298C00304004B0704700BF7D0400001FB50A4BF7
:10299C006A461C6A1023A1682046103903F0A9FC72
:1029AC00034628B1227845210448FFF7D1FF0024C3
:1029BC00204604B010BD00BF78170020168C000014
:1029CC0000222DE9F04F8FB00446CDE9082203F028
:1029DC00D2FB5E4E00283DD05D4D3368AB4206D134
:1029EC00104609A9FFF720FB08B104F082FCF36A3A
:1029FC00AB4205D1012008A9FFF716FB0028F4D142
:102A0C00DDE90832934288BF0993099BA3604FF01C
:102A1C00000949214F48099DFFF79AFF736AD3F8C3
:102A2C0004804B4643449D424F4609F10109F9D8B5
:102A3C00204603F0A0FB002836D04FF4F972F36D5A
:102A4C00B56A534300225033013D42449A420ED2A0
:102A5C00013DFAE7FFF79AFF0028C6D004F1080100
:102A6C0003F05DFC0028C0D1A3680993CFE74D4566
:102A7C001AD857213848FFF76BFFBA1C08FB05F32F
:102A8C00572108FB02F23548FFF762FF0123E3717F
:102A9C00334B1A68002A03DD57213248FFF758FFE1
:102AAC0000200FB0BDE8F08F356A002D9DD0F76C7B
:102ABC00002F9AD063682C4A03F0FF2393423CD139
:102ACC002368012B39D138460AA9FFF753FA00289D
:102ADC008BD19DF82820012A35D0244B2449032A78
:102AEC0008BF0B469DF82B20492102929DF82A2005
:102AFC00204801929DF8292000921F4AFFF728FFD9
:102B0C009DF82830032B18D13846FEF779FD0028A4
:102B1C007FF46BAF384603F0C7FF00287FF465AF36
:102B2C003846A16803F0B1FF00287FF45EAF384649
:102B3C00FEF7BEF900287FF458AF6379012B40F003
:102B4C00A480CB469BE00D4BCCE700BF7817002050
:102B5C003DB8F396518C00007A8C0000A98C0000D3
:102B6C00140700202B8D0000000100044D8C000088
:102B7C00478C0000EA8C0000DA8C0000428C0000CC
:102B8C002368C3F101024A445A4576D3726A012B79
:102B9C0052F83B10D2F800A002EBCB0252F8082CF2
:102BAC000491A2EB0A02A1EB0A010591069207938C
:102BBC0041D1E268022A38D02846FEF721FD0028D0
:102BCC007FF413AFF06C0CA9FFF7D4F900287FF455
:102BDC000CAFE279012A11D00E2A3FF606AF8DF820
:102BEC002820A9682846203921F00F01079B0AAA42
:102BFC00203903F01DFF00287FF4F7AE9DF8333029
:102C0C00012B05D1284603F04FFF00287FF4EDAED1
:102C1C002846A16803F039FF00287FF4E6AE284669
:102C2C00FEF746F900287FF4E0AE3846FEF7E8FCE4
:102C3C0000287FF4DAAEAB68059A9A42BFF4D5AEA1
:102C4C009A44049BAAEB030AD0453FF6CEAE13463A
:102C5C0029462846069ACDF80080FEF7A3FC0028EA
:102C6C007FF4C3AE2046FFF725FA236801332360B7
:102C7C0018B13C4A1368013313600BF1FF3BBBF1F5
:102C8C00000F7FF47DAF0123236002234FF0010A74
:102C9C006371CA453FF6FCAE236853455ED8726A31
:102CAC004FEACA0352F83A10083BD2F800B0079129
:102CBC00D158326DD358059313680693DDE905326C
:102CCC009B1A04932379012B46D1AA68A1EB0B0321
:102CDC009342BFF48AAE5A44521A90453FF685AEE1
:102CEC0029463846049ACDF80080FEF75BFC002894
:102CFC007FF47BAE2046FFF7DDF90223237118B178
:102D0C00184A136801331360BB68049A9A42BFF4E3
:102D1C006CAE069A1A441346059A9B1A98453FF6D0
:102D2C0064AE079A39462846049BCDF80080A2EB86
:102D3C000B02FEF737FC00287FF457AE2046FFF756
:102D4C00B9F92368013323600123237130B1054A9B
:102D5C0013680133136001E0022BD5D00AF1010A8C
:102D6C0097E700BF140700202DE9F743DFF8D49054
:102D7C0007460E46C84641B10024304603F0FBF925
:102D8C0028B123461C46002124E00B46FAE7FFF746
:102D9C00FDFD20B101A903F0C2FA054638B10120AE
:102DAC00012C01D107B9002003B0BDE8F083D8F89D
:102DBC002430019A596803460B449A4205F10105E7
:102DCC00FAD87379012B0CD1E4B932682346AA42A4
:102DDC0098BF21462C2202FB0383186AB0B904F079
:102DEC0088FA022BCDD13368012B04D9AB42C8D859
:102DFC0084F00103C7E7C4D134B13379023B18BF67
:102E0C000123C0E72346BEE72346E3E720234A46D7
:102E1C0003F06FFA0028C2D12EB9012CC3D00123C4
:102E2C0009F12C09AEE7D9F80020074B9A4205D1DD
:102E3C00012CB8D0012409F12C099EE74FF0FF308A
:102E4C00AEE700BF781700203DB8F396002210B50E
:102E5C000C4B1C7884420FD00132042A03F110036E
:102E6C00F7D16FF0010010BDD2685078C00706D5BD
:102E7C00107820B90B60F6E7DA68002AF4D16FF00D
:102E8C001200F0E73876000030B585B069460120B5
:102E9C0003F04CFF044610B1FF2005B030BD0220FA
:102EAC0002A903F043FF012840D1224649213348AF
:102EBC00FFF74EFD324B8DF80C40029300229DF82B
:102ECC0000109DF808002F4C2378042B06D0052BFE
:102EDC002FD14B1E18BF0123002B39D06378042B44
:102EEC0005D0052B2CD1431E18BF012383B3A37827
:102EFC00042B03D09DF803509D4229D1E378042B79
:102F0C0003D09DF80B509D4222D12379042B1BD169
:102F1C006279022A28D11C4B1C4800224921FFF758
:102F2C0017FD6079831E022BB7D9B5E70028C5D0F1
:102F3C00B2E7A3EB010CDCF1000343EB0C03CBE792
:102F4C001D1A6B426B41D1E79DF802509D42DFD0B8
:102F5C000132032A04F10604B6D10D48002249219E
:102F6C00FFF7F6FC012098E7032A05D0094B0A4924
:102F7C00042A08BF0B46CFE7084BCDE77D8D000038
:102F8C0003010303AA9300005A8D0000C88D0000B2
:102F9C00EC8D00006B8D0000648D00005F8D0000D7
:102FAC0030B5394B0C465B6800218BB0C3F308037A
:102FBC0081F31188BFF36F8F02F07F45B5F17F4F1E
:102FCC0008D102F00C05082D04D012F0080F0CBF2C
:102FDC00014621460022033B8DF80720032B03D822
:102FEC00DFE803F00A474B4400209DF80730002B24
:102FFC0047D102A903F0BCF9234BDA6A9007F3D44A
:10300C00DA6A002AF0DBDA6A5200EDD55A6988696F
:10301C0042F480725A61BFF34F8FBFF36F8F5A69BE
:10302C0030F8020C22F480725A61BFF34F8FBFF359
:10303C006F8F4DF60272904208D09A6AD2B23AB1B2
:10304C0001200DF10701FEF771FACEE70868CCE715
:10305C009A6A12F47F4F05D001200DF10701FEF79B
:10306C002FFAC2E79B6AB3F5803FBDD3FEF7FAF99E
:10307C00BBE700200DF10701E5E700200DF107018A
:10308C00EDE70BB030BD00BF00ED00E010B572B63F
:10309C00002484F31388FDF7FFFA23464FF0FF302A
:1030AC000C4A03F120010133102B42F82100F8D116
:1030BC0000234FF0FF30074A03F160010133102B5E
:1030CC0042F82100F8D162B6BFF34F8FBFF36F8F78
:1030DC0010BD00BF00E100E08FB5984A984B22F07C
:1030EC007F029A60BFF34F8FBFF36F8FD3F88820A6
:1030FC00944822F47002C3F88820934A0021121AD3
:10310C0004F0FFF89148924A9249121A04F01BF904
:10311C009148924A9249121A04F015F940F20F1490
:10312C00002210B201210132FDF7E8FAA242F8D1D7
:10313C000020FDF74BFF8B4B03F5006282F30888F0
:10314C0083F30A88E0227E4B874F83F822200022EB
:10315C00DA771A765A769A7683F82020596A41F4EF
:10316C00E021596283F82320596941F0100159611B
:10317C00596941F480615961596921F0080159611B
:10318C00102119614FF0FF319962D962D3F8901078
:10319C00090A11F0FE0F29D0BFF35F8F7349C3F8F2
:1031AC009420C3F8C01002217148C3F89820C3F8CA
:1031BC009C10C3F8A0000120C3F8980000F1005047
:1031CC00C3F89C0000F53B3000F2E230C3F8A000DD
:1031DC003970D3F89000C0F30720814211DB05222F
:1031EC00C3F89420BFF34F8FBFF36F8F61493C78C6
:1031FC004D68002D00F081801F2D1ED86FF0150436
:10320C007BE0C3F89810C3F8A0200131E1E7204619
:10321C00C3F89880D3F89C2025F01F0502F01F02FC
:10322C001543C3F89C5003F0C3F862E04E45EED151
:10323C005FFA88F003F0BCF85FE0EA06DED10A68BA
:10324C00D306DBD1104603F0AAF8154405F1FF397B
:10325C008046484603F0A3F88045CFD118F1160FED
:10326C00CCD0A045CADA364BC3F89880D3F89C0072
:10327C00C3F89880D3F8A06020F01F00824246F07B
:10328C001F06D3D0013AC3F8988022F01F00D3F860
:10329C00A0204E4502F01F0242EA0002C3F8A02013
:1032AC002046C0D003F084F810F1160FA6D0244BA2
:1032BC00013EC3F89880D3F89C109DF8082001308B
:1032CC0061F304028DF80820D3F8A030009525F0A6
:1032DC001F052E445B08D2B2A6EB090663F3471216
:1032EC0026F01F066946C0B28DF808200396FDF73C
:1032FC0025FA10F1160F81D0441C01203C70FDF70B
:10330C0065FE0220FDF762FE002383F30B881A4C46
:10331C001A4DA4F5205686F30B8884F309880020F7
:10332C0004498847184619461A46A8470248804758
:10333C00FEE70000C76D0000D56D00000000000026
:10334C0000ED00E078020020BC210020800000206D
:10335C0074020020B89C0000400000208000002077
:10336C00789C0000C0490020BB210020AAFF44002B
:10337C00E14F1600288A0000C04900205D4E000075
:10338C0008B50548FFF7E4FA002383F31188BFF36F
:10339C006F8F0423184602DF128E000008B501233C
:1033AC003C4A3D48C2F800383C4AD2F840231C2A1B
:1033BC0004BF3B4AC2F80C34FDF7ACFD0830FDF7F6
:1033CC00A9FD0830FDF7A6FD0830FDF7A3FD00F5BB
:1033DC00F470FDF79FFD334AD2F88C3043F4406310
:1033EC00C2F88C300022D30003F57F0303F5404371
:1033FC00D3F8001401310AD0D3F8001439B1D3F842
:10340C0000140132D3F80434402A0B60EBD1214B69
:10341C00D3F84024002A38D0FDF76CFD48B11F4B7F
:10342C00D3F83423204B9A429EBF1A4B1F4AC3F841
:10343C004026FDF75FFD18B11D4B1E4AC3F8AC27A3
:10344C00FDF758FD48B13422124BC3F82426D3F8AB
:10345C003C2622F40022C3F83C26174B1149D3F822
:10346C000026D20744BF6FF00102C3F800260323E5
:10347C00124AC2F81835D1F88C3043F44063C1F8C5
:10348C008C300023C2F8A03508BDC822C3F84024F4
:10349C00C2E700BF0000125000C50D5000C0FF0075
:1034AC000030055000ED00E0001D0A1840E0A91E98
:1034BC0000A0085078000A0400E0105000B004503E
:1034CC00074A1368591C11604BB9064A4820D2F8B8
:1034DC00003443F00703C2F80034FDF7EFB870472F
:1034EC00180700200080045010B5124B1C68013CDA
:1034FC001C60ECB94820FDF7EFF807220E4BC3F81F
:10350C000823D3F8002422F00702C3F80024C3F8E0
:10351C000041D3F80021C3F80441D3F804214FF43F
:10352C008072C3F80841D3F80831044BC3F88821E2
:10353C0010BD00BF180700200080045000E100E01F
:10354C00302816D00DD81238C0B2192806D801234D
:10355C001C4A83401A408ABBDB071ED46FF08600DE
:10356C007047412821D04228F8D1FF291FD1164B92
:10357C0021E0B1F5A07F21D004D8E0291ED0B1F50F
:10358C00807F04E0B1F5C07F18D0B1F5007F0CBF8F
:10359C006FF085006FF086007047B1F5C07F0DD0DD
:1035AC00EBD940F209239942F1E7FF2902D0B1F59A
:1035BC00E07FECE7054B0020136070476FF085004F
:1035CC00704700BF20022102B0760000A4760000F4
:1035DC0010B51E4C4368B4EB132F4FEA132215D1D0
:1035EC0042691B4B9A420CD003F5FF437D331344C5
:1035FC00012B03D80388B3F5105F1DD06FF0860044
:10360C0019E047F2121302889A42F6E7114B9A42DC
:10361C00F4D1028802F44F43B3F5824F0ED14388A4
:10362C0044F21210073382424FEAD30301D15B00FC
:10363C00013300200B6010BD0223FAE7B2F5885F5E
:10364C00FAD143880733DB08F3E700BF004E800054
:10365C0001C0FF7F4B4E800038B5044602F080FD60
:10366C0025688DB94FF412722946201D03F049FECE
:10367C00084B28466360012384F848328023C4F841
:10368C00C4310523236038BD204603F0BFFB6FF027
:10369C008800F8E7348A000008B5FDF72BFD0123FC
:1036AC000360104B0A6832B9D3F80C211AB9D3F85D
:1036BC000821002AF6D00B687BB90B4B99420ED02F
:1036CC00A3F58473D3F80831002B0CBF4FF0FF30F7
:1036DC006FF00200FDF70EFD08BD0020FAE74FF079
:1036EC00FF30F7E7005004500851045038B5064D30
:1036FC000C46C5F8000505490548FFF7CDFF10B984
:10370C00D5F80835236038BD0050045010510450D2
:10371C000C50045040292DE9F04104460E462FD898
:10372C000378033303F00303012B21D86FF021003E
:10373C0003F09DFA054640B913493246204603F082
:10374C0002FE4021104803F055FB2846BDE8F081ED
:10375C00637838462B44C8F80035FFF79DFF68B9ED
:10376C0001352378C3F382039D42F1D30020DFE7B8
:10377C000025DFF818800649064FF2E70220D7E74C
:10378C006FF08905E1E700BF0000002000500450F5
:10379C00045104500450045010B50446012002F0AA
:1037AC001FF9064B0649C3F800450648FFF774FF9E
:1037BC000446002002F014F9204610BD00500450BD
:1037CC00085104500850045010B5F82003F048FB81
:1037DC0018B9F92003F044FB10B16FF0920010BD42
:1037EC00F823094C09490A48C4F80035FFF754FF7F
:1037FC000028F2D1F9230648C4F80035FFF74CFF36
:10380C000028ECD0E9E700BF0050045004510450EC
:10381C00045004502DE9F04FAA4CA1B062780DF180
:10382C00770323F01F03022A0193237801D1072B7E
:10383C0022D013F0010509D1DFF88C92A349D9F8F5
:10384C0000208A421ED143F00103237023789F0786
:10385C0006D401219E4A43F0020382F8801523709E
:10386C00627823781AB9DE0744BF022262705D07C2
:10387C005CBF43F0040323704FF0000A504621B0A4
:10388C00BDE8F08FFFF71CFE924B01211D60924B9F
:10389C0048201D60914AFCF731FF914B914952F839
:1038AC00040B43F8040B8B42F9D100238E4DEB66CD
:1038BC008E4B2B6003F5C0436B602B6D0BB9FDF782
:1038CC00C1FC6B6D1C22B3F5007FCCBF4FF4806341
:1038DC004FF40073002103A8AB6003F012FDF82035
:1038EC0003F0BEFA28B9F92003F0BAFA002800F068
:1038FC00DB807F4DD5E90C3213432AD0D5E90C324D
:10390C00023342F10002B2F5803F7ED220260DF147
:10391C00280B102EB0464FF0010228BF4FF01008B4
:10392C001027744911F8010D013F02440A704FEA47
:10393C001222F7D1019801F05BFF824670BB002E7A
:10394C007CD1D5E90C21013241F10001C5E90C21F2
:10395C00DFE7AA6B684B9A42D8D000231A46EA5488
:10396C000133402BFBD10AAE304601F091FE80B9F9
:10397C003046FEF7A5FF002845D103460246F25417
:10398C000133302BFBD100230122C5E90C235A4B08
:10399C00AB6303F06CF982460028AFD0FFF7A4FDAF
:1039AC002378580743F0010144BF23F0040343F08C
:1039BC0001012170890719D5454D00262F464FF07E
:1039CC0001094FF003082846C5F8209085F81C80A3
:1039DC00013602F0CAFF202E05F12C05F3D100238D
:1039EC0087F88035237823F0020323700023042109
:1039FC0042486370FDF750FB2378DA0744BF23F08D
:103A0C00010323703AE70E20C3E70AAE304601F0FB
:103A1C003FFE80B93046FEF753FF82460028BDD1E9
:103A2C0002460346B3540132302AFBD10022002354
:103A3C00C5E90C236AE76FF0920AAFE74246584695
:103A4C00019903F080FCD5E90C21013241F1000110
:103A5C00B6EB0806C5E90C21C3447FF45AAF3846CF
:103A6C00FEF72EFF8246002898D14FF4807302A8EF
:103A7C00029302F0EDFB029BDFF884E00593214BEF
:103A8C00F8210693204B0AAACDE903E31F4B03A8A8
:103A9C00089301F0AFFF824620210AA803F0AAF98F
:103AAC00BAF1000F7FF47AAFFFF78EFE8246FFF774
:103ABC001BFDBAF1000F7FF473AF044BC9F8003053
:103ACC002378C0E6100D0020000200201173650061
:103ADC008C070020E4020020E0020020BC760000ED
:103AEC0000C080511CD380511C0700200020805145
:103AFC0078020020A8020020B4A5B4A5140D002063
:103B0C00002400010010C004014B4E80F800FF7F20
:103B1C0070B588B001AE182205460C46304600211F
:103B2C0003F0EFFB012044EA05240794059001F013
:103B3C0057FFBA2309480A49C0F80035C0F8046594
:103B4C00FFF7AAFD0446002001F04AFF002C0CBF31
:103B5C0020466FF0920008B070BD00BF00500450BA
:103B6C00005104502DE9F3470E46DDE90A79694608
:103B7C0082461446984603F058F9002852D1BAF1FF
:103B8C00F80346F1FF36022B76F10006C0F0B68042
:103B9C0003F07FF9002845D19DF8006016F00F0264
:103BAC0040F0AF80BDF80230C3F3C113013BDBB270
:103BBC00022B00F2A9805A4906F03006C95C594B19
:103BCC00102E43EA010363602FD1574B236020462C
:103BDC0001A9FFF7FDFC28BB019BBB4200F29D80B5
:103BEC0044F212122188914204BF042208F8012BDE
:103BFC00C9F800309DF8003098F80020C3F3011389
:103C0C0063F3010288F800209DF8022008BF07F139
:103C1C00FF37C2F30212042A49D8012A4BD851D0DB
:103C2C006FF0980002B0BDE8F0879DF803101346C2
:103C3C0010463E4A4908F9B9019001A802F008FB68
:103C4C009DF80230019A03F00F010A29A26061D19C
:103C5C0047F2421112F4A05F44F2421218BF0A4616
:103C6C00C3F302132280324A013BE260032B0FD8CC
:103C7C00DFE803F00C16181ACD0704D5062B46D82E
:103C8C0052F82350284349080133D4E7802363803A
:103C9C009DF8003013F0300F99D16FF09600C1E70A
:103CAC00C023F4E7FF23F2E74FF48073EFE7052A14
:103CBC00B6D1032206E044F2121322889A4214BFB2
:103CCC0002220422202E00D1023298F8003088F80B
:103CDC0001A062F3840388F80030238803F44F4278
:103CEC00B2F5824F06D13946404602B0BDE8F047E6
:103CFC00FFF710BDB3F5885F94D1F4E76FF0860041
:103D0C0090E76FF088008DE76FF091008AE76FF015
:103D1C00830087E76FF0920084E76FF0890081E7FA
:103D2C00BC930000004B4E8001108001887600008F
:103D3C000008000600232DE9F0417F4D0B6095F83B
:103D4C00802507460E468CB0002A00F0EF8000F16B
:103D5C0040421F2A66D82C2303FB02552B7F022BD3
:103D6C0055D031460020FDF7F3FC0446002870D1F5
:103D7C000122336801465F61336805A85A603568D3
:103D8C001C2203F0BEFA6F696C4A07F14043A3F59D
:103D9C0080539342CDE9024400F2BF80684B9F42AE
:103DAC005BD001339F4258D0023B9F4255D0FFB2AB
:103DBC00384604A903F039F80446002840F0858001
:103DCC00BDF81230C3F3C113013BDBB2022B00F27E
:103DDC009E805C4AD25C5C4B13436A690693DBB2EF
:103DEC000A9203B90A900023CDE9004438461946DB
:103DFC0005AAFFF7B7FE10F18A0F044635D03068DC
:103E0C00002C62D102F0B1FD6FF096042AE06B69D0
:103E1C009842A6D1284602F017FD0446B0B9356089
:103E2C00002416E0002840F384802A46117F0229E2
:103E3C0002D151698F4205D00133202B02F12C02A3
:103E4C00F4D18EE72C2202FB0355E3E710F18C0F23
:103E5C0087D020460CB0BDE8F081306802F085FDBB
:103E6C006FF0850400233360F3E7069B374A4FEA73
:103E7C001328B2EB132F02D0354B984547D102A92A
:103E8C0005A8FFF7A5FB0446F8B928460299FDF7EB
:103E9C001BF90446C8B9D5E909322C49884502D02A
:103EAC004B31884518D103A9CDE9002138460021B2
:103EBC0005AAFFF757FE044688B1686A10B1A96AD3
:103ECC00FDF7F4F80023C5E90933306802F04DFD25
:103EDC0014F18C0FC6D123E06FF08B04EDE7039B3C
:103EEC0005ACAB620FCC0FC594E8070085E8070062
:103EFC003068083002F0ACF933681A7F012A12D00E
:103F0C00306802F0A1FC0446002889D0AAE730688A
:103F1C0002F02BFD6FF08604A4E7284602F025FD85
:103F2C006FF087049EE702221A77E9E76FF08804A6
:103F3C008FE76FF087048CE78C070020FFDFFF3FD3
:103F4C0002C0FF7FBC930000004B4E80004E8000EF
:103F5C004B4E800038B52B4B1B7843B12A4B1A685B
:103F6C00002A41D01A6819680021196032B9BFF3D0
:103F7C005F8F4FF0A3439A6ABFF35F8FBFF35F8FDE
:103F8C004FF0A344E36BBFF35F8F12F0240F03F0E9
:103F9C0023032BD0BFF35F8FE569BFF35F8FBFF3B4
:103FAC005F8F10236363BFF35F8F184B1868184B38
:103FBC00B0FBF3F0174B43F001039847BFF35F8F4F
:103FCC0000236363BFF35F8FBFF35F8FE36BBFF3BC
:103FDC005F8F5B06F8D425B1BFF35F8FE561BFF34C
:103FEC005F8F6FF01F0038BD20BFB8E74FF0FF3078
:103FFC00002BF8D1BFF35F8F2063BFF35F8F1846A0
:10400C00F1E700BFBA210020E40200202C020020BE
:10401C0040420F0040750000BFF35F8F094A1368E0
:10402C00BFF35F8F43F48071BFF35F8F1160BFF3F9
:10403C005F8F23F48073BFF35F8F1360BFF35F8FC9
:10404C00704700BF00108051BFF35F8F4FF0A34348
:10405C000022DA61BFF35F8FBFF35F8F4FF0FF3247
:10406C001A63BFF35F8FBFF35F8F3422DA61BFF344
:10407C005F8F0122014BC3F804237047008004506A
:10408C00B1F5DE7F38B5044624D303681D6815F0FE
:10409C00400522D1FFF714FA01212176FFF7D4FF56
:1040AC000F4B2846636023680E4A1B68C4E903550E
:1040BC00A36204F12C03236204F128036362E36717
:1040CC001323C4E9212304F18C03E361064BA160A3
:1040DC00636138BD6FF02200FBE76FF00200F8E778
:1040EC007876000004000020251100000368DA68CF
:1040FC00D203FCD4DB6824481840B0F5806F2FD075
:10410C0017D840282ED008D810282DD020282DD0F4
:10411C00003818BF012040007047B0F5807F27D0D1
:10412C00B0F5007F26D0802808BF0B2018BF0220D6
:10413C007047B0F5804F1FD00AD8B0F5805F1DD006
:10414C00B0F5005F1CD0B0F5006F08BF0620EDE79E
:10415C00B0F5004F16D0B0F5803F08BF0320E5E75F
:10416C00112070470A2070470C20704709207047B7
:10417C0008207047072070471420704705207047AF
:10418C00042070470F207047F0FF010038B5114D27
:10419C000446C5E90415FFF793F9042200210E4BE0
:1041AC00C3F804230D4A2B68D868C0030AD403F55E
:1041BC0080535B6A13F4A02304D1C4E90053204656
:1041CC0038BD20BF1368002BFBD013681368116037
:1041DC00E9E700BF1C07002000800450E00200202B
:1041EC000422054B10B5C3F808230446FFF77CF9ED
:1041FC0000232361A36410BD008004502DE9F04F0F
:10420C0090469B4642690369D0F84CA09D680446D1
:10421C00D0E901730E46D2F86C9085B0BAF1000F5C
:10422C0006D0FFF7DDFF1025284605B0BDE8F08F5E
:10423C004F490A6D22B90193FDF704F84C49019BD3
:10424C00326810064CBFCA6D4A6D7068904204DD2E
:10425C002046FFF7C5FF0D25E6E72269E060B9F1BE
:10426C00000F02D0116948EA010831681268013860
:10427C00114341EA0021226841EA08015160226998
:10428C001268D10002D5E2689A1A17449DBB3368B4
:10429C0013F4700F3AD0B9F1000FC5D023691B6924
:1042AC00002BC1D0D9F8083048469847D4E90167AB
:1042BC00CDE902012369E2681B6806EB071613F0CF
:1042CC00805F42D0C1F3076100F03F0341F0010170
:1042DC0043F020038DF80F10B01AA2F108018DF8ED
:1042EC00083002F077FB083E082230460DEB020145
:1042FC0002F048FF98E7EA0748BF4BF82A704FEAEC
:10430C00650548BF0AF1010A1F44BFE72369D6F8C7
:10431C0008801B68D4E9017BDB0042BF7368ABEB00
:10432C000303FF18B8F1000FB5D04FF0000ABAF133
:10433C00060FB0D041463846726802F023FF73680E
:10434C005F4498440AF1010AF1E7C1F3056141F0B9
:10435C002001F61B40F001038DF80F1006F1080048
:10436C00A2F108018DF8083002F034FBBCE700BF65
:10437C001C0700202DE9F04F80460024ADF55F7D31
:10438C0002AF07F592707962FFF766F9B8F808305A
:10439C00B8F80A20D8F80C601344DFF8FC911E44DE
:1043AC00A64200F2BA8007F1A40107F5927002F060
:1043BC00F5FD07F5927002F029FD7B6A002B00F0E9
:1043CC00BD80D8F80C30B8F80840786A1C442146F7
:1043DC00042307F5927201F08CFFF860002840F07E
:1043EC00AD8046F60812B7F82411B8F80A3091429D
:1043FC0040F0B480B7F82611994240F09F80042316
:10440C00786A07F59272214401F073FF002840F09E
:10441C00958046F60713B7F824219A4240F08E8017
:10442C00B8F80A305D482344BB61BA69B7F8263145
:10443C00C16D1344BB60436A5A684FF4F97303FBB4
:10444C00012153424F311940836A406D013B534364
:10445C0042435B1A521A934228BF1346BA689A42D7
:10446C006CD84FF0FF35231D2C463B62BB683A6A73
:10447C00934240F26E84B8F80A3023B1BB69934280
:10448C0004BF04333B620423D7E9081007F592728A
:10449C0001F02FFF002851D13A6AB7F82431111DD1
:1044AC00BA69B7F826618A4208D84FF6FF7C3C48B7
:1044BC0030F8022B624541D09A42F9D1122B51D0DF
:1044CC00242B71D0012B62D1402E37D83346786A19
:1044DC0007F1640201F00DFF80BB07F59270FFF746
:1044EC00BBF82C222F4907F5927002F092FD07F1D0
:1044FC00E40107F5927002F051FD07F5927002F09D
:10450C0085FC324607F1640107F1E40002F028FF54
:10451C00051E18BF01256D4239E0351BB5F5807FAE
:10452C0028BF4FF480754A462B462146786A01F025
:10453C00E0FE58B107F5927002F068FC4FF0FF34C2
:10454C00204607F55D77BD46BDE8F08F2A46494603
:10455C0007F5927002F05DFD2C4421E7002B3FF42F
:10456C0058AFEBE7402EE9D13346786A07F1640285
:10457C0001F0BFFE0028E1D1324607F1640107F1DA
:10458C00A40002F0EDFE0028D8D10123FB603B6AA9
:10459C00043633443B6269E7BA18002078170020D0
:1045AC00E88B00001B920000002DF0D1402EC5D1ED
:1045BC003346786A07F1640201F09BFE0028BDD1F6
:1045CC006A493023F96207F138022C3107F12C00CB
:1045DC0001F02AFE00287CD1FA6ABB6B07F12C0093
:1045EC0002EB030A5146302307F1480201F01CFE8E
:1045FC0000286ED1FB6AAAEB0302002A69DD1A7847
:10460C0007F12C00C7F8E420BA6C03EB0209494609
:10461C00062307F1E80201F007FE002859D1FC6AD5
:10462C00D7F8E850C7F8EC4063199945FB623AD1CA
:10463C000C2107F59270FCF72FFD032D49D12A466A
:10464C0020464B4902F08CFE002842D12B465146A5
:10465C0007F1380207F12C0001F0E6FD002838D1F3
:10466C00BB6BB3B3FC6A03F1FF3BC7F838B02178DE
:10467C0079BB234404F101099A45C7F82C9028D141
:10468C00BBF1200F25D11C2207F14800F96102F083
:10469C0038FEFFF7BFF8F9690246F8B145213548F5
:1046AC00FEF756F915E0625D0133C7F8242149463F
:1046BC0007F5947207F12C00FB6201F069FD40B91B
:1046CC00FB6AD7F82821C7F82C3113449945FB62B3
:1046DC00B3D04FF0FF344FF0FF3558E744F242139C
:1046EC00A7F848304FF4006307F59270C7F82431EF
:1046FC00F96101F0ADFD204B0068F9697B65B7F8F5
:10470C004A303865B963C7F8E4B013B1FF2B40F0F9
:10471C003B8104F1200214F801CFA24241EA0C01C2
:10472C00F9D1002900F0308197F84CA0FA6DBAF15C
:10473C00000F05D0BAF1FF0F22D16FF086020CE00A
:10474C0020F0031020F47F401043F6D14FF6F8729E
:10475C00934240F2D5806FF08502B86B18B1FA61C4
:10476C0002F003F9FA694521044899E71B9200000D
:10477C00A69300001B8E0000000800063B8E000074
:10478C00002ADADD20F0031020F47F400028D4D179
:10479C004FF6F8729342DED807F13801FCF7D8FFD8
:1047AC003861002840F0AF80BC6B07F1480EA4467E
:1047BC00BEE80F00ACE80F009EE807008CE807008D
:1047CC00BAF1000F02D1D7F824316361A26AFB6CF5
:1047DC00002A00F09A802246F86CDFF8B8C2D4F8B0
:1047EC0024B0BCEB102F52F8283F4FEA102100F0F8
:1047FC00B580A948814200F0B18000299DD107F510
:10480C00927ACDE9002A49465A4607F1480001F050
:10481C0009FA10F1860F024640F0AB80B7F8483029
:10482C0003F4E042B2F5805F95D14FF48072C7F883
:10483C00242141F2062293428DD8B3F5905F80F08B
:10484C00838041F20102934202D0B3F5885F82D19A
:10485C0009F1200359F8042B99454BF8042BF9D195
:10486C002023A3626288D7F82431002A40F0858087
:10487C0063804FF6F87293423FF66DAFB7F848304D
:10488C001BB122889A427FF458AFB7F84A301BB15B
:10489C0062889A427FF451AF63697B61237F012B5D
:1048AC006FD102237869237707F13001FFF742FAC1
:1048BC00044600286BD0224645217848FEF748F87C
:1048CC007B69002B3FF405AF786907F1E401FFF732
:1048DC0031FA814670B9D7F8E4B09BF81C30022B42
:1048EC0000F0AE81584602F060F8002840F0EF81ED
:1048FC006FF096094A4657216948FEF729F8BBE143
:10490C0007F5927048E73A6927E71B0A09D1204658
:10491C00D7F8E410FCF7D8FB024600283FF45BAF55
:10492C001BE7C7F8E4205B4A934203D04B32934217
:10493C007FF403AF07F1E40107F14800FEF748FEEE
:10494C0002460028E3D008E76922A3F590539BB2F6
:10495C0022FA03F3D9077FF5FEAE79E707F59271DA
:10496C00CDE9002107F148005A46494601F05AF9B1
:10497C000246002A3FF476AFEFE693427FF4DDAEB9
:10498C0077E76FF09602E8E66FF08602EBE6D7F871
:10499C0030A0DAF80830BAF800B01A050BD5584632
:1049AC00DAF80C1001F014F858B95846DAF810106F
:1049BC0001F00EF828B9504601F0F7FF6FF08404AF
:1049CC0079E7DAF804103348DAE90932B0EB112F41
:1049DC007A604FEA11290CD02F49894509D0B9F1D9
:1049EC00000F06D0504601F0E0FF6FF0850B5C46DF
:1049FC0061E70BF44F41B1F5824F46D12BF0FF0428
:104A0C00B4F5824FC7F81CD002D0B4F5E24F3CD1BC
:104A1C005FFA8BF04228BAF802102DD101F108028E
:104A2C00D208073222F00702ADEB020D00227A63A6
:104A3C0007F134023B60FEF783FD0DF1080A834653
:104A4C00002840F0D080134A3B6891451BD0B4F548
:104A5C00824F27D1194650467A6802F074FC7B6B62
:104A6C005B68202B00F0C980D7F81CD0386B01F0A4
:104A7C009CFF6FF0940BBAE7CA1D41284FEAD20293
:104A8C0005D1002ACDD1D7F81CD0386BABE752003A
:104A9C000132C6E7004E80004B4E80005D8E000058
:104AAC008B8E0000BB63202307F1E40BFB6307F143
:104ABC003C020123CDF800B007F1380107F59270E4
:104ACC0000F0EEFE0446002840F086809BF8003093
:104ADC0007F2231123F007038BF800309BF81F30EB
:104AEC0003F07F0343F040038BF81F301F23CA1AD7
:104AFC00013B1470FBD29A4907F14000FFF746FBCB
:104B0C00D7E91094002C67D122464846954907F501
:104B1C009273FFF773FB044600285DD1202259469F
:104B2C00D7F8240102F02EFB2022D7F8280107F534
:104B3C00827102F027FB484602F032FBFFF7D6FAEF
:104B4C00D9F810300446D9E9012059681B68DB00FC
:104B5C0003D5D9F80C30C31A1A4400230DE011F018
:104B6C00010F08D00B2B01D902F0C3FB03F1060C8B
:104B7C0049F82C200133024449100029EFD1D9E91E
:104B8C0006E307F5827C03F1200B6246186859682E
:104B9C00083303C25B459446F7D19EF8002097F882
:104BAC002331484643EAC21387F82331FFF718FB39
:104BBC0094B9524607F5827C07F5927E634603CB87
:104BCC007345106051609C4602F10802F6D14021F9
:104BDC0007F1E40002F00EF9204602F048F8834693
:104BEC0000283FF43CAF1BF1860FD7F81CD03FF4E4
:104BFC004CAF386B01F0D9FEF9E6402207F16403A3
:104C0C00504607F1A40100F075FE02F030F810F1E7
:104C1C00860F8346D7F81CD03FF437AF386B01F0C2
:104C2C00C4FE0446BBF1000F7FF4E1AE00287FF414
:104C3C0042AE7B69002B3FF44EAD01233B6143E652
:104C4C000323DBF804108BF81C30CAB2FF2A06D100
:104C5C00584601F0AAFED0BB6FF084094AE6DBF897
:104C6C001440414804F14043A3F58053834206D9D4
:104C7C00584601F09AFE50BB3B695C1E2BE53B4B42
:104C8C00B3EB112F06D0584601F08FFEF8B96FF038
:104C9C0085092FE6032ADBD0E4B2204607F5927192
:104CAC0002F0C3F8814660B997F82631D7F8242171
:104CBC00C3F30213042B0CD8012B3CD844D06FF057
:104CCC009809584601F071FE00283FF413AE814656
:104CDC0010E6052BF3D102F03003202B00D1023566
:104CEC004FF00009DFF888A0224909EB04022248A2
:104CFC00CAF80025FEF7D0FC40BB09F101094D456F
:104D0C00F3D1FEF761FD18B940211C4802F072F88E
:104D1C0049462046FEF7FCFE81460028D1D102F020
:104D2C00B8F88146584601F040FE0028CFD1B9F1C1
:104D3C00000FA1D0DEE544F21213BBF800509D42E7
:104D4C0014BF02250425C6E70125C4E76FF08409CA
:104D5C00E8E7FB68002B7FF4F3ABFFF7EFBB00BF7A
:104D6C0068750000B0760000FFDFFF3F4B4E8000FF
:104D7C000050045004510450045004500000002012
:104D8C002DE9F8432C274743DFF8AC80064608EBA7
:104D9C000704256A89460DB902F0ABFA04222146B4
:104DAC00284601F034FC10B92069C3061BD5BEB1EE
:104DBC002846FCF725FC99F80730042B0CD1D8F8C1
:104DCC0020000028E8D0FCF71BFC024640B9492122
:104DDC001A48FDF7BDFD03E0FEF756F80428EED0A7
:104DEC000120BDE8F883216A0029D5D058F80720A6
:104DFC00134B9A4204D0BEB9124A45211248E8E737
:104E0C00E26823899B18F6D26289D218F3D28B6898
:104E1C009A42F0D240F60C631842ECD12046FFF7D0
:104E2C00A9FA00B9DDE7E6E70023AA681946284687
:104E3C0001F05CFD054AE0E778170020BB8E00000E
:104E4C003DB8F396A98E0000FA8E0000B18E0000DA
:104E5C0001252DE980489E4B8FB003201D70FCF777
:104E6C00B5F89C48FDF774FD9B48FDF771FD9B4818
:104E7C00FDF76EFD0420FCF7A9F849219848FDF7D1
:104E8C0067FD984C60220021204602F03AFA284631
:104E9C0004F12001FDF7DAFF002840F0D280022057
:104EAC0004F14C01FDF7D2FF002840F0CA80A62681
:104EBC008D4A284602F5A6630AA9626223650A9602
:104ECC0002F0CCF9F0B1324657218848FDF740FD8D
:104EDC00012384F858308DF82F3094F85830FF2B7C
:104EEC0000F0AA810021012B089100F012820846E3
:104EFC00FDF73AFF002800F00C8245217C48FDF7B5
:104F0C0027FDFEE70A9B0220226D0AA9A3620A96DE
:104F1C0002F0A4F978B1324657217448FDF718FD18
:104F2C0084F8585000210846FDF71EFF58B10022A6
:104F3C0057217048CAE70A9B6365236AD86801F059
:104F4C0094F9E065EEE7A66A656DAE4207D06B1C7E
:104F5C009E4204D057216848FDF7FAFCB8E7A62E0C
:104F6C0071D800231F46626A216D043204319D42C0
:104F7C006CD1236AD86801F078F9E36CD86801F039
:104F8C0074F9AE4205D9636A03EBC5035B68BB4297
:104F9C0062D101230A9303F101230B930023206AAE
:104FAC0006A9CDE90C33FCF7E5FF002849D19DF8A3
:104FBC001820012A55D0514B5149032A08BF0B46E2
:104FCC009DF81B20492102929DF81A204D48019210
:104FDC009DF8192000924C4AFDF7BAFCE06C08A928
:104FEC00FCF7C8FF814660BB9DF82020012A3AD00F
:104FFC00424B4349032A08BF0B469DF82320492105
:10500C0002929DF822203F4801929DF821200092A7
:10501C003E4AFDF79DFC9DF818B0BBF1010F24D161
:10502C009DF81A30032B20D19DF82030012B1CD079
:10503C0049213748FDF78CFC0223266A0D93002E7C
:10504C0070D102F056F95721324885E752F8337087
:10505C0051F83300874202D057212F487CE70133A7
:10506C0085E72E4BACE72D4BC7E749212C48FDF7C4
:10507C006FFC00230D930AA801F07DF880F001006D
:10508C000AA9C0B2FDF770FE00287FF450AF0AA841
:10509C0001F071F8002840F0E1800AA8FDF790FCBF
:1050AC000028CED19DF82F30DA1E012A84F8583012
:1050BC0000F2C78001F04BFE9DF82F30002840F025
:1050CC00AD80023B022B40F2AF8094F85830BBE02D
:1050DC00BA210020228F0000538F0000868F000021
:1050EC00B48F000078170020180D0020CD8F000021
:1050FC00DD9100000F9000003B9000004D8C0000F3
:10510C00478C0000EA8C0000CE900000DA8C000086
:10511C00DC90000073900000A2900000428C000014
:10512C00FB9000003378013B012B73D8F0684FF4EF
:10513C00F978E56D01F099F808FB00F0B76850308C
:10514C008742FFF47EAF40F2F1135FFA85FA4FF01D
:10515C00FF3503FB0A773F1A01233946304608AA6C
:10516C00CDF81080CDF814B001F0C3F8B0F1000BFD
:10517C0008F1FF384EDB0122304608A901F047FA4E
:10518C00A8B3059B9B4501D009F10109A7EB0A07C0
:10519C00B8F1000FE0D1B9F1010F03DD4521A548AD
:1051AC00FDF7D6FB6A1C07D0A52D26DC40F20113B7
:1051BC0001350A95ADF82C30B1680123203921F066
:1051CC000F01304608AA203901F093F810BB0122D8
:1051DC00304608A901F01BFA10B101238DF82030DC
:1051EC009DF8203003F00F038DF82F3043E7049B1C
:1051FC00B5F1FF3F08BF1D46C8E70223A63D8DF859
:10520C002D306B1005F00105013301350A938DF833
:10521C002C50D1E700225721874857E6FF22023B4A
:10522C00022B84F8582007D801F0A9FD00283FF480
:10523C004CAFFF2384F8583045218048FDF788FB9C
:10524C00FFE69A1E022AEFD9FF2BF5D00021084663
:10525C00FDF78AFD00283FF43BAEF2E69DF82F6087
:10526C00012E28D1FDF710FE831E022B054611D806
:10527C0030460AA9FFF784FDB0B9E8B284F85800AB
:10528C008DF82F00012829D83FF427AEFF2384F88E
:10529C00583022E6C0B2042884F858008DF82F004C
:1052AC00F0D9052811D0F1E7012809D184F858006C
:1052BC008DF82F0011E601200AA9FFF761FD50B10E
:1052CC00052384F858308DF82F3001F040FD00286C
:1052DC003FF403AEDAE79DF82F00DCE70AA8FDF7F0
:1052EC006FFB00287FF4ADAE94F85830DA1E012A1B
:1052FC000BD801F02CFD20B901F041FD00283FF442
:10530C00ECADFF2384F858309BE6022B7FF4E5AD1F
:10531C00F2E700210846FFF733FD824600287FF4B0
:10532C00ECAD089B01330893089E012E00D0FEE7DC
:10533C00236A5D6849212A464148FDF709FBE38A47
:10534C0049210093637D227D3E48FDF701FB4921F5
:10535C003D48FDF7FDFADFF8F480228967232A44E3
:10536C00D8F804505446ED43394FDFF8E8903A60D2
:10537C0005F06705C9F82833002D79D1E420FBF737
:10538C00ABF9344BD3F8482722F00102C3F8482775
:10539C00D3F8102522F00102C3F81025D3F81025FC
:1053AC0022F00202C3F8102501225A669A6688F888
:1053BC000050EFF31182202383F31288BFF36F8F19
:1053CC002548818E01F00701022972D1C38E013B61
:1053DC009BB2C386002B6CD11C30FBF74FF81F4BD4
:1053EC001F4A1B684FF47A70B3FBF2F358431D4B02
:1053FC00002443F0010398476723DFF85890DFF847
:10540C0068B0DFF868A0C9F828330126A64016F06A
:10541C00670FE1B252D0D8F80430DB4303F06703D6
:10542C00334240F0BB800846FBF7C4FD584601F000
:10543C001EF946E012910000359100005F910000CA
:10544C006B9100009A910000B89100008000002040
:10545C00D817002000200E50181800202C02002015
:10546C0040420F00507500008400002000210E50B7
:10547C00D8F80830E1B206FA01FB0BEA030313F08B
:10548C00670F13D00846FBF795FDD8F80430DB43C3
:10549C0003F0670313EA0B0F08D009EB0113C3F8F1
:1054AC002CA5EB0702D54C4801F0E1F86D0801344E
:1054BC0062E782F31188BFF36F8F90E70846FBF722
:1054CC0079FD0134072CA0D14FF0FF3800244FF0A8
:1054DC000109424EE420FBF7FFF8C6F80883C6200A
:1054EC00FBF7FAF8C6F82C90C6F85041D6F85031B4
:1054FC00C6F84C41D6F84C31C6F82441D6F82431C4
:10550C00C6F8004506F578364FF48270C6F8088365
:10551C00FBF7E2F8C6F82C90C6F85041D6F850319B
:10552C00C6F84C41D6F84C31C6F82441D6F8243193
:10553C002B4BC6F80045C3F80883BFF36F8F72B6C8
:10554C00284B04F120020134102C43F82280F8D1AE
:10555C004FF0FF3105F160020135102D43F8221098
:10556C00F8D10024204BC3F80444FBF795F884F3DE
:10557C000B8884F30A883B681B6883F3088884F3E0
:10558C001488BFF36F8FBFF36F8F3B685868174B4E
:10559C00984745211648FDF7DBF9FEE7D8F80830A7
:1055AC00334013F0670F3FF43EAF0846FBF702FDA4
:1055BC00002209EB0413C3F82C25D9F820331E4222
:1055CC003FF431AFC9F828635AF82430002B3FF46C
:1055DC002AAF4AF8242026E78400002000600C50F3
:1055EC0000E0105000E100E0002008E04100002045
:1055FC0000920000F0B50388C76803F44F42B2F57F
:10560C00824F08BF1D4603F4E0441F4B18BF002512
:10561C0000201A46EDB21E78AE4223D1D3E9026CBB
:10562C00D1F800E0B4F5804F08BF6646BEF1000F1C
:10563C000BD1202E09D1142303FB002253680B60DD
:10564C00137CABB96FF08500F0BDD3F804C0E64510
:10565C0008D1202E02D06FF08600F5E7142303FB4F
:10566C000022EDE70130132803F11403D3D1F2E744
:10567C00422D06D1054B9F4203D003F20B139F42E0
:10568C00E9D10020E0E700BF688A000000080006AE
:10569C002DE9F04107463025514CDFF84881202D8B
:1056AC002E46A8BF2026FDF70BFFFEF7B5FCBFF377
:1056BC005F8FE368BFF35F8F9B08013BBFF35F8F86
:1056CC00A360BFF35F8FBFF35F8F00232364BFF32F
:1056DC005F8FBFF35F8FF1226264BFF35F8FBFF305
:1056EC005F8F4FF400726263BFF35F8FBFF35F8F06
:1056FC00C4F80080BFF35F8F07E0FDF7F5FE6FF095
:10570C003F052846BDE8F0810123BFF35F8F226B74
:10571C00BFF35F8F5108C2F34202052A5CD011F02F
:10572C00060FF2D023BBBFF35F8F6268BFF35F8FAE
:10573C00032AEAD92C4B2D4ABFF35F8FD4F8801083
:10574C00BFF35F8FBFF35F8F43F8041BBFF35F8F13
:10575C009342F1D1FEF760FCBFF35F8F2368BFF378
:10576C005F8F43F00103BFF35F8F2360BFF35F8F45
:10577C003246BFF35F8FA368BFF35F8F0133B6EB85
:10578C00031FBAD8BFF35F8F6368BFF35F8FB6EBAD
:10579C00830FB9D8BFF35F8FD4F88030BFF35F8F1E
:1057AC003946081D01F8013B81424FEA132302F1EF
:1057BC00FF3208D0002AF5D1FDF796FEAD1B374419
:1057CC007FF46DAF9DE7002AF6D0BFF35F8FD4F85E
:1057DC008030BFF35F8FE4E7FDF786FE63E700BF21
:1057EC0000108051010004001010805120108051D5
:1057FC004FF4807313B504460193FDF761FEFEF779
:10580C0023FC214B01AA1A60112220492048C3E92C
:10581C00021240F6110103F110025A601D4AC3E94D
:10582C0006011A6120321A62212203F1200159610A
:10583C00012119485962C3E90A02184AC2E9011048
:10584C0020211460D160BFF35F8F4FF0A3410B6038
:10585C00BFF35F8FBFF35F8F0A61BFF35F8FBFF33F
:10586C005F8F03234B63BFF35F8FBFF35F8F8B633C
:10587C00BFF35F8FFEF76EFB431C0446FAD0FDF7B7
:10588C0033FE204602B010BD841800200400002016
:10589C002000002078020020100000207418002046
:1058AC002DE9F0411E46124B0C4603604FF4DE719D
:1058BC0005469046069FFEF7E3FBB8B9A8F104082D
:1058CC0004EB8606284658F8042F54F8041B01F004
:1058DC0003FB58B9B442F5D13946284601F02BFBED
:1058EC0020B92846BDE8F04101F040BBBDE8F0818D
:1058FC00348A00002DE9F0431D46324BADF50D7D89
:10590C00CDE90701CDE90535222120230DF134081D
:10591C00CDE90913CDE90B3207460323CDF80080FE
:10592C000AAA06A91DA8FFF7BBFF0446002844D10C
:10593C00FE7FEB7FF609DB0923494FEA467603A885
:10594C0018BF46F08046FEF721FCDDE90394A4BBAA
:10595C00324648461D491DABFEF750FC044660BB61
:10596C00202241461D9801F00DFC20221E9815A9FD
:10597C0001F008FC1F9C20222046394601F002FC55
:10598C002022FB7FA91803F07F03E377209801F016
:10599C00F9FB219C20222946204601F0F3FBEB7FEA
:1059AC00484603F07F03E37701F0FAFB4846FEF725
:1059BC009DFB04464846FEF713FC20460DF50D7D75
:1059CC00BDE8F08344020020548A0000B076000049
:1059DC0002480B1A58425841704700BF0008000695
:1059EC00034BC3F80005D3F80024D207FBD570474E
:1059FC0000B004502DE9F04788B004460D46164619
:105A0C0001F047FA78B963690090C3F3013262F38D
:105A1C0005108DF8000010F0300007D1A16889073F
:105A2C000FD06FF0860008B0BDE8F087102808D1C1
:105A3C00BDF8023023F4F87343F4A873ADF80230C8
:105A4C006DE0E76871498F4247D1238803F44F41D9
:105A5C00B1F5824F44D1D9B2422941D1A16811F498
:105A6C00A05F04D123F0FF03B3F5E24F38D00A2135
:105A7C009DF8023061F303038DF8023000234FF0E0
:105A8C00010A9E4619461F46D4F808C0DFF88081EB
:105A9C0058F8049B1CEA090F08D00AFA07F343EAEA
:105AAC000E0303F07F0E012341EA09010137072F92
:105ABC00EED12BB19DF803306EF347038DF8033014
:105ACC003CEA01010CD16388FF2B11D00BD8802B41
:105ADC002BD0C02B04D102230BE0DBB2F82BCDD0A2
:105AEC006FF085009FE7B3F5807FF9D1042300E0C8
:105AFC0003239DF8021063F306118DF8021010B900
:105B0C001CF0030F8DD12379022B1BD00FD8012B46
:105B1C0087D1BDF8021063F3C811ADF80210B2B111
:105B2C00032A7FF47EAF3B4F16E00123E1E7032B02
:105B3C0002D0FF2B7FF475AF0221BDF8023061F368
:105B4C00C8137BE7BDF8023043F4C07376E72388B3
:105B5C00B3F5105FC4D1304F284601F081F910B96C
:105B6C006FF08A005FE7681C01F07AF90028F7D023
:105B7C0002212846FDF7CCFF00287FF454AF009B90
:105B8C00044607930346DFF89490DFF894A0069739
:105B9C000DF10408C446BDF802203344C2F3C1120F
:105BAC00059203F1100E624618685968083303C257
:105BBC0073459446F7D101206119FFF711FFC9F81D
:105BCC00001516485146C9F80485FDF765FD0146D8
:105BDC000020FFF705FF21B101F05BF96FF0920097
:105BEC0021E71C21404601F005F944B907F11003E7
:105BFC0006934FF0FF33012407931023CAE7BA2012
:105C0C00FDF7CAFD00283FF40EAFE7E700080006D9
:105C1C0088760000000000204000815100500450A4
:105C2C00005104502DE9F04F0D46002195B0DDE9EF
:105C3C001E781646814602889B46C8F800103960CB
:105C4C00002B69D04168484C0B0AB4EB112F24D1BE
:105C5C0002A9D0F814A0FDF7BBFC0446C8B9029BFE
:105C6C009B457AD35FFA8AFA2A4651464846FFF793
:105C7C00C1FE044668B9214633465046CDE900B70B
:105C8C0003AAFDF76FFF044618B9BDF80E30C8F82B
:105C9C000030204615B0BDE8F08F002B60D122F00B
:105CAC00FF02B2F5E24F1DD14388BBF11F0F0393E6
:105CBC0053D903A9FFF79EFC04460028E9D10246FC
:105CCC00691E731E1F3511F8010F8D4203F8010F69
:105CDC0042EA0002F7D1FAB1039BC8F80030202346
:105CEC003B60D6E7B2F5824F3AD14288B0F800A0BB
:105CFC0002920AF44F42B2F5824F18BF4FF0000ADD
:105D0C00691E03A81F3511F8014F8D4200F8014B95
:105D1C0043EA0403F7D113B96FF08604B9E7BBF17A
:105D2C001F0F1AD9484602A9FFF764FC0446002845
:105D3C00AFD15FFA8AF3122BEED0302BECD0334676
:105D4C0003AA0BAE154603CDB542186059602A461E
:105D5C0003F10803F6D1029BBFE76FF0890498E7C3
:105D6C006FF0850495E700BF4B4E800030BFFFF706
:105D7C00FDBF00BFEFF30880EFF3098101B5724658
:105D8C00FDF70EF901BD00BF002080F31488BFF3AE
:105D9C006F8F002080F30A8880F30B880F4880F304
